{
  "_format": "hh-sol-artifact-1",
  "contractName": "BatchUpdateStateTreeVerifierBatch64",
  "sourceName": "contracts/snarkVerifiers/BatchUpdateStateTreeVerifierBatch64.sol",
  "abi": [
    {
      "inputs": [
        {
          "internalType": "uint256[2]",
          "name": "a",
          "type": "uint256[2]"
        },
        {
          "internalType": "uint256[2][2]",
          "name": "b",
          "type": "uint256[2][2]"
        },
        {
          "internalType": "uint256[2]",
          "name": "c",
          "type": "uint256[2]"
        },
        {
          "internalType": "uint256[]",
          "name": "input",
          "type": "uint256[]"
        }
      ],
      "name": "verifyProof",
      "outputs": [
        {
          "internalType": "bool",
          "name": "",
          "type": "bool"
        }
      ],
      "stateMutability": "view",
      "type": "function"
    }
  ],
  "bytecode": "0x608060405234801561001057600080fd5b50613d35806100206000396000f3fe608060405234801561001057600080fd5b506004361061002b5760003560e01c8063c32e370e14610030575b600080fd5b610184600480360361012081101561004757600080fd5b6040805180820182529183019291818301918390600290839083908082843760009201829052506040805180820190915293969594608081019493509150600290835b828210156100c8576040805180820182529080840286019060029083908390808284376000920191909152505050815260019091019060200161008a565b505060408051808201825293969594818101949350915060029083908390808284376000920191909152509194939260208101925035905064010000000081111561011257600080fd5b82018360208201111561012457600080fd5b8035906020019184602083028401116401000000008311171561014657600080fd5b919080806020026020016040519081016040528093929190818152602001838360200280828437600092019190915250929550610198945050505050565b604080519115158252519081900360200190f35b60006101a2613b2c565b6040805180820182528751815260208089015181830152908352815160808101835287515181840190815288518301516060830152815282518084018452888301805151825251830151818401528183015283820152815180830183528651815286820151918101919091529082015261021a613b5e565b6102226106b3565b905061022c613ba5565b506040805180820190915260008082526020820152825151600080516020613ce0833981519152116102a5576040805162461bcd60e51b815260206004820152601760248201527f76657269666965722d61582d6774652d7072696d652d71000000000000000000604482015290519081900360640190fd5b825160200151600080516020613ce08339815191521161030c576040805162461bcd60e51b815260206004820152601760248201527f76657269666965722d61592d6774652d7072696d652d71000000000000000000604482015290519081900360640190fd5b60208301515151600080516020613ce083398151915211610374576040805162461bcd60e51b815260206004820152601860248201527f76657269666965722d6258302d6774652d7072696d652d710000000000000000604482015290519081900360640190fd5b602083810151015151600080516020613ce0833981519152116103de576040805162461bcd60e51b815260206004820152601860248201527f76657269666965722d6259302d6774652d7072696d652d710000000000000000604482015290519081900360640190fd5b602083810151510151600080516020613ce083398151915211610448576040805162461bcd60e51b815260206004820152601860248201527f76657269666965722d6258312d6774652d7072696d652d710000000000000000604482015290519081900360640190fd5b6020838101518101510151600080516020613ce0833981519152116104b4576040805162461bcd60e51b815260206004820152601860248201527f76657269666965722d6259312d6774652d7072696d652d710000000000000000604482015290519081900360640190fd5b604083015151600080516020613ce08339815191521161051b576040805162461bcd60e51b815260206004820152601760248201527f76657269666965722d63582d6774652d7072696d652d71000000000000000000604482015290519081900360640190fd5b600080516020613ce083398151915283604001516020015110610585576040805162461bcd60e51b815260206004820152601760248201527f76657269666965722d63592d6774652d7072696d652d71000000000000000000604482015290519081900360640190fd5b60005b608881101561065f577f30644e72e131a029b85045b68181585d2833e84879b9709143e1f593f00000018682815181106105be57fe5b602002602001015110610618576040805162461bcd60e51b815260206004820152601f60248201527f76657269666965722d6774652d736e61726b2d7363616c61722d6669656c6400604482015290519081900360640190fd5b610655826106508560800151846001016089811061063257fe5b602002015189858151811061064357fe5b6020026020010151613725565b6137ba565b9150600101610588565b506080820151516106719082906137ba565b90506106a7610683846000015161384b565b846020015184600001518560200151858760400151896040015189606001516138ce565b98975050505050505050565b6106bb613b5e565b6040805180820182527f2c7677ec62a7f8e8042b019fcbed879a5fcf7f59d188df331b2c709bbbe34aab81527f1be55db229f344753201f10b7a0a35eb276e345608f0cd5d14878fa882d7aee96020808301919091529083528151608080820184527f1df0b1fd8432acc8bb6989506453ca8bc89029d9dfce66f642cce33a1751453b8285019081527f2f85f90173d1f6d610dec1e182deefe9895583910bb440db69f52b6b65a9dcf3606080850191909152908352845180860186527f20122b46b0dcaafc4c9314d175db451d74ecc95311c2fcc503d2266b088be46581527f0768322a603199a0213427c8867d12682041ce7792db0f2e0ed584694a11d969818601528385015285840192909252835180820185527f031bb51a585a804098b303e154bc61adf43fcd469d9cbd0523b26e04df37adf48186019081527f2a18127713902be513dfab4eed2be18a3d2566ea203d0efc7284df8efa543efc828501528152845180860186527f16a73020e2b4218cdb0eb99e5705de44049fc19b080fb110af69662a09d429b181527f22832c057de9c33b6320c41f47543332ffa42986707b79432a167eafe30b6566818601528185015285850152835180820185527e7ba358754936611836c57f59de131e2def755667c358d3d91ef96cdccc54f98186019081527f0bf47ca9b245cf5ab436dc09bfe8475cee9687613f1092237e51cbed5bc2a69a828501528152845180860186527f18695beb2d0c3e5436878661581c440afdd7f8918603fadcef37d3637649a4c281527e4bb4a8fcdf8c6cd0f6e8f5fa1d050558dcd374a49927ae57418ed1552d28cc818601528185015282860152835180850185527f2ec4c17cf1da044ee1baff19f8a0814919a4e02c0a885345ecbb90e9ff360a8781527f0355d6d91f51ed22e16bd16f5a72e2b9a290a7bf854b76a8cbbb821eef9ed56d81850152818601805191909152845180860186527f25e424dbda71f2915d223b5ce85cf81b82a2460cea6d6c9ed2d65f11083f401b81527f0c67c2aa29a2ef3c382e5a3b6c8ca818a330764df92cf4549827dcb6fb3c15f1818601528151850152845180860186527f220677677112aa66d31844af97df144ae2e1abb645fa370bc1756e193f51f34181527f0524a07be283dd6c74140c3697a9089b85bcd5885bb9f10c573410b77795d018818601528151860152845180860186527f017b7daf5c3321cef8a2e74583cf365fd23c6ad7688ac9002a42d1dd7eab4c4a81527f1ebb1546fe094ee7e67d15ba2112bd4e3d0ce1a482d0477bc65ffd6481eb939e81860152815190930192909252835180850185527f03b08a5d237f7d4536befbcb5b98a3066885d05b87d014d9b9472f31c61c7bd481527f183d5d182019a2727abba61c91cdee18bb17925855b09f8841b936a40ac470a581850152825190910152825180840184527f1feefc5f3e46e064003c9f42b1669d2d3b2d09c3bfeb0149e2411f1fcd512b3e81527f1032fcd1694f13756a6f350408b5c438255f1f6035923fa25caaeb52127369cf81840152815160a00152825180840184527f0b7c57164c018cfdeddc86a165a1638afb464d0204003e84d1ae8014d93bb1c181527f1ca3c26cb5fdecc37600ea83374d3e8f0d3fd00962ee3a14563b5ee894370a5c81840152815160c00152825180840184527f0b161ac82b4a4bd9f3d7a40175eee903d5319fdc15f1b75f36a0f321625300e581527f0564e9a636a35b8ccdf8d8005dc9897dd765814d502ee514f591defe31238b1181840152815160e00152825180840184527f0978889721e072b413126dd18ed0d9622ba5c6ee7bf637a4b4779f55bbe127d381527f0f0737948d308b4118dbc7d4f912eacef7dc4c2d60f40e32a40c3048250c3b268184015281516101000152825180840184527f03e6afccd7c5e7a73f56b50fea257a37840a134c48d2ba1e443b145cd0feb5bd81527f259b20c8451a09bf1699cb7ab29d6a5a3309d71d85b87dee6443217fca2493eb8184015281516101200152825180840184527f0a3ec6c6fac9a09f70423dc8d0608c3975112028fbd10121cadf608ef84f843781527f225f0e869dd56151f28b78c469e5640aad842e28aa19c8b47519cb328c689e4c8184015281516101400152825180840184527f06010653aab5b614d198038b044199cd1d3ab65ece683704bc28eaa15eecc1e781527f12130d51d53e5e4d081c7ab2818a5d2e39a0509749b9c0482f582d8a5d7ff3e98184015281516101600152825180840184527f2c7c740da3e4ea99844934a2742c370594145a550b5b178672f7de83812f118681527f2ea95afa9e016096db0090f303305a5816a3938cf64edc0366705f4f292669048184015281516101800152825180840184527f1af6eb732afd3f5b9590c9d460fd7c83f84d168d8fe6af7045ad4177245f295381527f2f5478943d0f17ddc51b5130df8b9cdd71b59723c07707f97c6b450af12d0ea98184015281516101a00152825180840184527f0bbdae843dfa8d7aaaeec9f933f504851a0ce51abc25891c5d3e7f225ceb543181527f1e313e38813e501799e442add69db53e1ca3caee2829276624bea8eafc693ce88184015281516101c00152825180840184527f0b8f51a4881a0a3ea8af8205eec033a3bd8aa4c7dba2784eccee204a7d48f93881527f25be1b6ffb68f19739480266d3501ffbde5accbe77cf3bd195f2b97ad9da54ce8184015281516101e00152825180840184527f2f4bd4e24550ebb662d670889d8dd0d5c6106e211e08aeab153b09a567e82ad081527f2c28c7cb034e95425133c10434696395206aceafadb67eaa383ca50e3fcba3f58184015281516102000152825180840184527f2198430e9b9d5fee9b00fde7c7e421dc927755bb54e61f0c964492f9207d756e81527f0c08ea1eb96d1e99e12d8ffd0a667c3f2dffeb92130cb96b5f02fa7688989e888184015281516102200152825180840184527f011f51ad0d3e6e31483db5abb0d080bfa5fad382727bb003edf3cb0c20cd316081527f2bf2a4711bd3fa4b680f7db01576db1cf0d7708749ec3a711301b5886082b2898184015281516102400152825180840184527f114105e6f0547d7369b0b47c2d9739c7e32c000ef1097ccde1bdff97801942da81527f2ddfde1003b4759b6ea02f63ddf1d445e5285cc662d1f0ecfd192e03a609d0eb8184015281516102600152825180840184527f092521f91bf0f6b9418ebcc265c0d5047990754759c1b010275c1f33ff14cea381527f160c9a0bcdcf07319b43a70a4b8ac54ddcfd66c3d6080efe7153126a1e6eac8e8184015281516102800152825180840184527f106e23eb3d83b851667980fefeff8cb812570d6348dd07e5d2dc84c3494b3ee281527f0c4d2259ed85d97936df568139221044479c18590d6d945de67698cd6506ee5b8184015281516102a00152825180840184527f228c8e01724601a1d54980e53fba51433ea48ae132861ce3c6ffae92ee14ace981527e083553f9733bb0544bef4d1e94a46ba7cda69df7bb9e279240d1620fbecf3b8184015281516102c00152825180840184527f1c793851deac3d60ce47bfb8c748b3fe78f41dc19c6ee32a73ed2e8e2d5be56881527f0cfdf57313c36b3f1bfe89f0ad056cc6f03b9ea5637e813f52c07dc2d4d02f668184015281516102e00152825180840184527f23d471be360b05a510d9c1c4ddc98c0d6897d2cf8b00594b6abf204b958677e581527f2f75666587a62640739cb446b383e1ce4b30e080e0bb457424f8c561270662448184015281516103000152825180840184527f2f58cba3dbf4b60d4023783fc0586cec4966b97a7cea92e4c685e603f66340ce81527f2a40e644b037129dd28317ba150ae8c8de29c32cbe86e4ad187836dcdf4e1a1a8184015281516103200152825180840184527f291d92896a392cea4443898511d35cbb64fa5698d928b25e45f31b75967af6bb81527f115a2f821db38ab6e6eb9614a45454080686fefa10ccc1e793610f8bb2d3f1bc8184015281516103400152825180840184527f1dcc4f9e7a039e20b4533cf147f753d1b75b8d81f59854741edc90dfce810dff81527f02860ea3875cb46992e6cd37b9aa426775e9aafcbff2a2e168d01379d775cd308184015281516103600152825180840184527f22dcfb465f06bf1e5daa8a0f94702f88600c47f8ca99b95e435c021a03e47b6881527f18691592ffaf19461a75e7f2f2d86ae0ef6c5a85e1d522d5afdc0203fafa50e48184015281516103800152825180840184527f0df7694b00703bf609b28e2c67f3e2866e728c9aae7ca91b5ec72d29858a649381527f24725373c5cabff832bea5ed6274954e9f1b156046f61da26f33fbe309fd127c8184015281516103a00152825180840184527f0969706adfa835b59d21b7373d67a9fe278a0e8320b4112b517b784a54dfe7c481527f1a3f9f6ed2b5c40cb027557df0d8038b015732879c7e0834d268aad077ce9d328184015281516103c00152825180840184527f0f643e3e146a77192198f4ee31402abf23c9194c73bb4145fd05a15101ba825581527f07d8551e9d7ca02d77cefe060957138f2789f72115cb4804c6a2c2b4439854878184015281516103e00152825180840184527f2eb4fb7fe5ae81a80c269ab5a4f93727808304a088409123e56b4e7758ffe61f81527f155e65f00696ac638ef74e5b637ea77a08cfde4bda9ebe000341c700703bc9b78184015281516104000152825180840184527f091f8c3f602ef1bc526ff9be6b22e49861a3d73bbb8fbf0f6da7ee8d4202f44b81527f1d9a6b392eb9e793cec00fb4b453d9c2f9fa9f2b46a09d56cd14c30c14ea8c618184015281516104200152825180840184527f146c18c6f1d3cd6123de62f79167d587445c7e0ed02eaf652915bd7cb35845c281527f1b96ef77b32bf4fdd340235b3082da16040ee060015264ed3259e0803987e9588184015281516104400152825180840184527e505e6c6fb7ddcf0447da5c8a7dd2827d619997e4a3cdffd624885f37a2d3bf81527f04516e012ce58cebf4a8c134d676aa05598587cb26983bdcb00fef5987a0ca928184015281516104600152825180840184527f1a0c2cd9f44ea009241179e50ffbb209b1bfd7a44f7f59c4e9ffaad821da644181527f170de9874fd625ee897d47b4a8f49b4f08cd478369c0dd327cdef393c404d10a8184015281516104800152825180840184527f102f732de3e536d52e651ec54308658d7934b9bedc8be3bd12e975a98772d1fd81527f2fea3a6235d9ee84b93c81c8c96528e984ae8ceb840dadeb648b0ded88c1b7128184015281516104a00152825180840184527f23073cdebb56bb2d5d10d2343ba59aea07b0befd1d930534797b4410f3fa612281527f28549d140104dc3b1ff7f2fa9536af4ab9cbb6b995b752acb02d82a7189f2e578184015281516104c00152825180840184527f2c40fdc89c1577f90d09e89c7f5da97e94a0854a5505025fe883a70340a560c981527f2e69fa5af52434ab1d96f1713fb6fee06fc67f87303def2c0128ad124faaae9b8184015281516104e00152825180840184527f21e7246798554424213b607f2bcfbc3b59211f464eeb5796e63528a6e5211a0581527f0183ea76497248ab16f1084782130e81fc6bd0aca9ec6a1f6d1a14d15864516f8184015281516105000152825180840184527f02e1cbb2f46b56a2b85859b2552c9d1fa9fde60b2aef59b745e23bcfdce17a0881527f1ebe20ac90fb602f0df0cc743325ad1e70e0db304ac5cbf27d4c295acf6851f28184015281516105200152825180840184527f1f70f894fb504e58ffd9e7843afe930d4e6318bcea4ec608603b508249ff8a3481527f0863302f165f95c28b4ade6ad6436c4381dc8d068892f4a78e71cd79a1f8d80a8184015281516105400152825180840184527f1a291ca381b1c66af09be5bb1800f6033e5438d5cf0b2c802fac66a5a032688a81527f20cc3bb414afc6a14fe137cb91bf1d553ead5b92c046a789ebe4f1cb07d25b218184015281516105600152825180840184527f26ff57fada479cd8729018b42b5515991b0354b860d85c25483765c7b8cc7ae081527f133ed6969d168a4d3d8e7330db5b37ff34964d8ca09c9ba05399fdab68c87ca08184015281516105800152825180840184527f0bb81286528be8897b1448173a9d33df05305deac03bca028bd537e42400534681527f22f27d3d72af363cda19cd524679d160f49b2a394f616ee1e85451ec6aa2d5b08184015281516105a00152825180840184527f250da7a61c11e27a1710ced6f63d9f1fa63b4da168364c47a94ef2cf1ccfce3981527f1acb7039f4d6f0e454de074413c9aa7107ccc25782d2b8b4c27f7edc60ec2abe8184015281516105c00152825180840184527f07d7508f11e8e5e186b9ef49d21c0aa01849ac6bbc28926de0a594fcc57bbfc281527f117713fc920ca16b3986030b8acffd71a477d777c5216e2d51ae4fe042df53408184015281516105e00152825180840184527f1ba8f79e38128470e10f26377b0d00399d8e7737ede0f75755ead7d6cba909c781527f27a8b94c91be9beb1e23a1c8ff2edf7e2d23c15e05d355a088f928e947f8f7098184015281516106000152825180840184527f170357f93499fd90d850400ef669d7acd8b5599e2674b4580ce6fc847ecdbf4b81527f1afdc4b6a3169fc3080717eac203be3d3595ae5e8f5a5cdfe382ae06dadf7cb28184015281516106200152825180840184527f2a2e4bbe064cd070f6019c82256c24cc18f202e95748161b31c6d65f2a712f9681527f19624c87b288ec47faf9808bdaa13806509ce45bb24531dd32d510daee8978288184015281516106400152825180840184527f0c8811542ead6c353c07f13645dcafa41704d56f78c386e2f14e602590e5214581527f0480b911f59601903f9e0f0733e2cf9946f1fe769e8384f00daa116ac5a65a4a8184015281516106600152825180840184527f1765b36a2bcb01f57d64b02adf8743387ea8bbbf8b373ca6c34a501aabb6be8381527f0bb91d6ad3c8fecb6d7c225245f6237ebad87e00ae5d8a80d2121010c18356858184015281516106800152825180840184527f17cbe69834a73f25ae1947e0bf801071fa04a5bb99e341a9d698421ff8e7a4f381527f0516aa3a7233f447b462ba0eeed255fa7098444d79e65cf8d36d47a64a2f2f758184015281516106a00152825180840184527f1f26c1ca06184fddab178a4907c88cc3ca56551eef0ff22cc9c07110f3fcad0c81527f0dc128bdcdd5bed6d10e09653a8eb9b295cfc51c8310d80b1b2664a665f7959a8184015281516106c00152825180840184527f1cb22abf6494c3a4f5243e339c9cdd5b30d8ea1b14ad3a3407be3c5bc478870381527f2a732a18e58b2f9ff992acbf4ffa4741ba58da80df879e839e474b6df8cc0d3b8184015281516106e00152825180840184527f269bdf88f6186c1a5ad44383866e058145229804782468f44de5940bdedd56b981527f0a42557fe06d2f2842fbd085b3a18c6bcaa548cf17efa4cef3465df39b6b56ca8184015281516107000152825180840184527f0b1d0a4e0e45349f00dac001dfefb47d352383831d6334e5ed6ab3a97954fac181527f083d4c2cff386937bbd1b8a7f96472ed9d788ae2a54104743ac5e87bc5f811198184015281516107200152825180840184527f16ff1dda23bb49b8cdcc353be0755f523219a720b0295d276a0bad2406302a4f81527f297407036796b5606df67400a82eba5dcc10abec6bd51482018765de1fe112ec8184015281516107400152825180840184527f13ad879af3742c10f4e962316cbb034b6bd1768386c50bd9f90d650e24b18d1d81527f27cf6013b1a03bfa5e4018e61006f8f4671e3dd5167d6271edc91f5af80177a48184015281516107600152825180840184527f0ae2532a45b286d56f45e60f56ec584424035823263cff7569e74eb02d0895fa81527f28bb7a23ffdcc30f4fdfde61102e2a6ccec2b4a339324ba6ef4054e47d1b59618184015281516107800152825180840184527f12c8ffb9d024210eeca3a2c92384817828bd094b51e6ac7ea62c3469557121e281527f09b3b58b0395b189706dd7e5a5cdcb7afd26c74b8da9d4c00f6813ea5c724a998184015281516107a00152825180840184527f0f11072f09ce366ce37079260c31cf72cb3e3be13ebbf663d1114367a9d80f8c81527e72ceee3ebc2aaa95d452e59460ce4f4df13ade8e34e4e2f70b891316d46ce78184015281516107c00152825180840184527f1578d6a9d77c8dd2983df929013e60d9fa25ec230900a4f41aac59eaaee5b5c381527f2376c9e3cbb8149bb7638d2bf3b7be5414dede21fbf577cad1b16323f76409038184015281516107e00152825180840184527f0106c6c787ce2e0f2d8160abb76ff0aca8307c7ca91a61084bb1d6c501ddad4381527f2874b8da4d0f8955fb5885ca0d43cc5c251a2cdd88ba8eae149c65b63adbbb5f8184015281516108000152825180840184527f026bdc1aa523c5f37184e88216c0ba8e85ce96ff5317b658f5f5527cab04501181527f053e8082e97a65002eb6e3962571b6f9a441091361788506918d45c6eaa0d8cc8184015281516108200152825180840184527f2f868f383470888530f4fd67e6b0437ab3f4d3271493b4b4e53afc673d8563d381527f01480a3ad94d6cf3f2f0182f92a53ccd01284ac6ac637414487daff26278923d8184015281516108400152825180840184527f29c2100e867d334787c65389b3218fc09a82ffa20fbbdbbcdab1c138e73b027381527f2a96d20ea6e09aadda3564f1f21a419252018c606a69938be6fa664238be0a008184015281516108600152825180840184527f208920716854189c788057d9b16fd69dfaae032d9e7d4548af3adf3c7b73902281527f1da43127b570fef6fa8d34570b8f704f8c7a751cb1af172daf93aec77e8aad0e8184015281516108800152825180840184527f13adc92e05395345d1e75aca6adc1384ab69bc7949149191b644b1ef044487ac81527f28670c85263b4b5428f61ef48efff595dcea6304c550cac60613931304b112f38184015281516108a00152825180840184527f1ae68705509feb9b693700439443ee8ec10337ff5fc3390e15932c240a34ce3e81527f14106ff2e48a15d09a68aa58018347e93105b8a33e9b779367c10bf4b902094e8184015281516108c00152825180840184527f048dd066c91767f7a1747f768879e0a3c5fbcb565e4824f923d59cdfa7ec0ba381527f05c429ae90e026a5a11ed579cba9374143b91042721a9675c4b2c389728a56da8184015281516108e00152825180840184527f176ee044dac18a43fe8628b0e1bf60a8f1fd5d75d442d3db9857b182842cff1b81527f1483e9ac3f1e07e0c416988583f9c772a13ac3212710c8e03976d1c34a0589428184015281516109000152825180840184527f290fa44198848e9b571cbd1fb43e709ca23bc653ca0d288fa09a6e59428b992681527f097178c2c182f8e427deebde8898a11b9772730bc56e5ea5fb03c5553e8e0b218184015281516109200152825180840184527f2d84a09444665d7a80773d8dad4b0605fcc7c4d2b9caf8bb92321ac302f8a98f81527f1f6d311b32dbc585f7815782db713b31253c5cbc881195ddee91e87cf082d8148184015281516109400152825180840184527f04c89f98a848e8d9fe75a77aa0912d6752413131d515f1f9b16d692c86cfacb281527f12473e77cc4b5a33365c6c54ef9d5c1b42623e76e2c64fcece7baad6a5ce79748184015281516109600152825180840184527f0fe9a1b9390404a294b7432146acced2cecf29c61bd490ba96265a64515b7fab81527f2fca8f660cfd598a9da547fad0b2cbe2e6000acd5ff4c10452ad1fe37268911f8184015281516109800152825180840184527f1499671b51167b0af91591d34e483de4947a80b5cae8e590d475c897e1d5c09f81527f14716cf2db4eff59ea1ecaa982ac3aecd90e478a10a817ace4fa6e1a490daacf8184015281516109a00152825180840184527f1d077b5d52ce89f22bac85b7b1e55bc8ef44d66da0f124875e8de932ab38ed7481527f2afa5283b5acbca69d518a67a452f22dff37bf1a2861ace50c721f33047ff9018184015281516109c00152825180840184527f1270fe6cebc8576348184fc4cfddf81c22f11d827d6884f7f74fb2bafdfec93581527f08da87a676634e7eba441b87725d0998c3defca8919cfb8f89bea7880eccf9ac8184015281516109e00152825180840184527f282bb41b7c6de34ceb3d40591d33e69d3e746134ceb4da69ae5b45d4414a856a81527f0f4ce8e8499091018a3333a13b4bf149259ff4d68ac5d35378edb4ab04925d2b818401528151610a000152825180840184527f2063ab2dd1338306ece13c1d5ed74f3072fdbbd89d2f964dc00a9b42bd3d06e981527f05e86eb735a66308e73b6266cf95417860d3778bebaff58a04332f89339e1f47818401528151610a200152825180840184527f05975afc8c6eeec878f106d36bdabc56674cf124e3869bc3b76e58bd8a3ecba481527f23b71ffde4eccf8375f4b87ab26c6d239f8c911fc956607f22cd951a4d460114818401528151610a400152825180840184527f2b120590dee786dc2a02db71a8cd5b175aa0234f29cbec141c0798cec1bdb2fc81527f076fbaac2a53e6a6dfee61956d7950f5fe7c3a59bcc22a5bba2784119d9d56bb818401528151610a600152825180840184527f29f59ff12198f009b95158e75a86fd0cc386ae0ae3811d057db645aeff42707c81527f02aee167556a2015aeb43a06440554b2a13f45c2cd2e86e84101a1eccdb9fb10818401528151610a800152825180840184527f1fe0577f081ac5dbe5e77a8e75025d10a8893c7a4923417d8b990ca7940c707481527f0a2833087e01fd7f6d675a0a7e341fb5fd44d25868ba8ab6f6a921fc7e1b5608818401528151610aa00152825180840184527f21b41985d7c2ddf0f3908f74a90cde2d97cae51381a4fdc69a6a5cc1e7dfce5281527f23f522cc61fa7027b20d5082caaa19249b6c746ea641a4cd61d8738a156a0a50818401528151610ac00152825180840184527f1da726d4d32c4e0d3e60e37e21c5b9b99a670e7826aaa3b1a429f915aa1930d681527f29812037b9d309d2b9a15ce4f8d3e5a6bfb063002ecb247537a61bc9224d0c18818401528151610ae00152825180840184527f10177ee445f77962e73f1fc3ead555bbd243e8a8f451e07bb3eb7f6bb4a3bd6781527f15192b01dcd4da52de58fb6f1c93d8a35a53c0c9a7ff6aadf33c98957d89281e818401528151610b000152825180840184527f03c762bf2c924dab8d9039a95c291303c104ff04b640f3802bbe6db4841cc8d981527f0938e13ee185263857d13e69df37201bc3f892adce67f161c85ae0bc73b671ef818401528151610b200152825180840184527f218f745a63a69d7a42bb79fb63c899a91020015878b22c73505e6dfbb874e22081527f19baedefebd2d485aa5c95e8161332410aa8a47e4f52abdd0a44a6982a0b29e3818401528151610b400152825180840184527f0552c193856f15256a754cff644809dbd5d1f54c0028e97741f2881aa9c17b3181527f1ff754edb9294c3062c6a4451fd0036f1672dc005e3f9769ebe66ef07279115b818401528151610b600152825180840184527f2468f373fe1ede9f08d54afc7e66cfb217964b2bab21db86413b8a77e8dc6df681527f2df5f4f6b9dd4f40f99a50916abc5d10711ca30e4958590d69e51c9d8fd69003818401528151610b800152825180840184527f08d2e07363d543096496df2f8a03f74cc2b4b66e99e509990565fed97e76763c81527f08a0be1f67bcefaf239f83939dd5d9eca35d7e684fbdd5b509c3a34de93b4549818401528151610ba00152825180840184527f033e3a7ff897f88ee05abba396c49e43fafba2fad0f748bb39f1cd4b6dc8796b81527f187fdf0bbd95d6e6c0afded74b73ac383c9d6eb14068f66881239e9eb117f40e818401528151610bc00152825180840184527f22a7f1a01803be8363d188a8ad5befda8d54e88c5411e05abb842d2f41f7153c81527f0624ce8da621024d0acff9ed6a3977abaa16a56be9720f76c1af44781ad03f76818401528151610be00152825180840184527f14fd506469a1ed00d3c6b7f3c88068c622ea2416600b0f38feeb0ff8b869c66b81527f1dffca700a14a0306bd9a73cee71b9aa3512ec8f64f928f2fef11d6d31a61240818401528151610c000152825180840184527f146f20ad9b94466bd1c5607c22b24c95c6f8c6acfbbe0c6e069e7d90861d1aa781527f0e5652f410c5b7bdcfba0dcc024ae50d0b3a5d83f29ea06401b45970a0c18a7a818401528151610c200152825180840184527f035e7b4165861d8c0115dffd8e8265e92f1a0121a7a652a6fffa6f8abef5897281527f2682a1d7aeb15d850727d28f08827d2306d9411f997908987a8f3f86f4a2eac3818401528151610c400152825180840184527f1934068fcbee73f8c90567b997c2b9d937b1f62777541856f4ade66538709d1581527f179714f0bcdefc5265bc2b063e63b2415701a2ad5d02126ae0ac2bc631e26558818401528151610c600152825180840184527f1fe90e0fa754816d0bedb3b856942ed45052cba1d3f35362c79a4e97805ea0c181527f0785a6bbb290071ca3eee1001dd19b534839956dfb99e13c1c7685026e169063818401528151610c800152825180840184527f30456c5832528c5358428d1e14850083d17137daff16d08b4ff3cf19fd7d4f6b81527f107f882e43d130ffbf82d377049430cf1cf8ebf43a26c2e5714853f73058e41f818401528151610ca00152825180840184527e76e4af9f88d8063c1a7541f7faf2c320758670fa182ce176e9e43ed118f15a81527f258923b79e2fa4bfd9d9c00d446c5e5d5165073b6457e0b707cabb05b4ccf50c818401528151610cc00152825180840184527f2b145967697494a3400afe3532444c7245d681a166029e921f01d86cc51b4e0d81527f2120144c669d9100e4ace02930438ac18cc26601e1261afe03b6e432d7d13e88818401528151610ce00152825180840184527f03a2230843650fdde1c1dc91a8d13fb5e06695ea82b456f59eb8e70d2e8bfa9081527f18f4ea6edd4d874c6d71cf39ce871ea993a0ca7b0ecaa3f949d023ac500c9230818401528151610d000152825180840184527f0c83997f5816a2573adca1e529b923af5daee61f444a0acb1995da4b1e55684881527f248da5e1756c6efb3f51422a783a3078e5ecce56ea1ad17b1ed20b527b5807eb818401528151610d200152825180840184527f2972cc40970947092e24849648c86a13ed16165844ab8be1d5a2654f38f22b7b81527f2a1109120d4998b1d15d33547c022035e6f9b359bf3c8295d09d37576f96788b818401528151610d400152825180840184527f05dc5082a2450bd5d8ff38e5292fb1da48d37c85a53732086fd70961f0836de681527f08586c204b540ad59a6ae24321a179e8986040ef653816509ca017a8219b1214818401528151610d600152825180840184527f0a4ed32f8b39520f5040a07f43506ff873ff0865fa22ff90267e6937e2dbb1a181527f11d94c88a8520378da2c8b081a8d75bd1d762cc7a0479d79224edcdffd44c792818401528151610d800152825180840184527f1d484cc9c2c7b0b543fc0a16e25a5905bb4b0b84c2601f7f4891c17765dab53881527f2251b10f97908b395c83caa7a41b185f52c0f4522cfc381818f71972f15603a1818401528151610da00152825180840184527f2ba99a8b814d19f0c43c20059818d69358579b93de03c100d0a76792dac0f40481527f19f3c9803a49b93253661f7c6c978963ad6dd9503770639aa871c2f827a34547818401528151610dc00152825180840184527f19538c14a2cae160d4b60db876b2ca5c4eca1d61ae1df82fbd6e2e7d2433c28781527f16b8f3985f9d0525f8dcb58c73f9e8b852e9e0a280c8fed27febd70491f8b9d3818401528151610de00152825180840184527f1c265c57560f35b44622d0a79fe9e2b24f9ce0d503c22be3aa6603d48ef66bd081527f244b434f2f1cde94d375389caf16b1a7c5fb0d911a2bef5f6b14629ff11fde02818401528151610e000152825180840184527f173fe91791785c73c1de7459363b05db2f7fa4734d8da4597d7408c33287903481527f1018f47e79a91375466c162bd046c50eb0ec368a205233b182382ca0bef7b5b6818401528151610e200152825180840184527f0434b4928b4b04e0c5b138da4870e746f1b633da129d3955397eb1afdf980ebd81527f0c0e187b23c2dc08ae194414b3d38d755e3277b10499ecb257e8810f2d7ccf4f818401528151610e400152825180840184527f1a4a25977e2613469f5652290f6dceb7bb8518be126da67d826af11e630fb24681527f23a96ac9e0cdb9e299161f0d8deb38c9084ed3b8a32095b67b97f0775ba2ce5e818401528151610e600152825180840184527f201b73ad5020cac2861d124226b6758380b5622f7332cac71e8fabf7ea9a5b6f81527f0786528ef6dc4b0feb1eb8474b55af0439656fa2a00d28211887d56f713c72b3818401528151610e800152825180840184527f0cada7a29992ef576911423ee2c25d9730e1c455b7b177eb171efe631abfcd9881527f1fb26dc15a97df863512339ba708c9c93447416099e38486cb86fc7d8283b3c2818401528151610ea00152825180840184527f1c9eacb13e439dbff60b96b9c52a311d853fe416a427123a7cbfdf67689861d781527f14a18d75dfbf3fdd7c04560c3e2258c285525378be5d81a4ce89d2198269a031818401528151610ec00152825180840184527f1c4f7a2cf25b10b986cb31fccb73f632d47ac6990fa2f2d93597c061b92a5e3281527f2148b0efdd50e277f878bad321d59ea56ee5dea605cd2f5baae52f0b60ff7ff3818401528151610ee00152825180840184527f033b43d4695c15dd1cbcaa1859a2837096b3ecc8cff8e807bc1ed8d21f2ff27d81527f2c2c45f1f5f01cb0ccd50367ee74ee6f4e4eb2a295efb75e5deeea51b6dee5d7818401528151610f000152825180840184527f18c358919b36a133c10e5eb6c6bcc83764d0a7ca28b36c983342e988714bb37c81527f16a2f21a0aba82f1240857673738d476a18eb877327244e54fbfca4e7c0d0ee9818401528151610f200152825180840184527f2970e959178ae10db4ca0e0b12ca89e22ce3bd3a5c693a138ac8000165e25bb681527f02effde35d93bd1ff9b0a44ba3e7dd62a3332a7de32c4908f4ba60cad800c033818401528151610f400152825180840184527f015a87d65b458991b6edb4ee7e654cb42f7b5fb886c3191918d54c9a9608ae0381527f1178fbae9b315662e25cedfbf17627b7a28f22203e18cb021fc62e4206108248818401528151610f600152825180840184527f1c4b94967d4c250edfd585ed42a3605447fffdf35a2d10f3fa557971b7ce1f9481527f06a19d0f5cddd3d0e69fac9d773f65eedcc6505f6ee1fd7a614e066ed7a400de818401528151610f800152825180840184527f226851738af0fc85fb16756e64d3668f84d7df6f9bda13ed41f814480bc0012e81527f262596f00e224faa8c84e6b50e12fc0b9b30e54b4410b3c71b039aab9ddb9000818401528151610fa00152825180840184527f115f6ac434d74af8ad096c410b9fb04109955a203b2b7b86203a84a24d3d090a81527f0222b7bb844e99c8025b5b4b25beb4bcbd41dafad5ef3917df3847ce7901141a818401528151610fc00152825180840184527f0f17b2aaa7bdfd081846c0a0c81578935898a74d5880a37a1777aca367fbcbca81527f259429b7f9388de31eb8a5ed899736bbdc38d1c47729309d1361f8523099f975818401528151610fe00152825180840184527f0f4a94173bba71bd6bf4da82c7e9bd3e5c7c2c471a4da385863e1970c0ad153b81527f295d77abc5348fe32972f2621fc78af928e8085e31c3313fbbe159d095d3f45d8184015281516110000152825180840184527f1ed99a54ab190a1b53967f63cfecad66cf97378227613627551e08a4adc347e481527f0cf03c61ccd8224d4fe192d43583cc611ae690737323def24c6aa0a94fd112fb8184015281516110200152825180840184527f01f3c69f7cce45562cc7d2f7a5b41c37e7b172ea221065496d413c151f69432a81527f15532be47f553160d97d1a22b13e4d98c8f529c9b3b1cb0d691d2d75a91dde088184015281516110400152825180840184527f10fc150bb0472416514ed82e0d116c102b4a490e94fe9fc3694e1ea17abc905b81527f18ac154f8618b4ad8482fa92a60347b1ef1ccaf802a686ef94c93648628a6ed58184015281516110600152825180840184527f115216155e5da1d350a1ea6ba8b9f5e6ed49fba29ee98a832bf9bfeb2040a49981527f0b9ef65b7695891c52ca282813218a8a892dc51453663c4daf4fcb8d80b5c6e48184015281516110800152825180840184527f0b4f8a61b562c15d78dc215871e1e37de9d3040e2c2aaac36d5db581221ca26a81527f0cf9acbeddb8fdec9a0248c237d418cd5f8541e5a0a399f104fed2484a207cd78184015281516110a00152825180840184527f29a0956ece42e4bc27c22f7d8361a2452beb3f1b9f5396fe3019523832e61dc381527f02d805389fc7fc6ac6a10fd621a8f573a831cfde4914fb8dca855b575e6af1788184015281516110c00152825180840184527f293e5dc421e8e8446678e418f2cbbed03e2960a37f770477a45b50eb1ce5f51081527f23abdc4897179d8b78ebc71d95b657f80f7b31d93103f99e60860dfabaaea8cc8184015281516110e0015282518084019093527f09eacb17aec540d9feeced52033416132c14ff7fc643a1895fcd0929e7a39a4683527f1bd91ba007dad6686656cd2b955287240702e5eb49be71fdf3a7790e7d4285459183019190915251611100015290565b61372d613ba5565b613735613bbf565b835181526020808501519082015260408101839052600060608360808460076107d05a03fa90508080156137685761376a565bfe5b50806137b2576040805162461bcd60e51b81526020600482015260126024820152711c185a5c9a5b99cb5b5d5b0b59985a5b195960721b604482015290519081900360640190fd5b505092915050565b6137c2613ba5565b6137ca613bdd565b8351815260208085015181830152835160408301528301516060808301919091526000908360c08460066107d05a03fa90508080156137685750806137b2576040805162461bcd60e51b81526020600482015260126024820152711c185a5c9a5b99cb5859190b59985a5b195960721b604482015290519081900360640190fd5b613853613ba5565b815115801561386457506020820151155b15613883575060408051808201909152600080825260208201526138c9565b604051806040016040528083600001518152602001600080516020613ce08339815191528460200151816138b357fe5b06600080516020613ce083398151915203905290505b919050565b60006138d8613bfb565b60405180608001604052808b8152602001898152602001878152602001858152509050613903613c28565b50604080516080810182528a81526020810189905280820187905260608082018690528251601880825261032082019094529192918281602001602082028036833701905050905060005b6004811015613aa5576006810285826004811061396757fe5b602002015151835184908390811061397b57fe5b60200260200101818152505085826004811061399357fe5b6020020151602001518382600101815181106139ab57fe5b6020026020010181815250508482600481106139c357fe5b6020020151515183518490600284019081106139db57fe5b6020026020010181815250508482600481106139f357fe5b60200201515160016020020151838260030181518110613a0f57fe5b602002602001018181525050848260048110613a2757fe5b602002015160200151600060028110613a3c57fe5b6020020151838260040181518110613a5057fe5b602002602001018181525050848260048110613a6857fe5b602002015160200151600160028110613a7d57fe5b6020020151838260050181518110613a9157fe5b60209081029190910101525060010161394e565b50613aae613c55565b6000602082602086026020860160086107d05a03fa9050808015613768575080613b17576040805162461bcd60e51b81526020600482015260156024820152741c185a5c9a5b99cb5bdc18dbd9194b59985a5b1959605a1b604482015290519081900360640190fd5b505115159d9c50505050505050505050505050565b6040518060600160405280613b3f613ba5565b8152602001613b4c613c73565b8152602001613b59613ba5565b905290565b6040518060a00160405280613b71613ba5565b8152602001613b7e613c73565b8152602001613b8b613c73565b8152602001613b98613c73565b8152602001613b59613c93565b604051806040016040528060008152602001600081525090565b60405180606001604052806003906020820280368337509192915050565b60405180608001604052806004906020820280368337509192915050565b60405180608001604052806004905b613c12613ba5565b815260200190600190039081613c0a5790505090565b60405180608001604052806004905b613c3f613c73565b815260200190600190039081613c375790505090565b60405180602001604052806001906020820280368337509192915050565b6040518060400160405280613c86613cc1565b8152602001613b59613cc1565b6040518061112001604052806089905b613cab613ba5565b815260200190600190039081613ca35790505090565b6040518060400160405280600290602082028036833750919291505056fe30644e72e131a029b85045b68181585d97816a916871ca8d3c208c16d87cfd47a26469706673582212205dc44cc3082f4116aa6d7de98fa213cc954baa8c838947571b03c26ec298ab6e64736f6c634300060c0033",
  "linkReferences": {},
  "deployedLinkReferences": {}
}