{"contracts/snarkVerifiers/BatchUpdateStateTreeVerifier32.sol":{"BatchUpdateStateTreeVerifier32":{"abi":[{"inputs":[{"internalType":"uint256[2]","name":"a","type":"uint256[2]"},{"internalType":"uint256[2][2]","name":"b","type":"uint256[2][2]"},{"internalType":"uint256[2]","name":"c","type":"uint256[2]"},{"internalType":"uint256[]","name":"input","type":"uint256[]"}],"name":"verifyProof","outputs":[{"internalType":"bool","name":"","type":"bool"}],"stateMutability":"view","type":"function"}],"evm":{"bytecode":{"linkReferences":{},"object":"608060405234801561001057600080fd5b50611799806100206000396000f3fe608060405234801561001057600080fd5b506004361061002b5760003560e01c8063c32e370e14610030575b600080fd5b610184600480360361012081101561004757600080fd5b6040805180820182529183019291818301918390600290839083908082843760009201829052506040805180820190915293969594608081019493509150600290835b828210156100c8576040805180820182529080840286019060029083908390808284376000920191909152505050815260019091019060200161008a565b505060408051808201825293969594818101949350915060029083908390808284376000920191909152509194939260208101925035905064010000000081111561011257600080fd5b82018360208201111561012457600080fd5b8035906020019184602083028401116401000000008311171561014657600080fd5b919080806020026020016040519081016040528093929190818152602001838360200280828437600092019190915250929550610198945050505050565b604080519115158252519081900360200190f35b60006101a2611590565b6040805180820182528751815260208089015181830152908352815160808101835287515181840190815288518301516060830152815282518084018452888301805151825251830151818401528183015283820152815180830183528651815286820151918101919091529082015261021a6115c2565b6102226106b3565b905061022c611609565b506040805180820190915260008082526020820152825151600080516020611744833981519152116102a5576040805162461bcd60e51b815260206004820152601760248201527f76657269666965722d61582d6774652d7072696d652d71000000000000000000604482015290519081900360640190fd5b8251602001516000805160206117448339815191521161030c576040805162461bcd60e51b815260206004820152601760248201527f76657269666965722d61592d6774652d7072696d652d71000000000000000000604482015290519081900360640190fd5b6020830151515160008051602061174483398151915211610374576040805162461bcd60e51b815260206004820152601860248201527f76657269666965722d6258302d6774652d7072696d652d710000000000000000604482015290519081900360640190fd5b602083810151015151600080516020611744833981519152116103de576040805162461bcd60e51b815260206004820152601860248201527f76657269666965722d6259302d6774652d7072696d652d710000000000000000604482015290519081900360640190fd5b60208381015151015160008051602061174483398151915211610448576040805162461bcd60e51b815260206004820152601860248201527f76657269666965722d6258312d6774652d7072696d652d710000000000000000604482015290519081900360640190fd5b6020838101518101510151600080516020611744833981519152116104b4576040805162461bcd60e51b815260206004820152601860248201527f76657269666965722d6259312d6774652d7072696d652d710000000000000000604482015290519081900360640190fd5b6040830151516000805160206117448339815191521161051b576040805162461bcd60e51b815260206004820152601760248201527f76657269666965722d63582d6774652d7072696d652d71000000000000000000604482015290519081900360640190fd5b60008051602061174483398151915283604001516020015110610585576040805162461bcd60e51b815260206004820152601760248201527f76657269666965722d63592d6774652d7072696d652d71000000000000000000604482015290519081900360640190fd5b60005b601881101561065f577f30644e72e131a029b85045b68181585d2833e84879b9709143e1f593f00000018682815181106105be57fe5b602002602001015110610618576040805162461bcd60e51b815260206004820152601f60248201527f76657269666965722d6774652d736e61726b2d7363616c61722d6669656c6400604482015290519081900360640190fd5b610655826106508560800151846001016019811061063257fe5b602002015189858151811061064357fe5b6020026020010151611189565b61121e565b9150600101610588565b5060808201515161067190829061121e565b90506106a761068384600001516112af565b84602001518460000151856020015185876040015189604001518960600151611332565b98975050505050505050565b6106bb6115c2565b6040805180820182527f04f17ef4d1594369204c74cb4f896bd12dcc5e89499f3d4a5cfaf2b81f4a618181527f19e9ada6af8f7e535be4d096d883f057bcc9e5501f2fb87d76ba4454c6535b856020808301919091529083528151608080820184527f28061c9ff47fe7f3caa687cb335fa18156483b07e29cb5e5ecf36e18da5b5b328285019081527f07c8f3b8ed7a127023fd0a1c65fb6a716e09310888620d06aba4db80afbca916606080850191909152908352845180860186527f2c0f8a4da1bbc9709569c93454325a6340d28cb9687ba2e538354ea873504a6e81527f05ffc7b5553a8c99d4f9602ab8ff1d0e943e4ec28d716046cff326d21c31714f818601528385015285840192909252835180820185527f28fd497055a3d592d0140090e30dbc334740c81d619dbc3ff17af8154bda18638186019081527f1a191d4a57d02351722376fef131cc1ee09f4f0cc3db2eb1087ccd84d6920627828501528152845180860186527f114be992b36e09a4ea5dbcd5e0222721939ce402ef3ad6a2f63e0f46a231d83181527ed7f1a7315a99659c728c6ce244455be136ad1d5389cf53c09f38349208b16a818601528185015285850152835180820185527f1e75f9cd481b9037c9d4d1fdae401b954019ee29ef45c90b534ed7bc9a3100b08186019081527f0ce3458b4b3f07377b29ccc391691418ae35adac7b7a58f8e5ddce0cb9636fc7828501528152845180860186527f072e495f48cf043ceb38348c26c3f62cfc5136322bec410359914e02579b4b5681527f2cf44c32ee66739c72eec5867e324ab45276ef832587f176553a981b38d53a7a818601528185015282860152835180850185527f1c11488b6046a60fd7f54889553447f4ae4fe52c5d54914bd240f2c5cf3f0b8e81527f135bda5a5730c6a7bcb074b9c5697e3b3fbab0300dc1782cb0b25f985e661a6581850152818601805191909152845180860186527f2af353a94677ad071e0d2818ea5f08c655ac7951a7f4d583d264aae1c1712d0681527f276b6fc3a4b1009c41875e9e954bcb2fdad5bf9ada5d2b470f58bdebdffb8d0a818601528151850152845180860186527ee85288a75ed72828bab40804402962d9f106868200ff93783cb8a387199c0581527f2bcc113c58e7c74851e19b5fe25cb2b57479e2e06e1a742a9d09c17ee8a972c5818601528151860152845180860186527f256cdeda520520f26f669931f7bc0dbcfcd88430848aaea74468b8b35303934881527f0fa7b21b1ce0ed3c9a18227815a6a1f5c7cf185cf84d2592a4389b6d8f059ca481860152815190930192909252835180850185527f23e20e94c9cd118afd390cd9fb6f6df6a5954c6e8d65ec0e0aff795bfd75e67a81527f1fd0ca0dac474c44d5d935983742154a5946f6805aae8cfa7f4c3ffccb3e131981850152825190910152825180840184527f1e51e8bd8cc1cfdc82b04b543ebb0b7ab052e3410976e60a905fd4e62c146d4881527f011326c03192e1f82cc5f6f92fffb5dc6f4aff5d7eb12c14494a12c625c72e0581840152815160a00152825180840184527f2748daad2336e5444b1718551dbed39fff63dce28c6386fdff11ea2111f80a6681527f12ca9bfa34cb36e948d024ac747b283e715ffb6b263c1c10d3d73250838f028b81840152815160c00152825180840184527f1fdef7b53a748e789754d47648c31c0f165d96b83f2144e77a1255ce949b7fa081527f204eeb91922799d596104f5eef8b1a9a0002b82023c384e00f761fe2fe85e10e81840152815160e00152825180840184527f2510a4fc3c5ebacc8ff23f7e30122863d075375f6afe40292c62e8b74bb5a1f181527f02fd807094a71d6e6c5a82c1b07c03a9872521e401a3f653cadb012a024ae9fc8184015281516101000152825180840184527f163b8b3a862b3b49c0704005ce9f9b976dc0c1df89b1a5891f4ee1f9694755c581527f24fd49286d7d67c4c537d3f63ba6f6bb9740664b4d5817db3ff5f4b0afa677208184015281516101200152825180840184527f1d626212f371c0d4ec44a1cf3ff2c255ae602600749fe09ec81ed31d951b2e0f81527f11f0947d14eb51564ee7eb1cf34587d93b4a39ec4d93e412bf4471e2f97a49bb8184015281516101400152825180840184527f1134f68a92002cf672eaf3cf9464f86201004d4704d64be69193d8d9993679b081527f2db9cf8c4bdcbc56e48458ecb46b94d0284f97b8c325ccbcb0abc5160d42b37e8184015281516101600152825180840184527f015db851b48ced70da43c4f13d0ff0bb5b1cd243802d9e5a246e7022927a0b1d81527f23c95e35c9ac1671ef89d737a5e3374de671fd6c2640a82dcff64ab78b35fc768184015281516101800152825180840184527f2001ef62f54b1c729845acdac55bc8fd5435e9181bb3a992341915f991806cb581527f1ec33c43a3a53c73cf048b5cf1365313e44d3518f888756a73a6d9d3c4f61c108184015281516101a00152825180840184527f0d18f8af6e0df5e73dd048a96b755ba017c295418bf9c7c2ce28847758bdfde881527f242c5f680775e3b0411b244402b4c3590b2815d1cb4fab5538fe6fe03141609d8184015281516101c00152825180840184527f25c8b10c93bc123a644e1f6d8022ed529b85005820726dbb42cdae1339775d1981527f24411c021c373335d2a11878d30883c30229c713d62e3b3567a664c3693bcd418184015281516101e00152825180840184527f10bf1d334fea0ff510e2c0f4b3d79911204f89346c7ad18a59e880245c64d32f81527f0b353bb8c43757109bfc6c730c576d43af4682cf3fac291aa283ed60a40a216c8184015281516102000152825180840184527f1715ce03f00c600797ddf2e161792194bb6318532fbfe6a34c58551814ed5e1381527f220b8539de47094383330cf542e88179ec811193cc7ab56d665d04fb2b1f755e8184015281516102200152825180840184527f27135d17ff93447830c19b56da1b0a21cae7ee61e9065eb8f48122c3762c1cee81527f15105f2041a0053ffa6c2062931293032b3020b9b7e9b759dd8782c105f6faae8184015281516102400152825180840184527f02e2aa17f39f260618bf88f30654cfcb30b3d02645c224c52dc178c662766ab181527f2da2786d5351c3e60b6696109d611922a34aa2b9a4394168460b72d70f52e2fe8184015281516102600152825180840184527f2e098f6434f77c754f216e5c30ebe959323897415cd2b37a4c093994b5e276ed81527f03818a8d7c349225a23a27002b5208de1d8fd707f7e090c676ac5d0273423efc8184015281516102800152825180840184527f130508a818b1344ecd35990d08fe4c7c4e4fffccea15ae22923535548c222e7281527f06b3dbb8f92e3b41cb3e58d152657dc9f13afb67bf924448ba4d49d807554b218184015281516102a00152825180840184527f214d2f507616c86f3afe87bcf855ff613258b42a73d87f618474fccb3a60b02281527f2044b7fad06651466d96a2582581f418a14ef3c17259d4304eb544b0aa9413eb8184015281516102c00152825180840184527f1458c6b23ddab739bcf21377d700af5a3a50b54911f6e33c4f7478903413f74b81527f0eaa9d91f276118c05b33dcfa24d7d5dfdd179826db125b38d92d7e704592fa48184015281516102e0015282518084019093527f15742387f191645ec3dfa6cc81db61af15b760b88ed6ce30036d66c600ff5b6183527f250a821dd5293d02e98c0ceca2de48bf7689e1afefff8e245363b32eb5737be69183019190915251610300015290565b611191611609565b611199611623565b835181526020808501519082015260408101839052600060608360808460076107d05a03fa90508080156111cc576111ce565bfe5b5080611216576040805162461bcd60e51b81526020600482015260126024820152711c185a5c9a5b99cb5b5d5b0b59985a5b195960721b604482015290519081900360640190fd5b505092915050565b611226611609565b61122e611641565b8351815260208085015181830152835160408301528301516060808301919091526000908360c08460066107d05a03fa90508080156111cc575080611216576040805162461bcd60e51b81526020600482015260126024820152711c185a5c9a5b99cb5859190b59985a5b195960721b604482015290519081900360640190fd5b6112b7611609565b81511580156112c857506020820151155b156112e75750604080518082019091526000808252602082015261132d565b60405180604001604052808360000151815260200160008051602061174483398151915284602001518161131757fe5b0660008051602061174483398151915203905290505b919050565b600061133c61165f565b60405180608001604052808b815260200189815260200187815260200185815250905061136761168c565b50604080516080810182528a81526020810189905280820187905260608082018690528251601880825261032082019094529192918281602001602082028036833701905050905060005b600481101561150957600681028582600481106113cb57fe5b60200201515183518490839081106113df57fe5b6020026020010181815250508582600481106113f757fe5b60200201516020015183826001018151811061140f57fe5b60200260200101818152505084826004811061142757fe5b60200201515151835184906002840190811061143f57fe5b60200260200101818152505084826004811061145757fe5b6020020151516001602002015183826003018151811061147357fe5b60200260200101818152505084826004811061148b57fe5b6020020151602001516000600281106114a057fe5b60200201518382600401815181106114b457fe5b6020026020010181815250508482600481106114cc57fe5b6020020151602001516001600281106114e157fe5b60200201518382600501815181106114f557fe5b6020908102919091010152506001016113b2565b506115126116b9565b6000602082602086026020860160086107d05a03fa90508080156111cc57508061157b576040805162461bcd60e51b81526020600482015260156024820152741c185a5c9a5b99cb5bdc18dbd9194b59985a5b1959605a1b604482015290519081900360640190fd5b505115159d9c50505050505050505050505050565b60405180606001604052806115a3611609565b81526020016115b06116d7565b81526020016115bd611609565b905290565b6040518060a001604052806115d5611609565b81526020016115e26116d7565b81526020016115ef6116d7565b81526020016115fc6116d7565b81526020016115bd6116f7565b604051806040016040528060008152602001600081525090565b60405180606001604052806003906020820280368337509192915050565b60405180608001604052806004906020820280368337509192915050565b60405180608001604052806004905b611676611609565b81526020019060019003908161166e5790505090565b60405180608001604052806004905b6116a36116d7565b81526020019060019003908161169b5790505090565b60405180602001604052806001906020820280368337509192915050565b60405180604001604052806116ea611725565b81526020016115bd611725565b6040518061032001604052806019905b61170f611609565b8152602001906001900390816117075790505090565b6040518060400160405280600290602082028036833750919291505056fe30644e72e131a029b85045b68181585d97816a916871ca8d3c208c16d87cfd47a26469706673582212200ef27e0936d002aae8e8be8a4e4cbb760abad204401f0012975af9b4ae81de4764736f6c634300060c0033","opcodes":"PUSH1 0x80 PUSH1 0x40 MSTORE CALLVALUE DUP1 ISZERO PUSH2 0x10 JUMPI PUSH1 0x0 DUP1 REVERT JUMPDEST POP PUSH2 0x1799 DUP1 PUSH2 0x20 PUSH1 0x0 CODECOPY PUSH1 0x0 RETURN INVALID PUSH1 0x80 PUSH1 0x40 MSTORE CALLVALUE DUP1 ISZERO PUSH2 0x10 JUMPI PUSH1 0x0 DUP1 REVERT JUMPDEST POP PUSH1 0x4 CALLDATASIZE LT PUSH2 0x2B JUMPI PUSH1 0x0 CALLDATALOAD PUSH1 0xE0 SHR DUP1 PUSH4 0xC32E370E EQ PUSH2 0x30 JUMPI JUMPDEST PUSH1 0x0 DUP1 REVERT JUMPDEST PUSH2 0x184 PUSH1 0x4 DUP1 CALLDATASIZE SUB PUSH2 0x120 DUP2 LT ISZERO PUSH2 0x47 JUMPI PUSH1 0x0 DUP1 REVERT JUMPDEST PUSH1 0x40 DUP1 MLOAD DUP1 DUP3 ADD DUP3 MSTORE SWAP2 DUP4 ADD SWAP3 SWAP2 DUP2 DUP4 ADD SWAP2 DUP4 SWAP1 PUSH1 0x2 SWAP1 DUP4 SWAP1 DUP4 SWAP1 DUP1 DUP3 DUP5 CALLDATACOPY PUSH1 0x0 SWAP3 ADD DUP3 SWAP1 MSTORE POP PUSH1 0x40 DUP1 MLOAD DUP1 DUP3 ADD SWAP1 SWAP2 MSTORE SWAP4 SWAP7 SWAP6 SWAP5 PUSH1 0x80 DUP2 ADD SWAP5 SWAP4 POP SWAP2 POP PUSH1 0x2 SWAP1 DUP4 JUMPDEST DUP3 DUP3 LT ISZERO PUSH2 0xC8 JUMPI PUSH1 0x40 DUP1 MLOAD DUP1 DUP3 ADD DUP3 MSTORE SWAP1 DUP1 DUP5 MUL DUP7 ADD SWAP1 PUSH1 0x2 SWAP1 DUP4 SWAP1 DUP4 SWAP1 DUP1 DUP3 DUP5 CALLDATACOPY PUSH1 0x0 SWAP3 ADD SWAP2 SWAP1 SWAP2 MSTORE POP POP POP DUP2 MSTORE PUSH1 0x1 SWAP1 SWAP2 ADD SWAP1 PUSH1 0x20 ADD PUSH2 0x8A JUMP JUMPDEST POP POP PUSH1 0x40 DUP1 MLOAD DUP1 DUP3 ADD DUP3 MSTORE SWAP4 SWAP7 SWAP6 SWAP5 DUP2 DUP2 ADD SWAP5 SWAP4 POP SWAP2 POP PUSH1 0x2 SWAP1 DUP4 SWAP1 DUP4 SWAP1 DUP1 DUP3 DUP5 CALLDATACOPY PUSH1 0x0 SWAP3 ADD SWAP2 SWAP1 SWAP2 MSTORE POP SWAP2 SWAP5 SWAP4 SWAP3 PUSH1 0x20 DUP2 ADD SWAP3 POP CALLDATALOAD SWAP1 POP PUSH5 0x100000000 DUP2 GT ISZERO PUSH2 0x112 JUMPI PUSH1 0x0 DUP1 REVERT JUMPDEST DUP3 ADD DUP4 PUSH1 0x20 DUP3 ADD GT ISZERO PUSH2 0x124 JUMPI PUSH1 0x0 DUP1 REVERT JUMPDEST DUP1 CALLDATALOAD SWAP1 PUSH1 0x20 ADD SWAP2 DUP5 PUSH1 0x20 DUP4 MUL DUP5 ADD GT PUSH5 0x100000000 DUP4 GT OR ISZERO PUSH2 0x146 JUMPI PUSH1 0x0 DUP1 REVERT JUMPDEST SWAP2 SWAP1 DUP1 DUP1 PUSH1 0x20 MUL PUSH1 0x20 ADD PUSH1 0x40 MLOAD SWAP1 DUP2 ADD PUSH1 0x40 MSTORE DUP1 SWAP4 SWAP3 SWAP2 SWAP1 DUP2 DUP2 MSTORE PUSH1 0x20 ADD DUP4 DUP4 PUSH1 0x20 MUL DUP1 DUP3 DUP5 CALLDATACOPY PUSH1 0x0 SWAP3 ADD SWAP2 SWAP1 SWAP2 MSTORE POP SWAP3 SWAP6 POP PUSH2 0x198 SWAP5 POP POP POP POP POP JUMP JUMPDEST PUSH1 0x40 DUP1 MLOAD SWAP2 ISZERO ISZERO DUP3 MSTORE MLOAD SWAP1 DUP2 SWAP1 SUB PUSH1 0x20 ADD SWAP1 RETURN JUMPDEST PUSH1 0x0 PUSH2 0x1A2 PUSH2 0x1590 JUMP JUMPDEST PUSH1 0x40 DUP1 MLOAD DUP1 DUP3 ADD DUP3 MSTORE DUP8 MLOAD DUP2 MSTORE PUSH1 0x20 DUP1 DUP10 ADD MLOAD DUP2 DUP4 ADD MSTORE SWAP1 DUP4 MSTORE DUP2 MLOAD PUSH1 0x80 DUP2 ADD DUP4 MSTORE DUP8 MLOAD MLOAD DUP2 DUP5 ADD SWAP1 DUP2 MSTORE DUP9 MLOAD DUP4 ADD MLOAD PUSH1 0x60 DUP4 ADD MSTORE DUP2 MSTORE DUP3 MLOAD DUP1 DUP5 ADD DUP5 MSTORE DUP9 DUP4 ADD DUP1 MLOAD MLOAD DUP3 MSTORE MLOAD DUP4 ADD MLOAD DUP2 DUP5 ADD MSTORE DUP2 DUP4 ADD MSTORE DUP4 DUP3 ADD MSTORE DUP2 MLOAD DUP1 DUP4 ADD DUP4 MSTORE DUP7 MLOAD DUP2 MSTORE DUP7 DUP3 ADD MLOAD SWAP2 DUP2 ADD SWAP2 SWAP1 SWAP2 MSTORE SWAP1 DUP3 ADD MSTORE PUSH2 0x21A PUSH2 0x15C2 JUMP JUMPDEST PUSH2 0x222 PUSH2 0x6B3 JUMP JUMPDEST SWAP1 POP PUSH2 0x22C PUSH2 0x1609 JUMP JUMPDEST POP PUSH1 0x40 DUP1 MLOAD DUP1 DUP3 ADD SWAP1 SWAP2 MSTORE PUSH1 0x0 DUP1 DUP3 MSTORE PUSH1 0x20 DUP3 ADD MSTORE DUP3 MLOAD MLOAD PUSH1 0x0 DUP1 MLOAD PUSH1 0x20 PUSH2 0x1744 DUP4 CODECOPY DUP2 MLOAD SWAP2 MSTORE GT PUSH2 0x2A5 JUMPI PUSH1 0x40 DUP1 MLOAD PUSH3 0x461BCD PUSH1 0xE5 SHL DUP2 MSTORE PUSH1 0x20 PUSH1 0x4 DUP3 ADD MSTORE PUSH1 0x17 PUSH1 0x24 DUP3 ADD MSTORE PUSH32 0x76657269666965722D61582D6774652D7072696D652D71000000000000000000 PUSH1 0x44 DUP3 ADD MSTORE SWAP1 MLOAD SWAP1 DUP2 SWAP1 SUB PUSH1 0x64 ADD SWAP1 REVERT JUMPDEST DUP3 MLOAD PUSH1 0x20 ADD MLOAD PUSH1 0x0 DUP1 MLOAD PUSH1 0x20 PUSH2 0x1744 DUP4 CODECOPY DUP2 MLOAD SWAP2 MSTORE GT PUSH2 0x30C JUMPI PUSH1 0x40 DUP1 MLOAD PUSH3 0x461BCD PUSH1 0xE5 SHL DUP2 MSTORE PUSH1 0x20 PUSH1 0x4 DUP3 ADD MSTORE PUSH1 0x17 PUSH1 0x24 DUP3 ADD MSTORE PUSH32 0x76657269666965722D61592D6774652D7072696D652D71000000000000000000 PUSH1 0x44 DUP3 ADD MSTORE SWAP1 MLOAD SWAP1 DUP2 SWAP1 SUB PUSH1 0x64 ADD SWAP1 REVERT JUMPDEST PUSH1 0x20 DUP4 ADD MLOAD MLOAD MLOAD PUSH1 0x0 DUP1 MLOAD PUSH1 0x20 PUSH2 0x1744 DUP4 CODECOPY DUP2 MLOAD SWAP2 MSTORE GT PUSH2 0x374 JUMPI PUSH1 0x40 DUP1 MLOAD PUSH3 0x461BCD PUSH1 0xE5 SHL DUP2 MSTORE PUSH1 0x20 PUSH1 0x4 DUP3 ADD MSTORE PUSH1 0x18 PUSH1 0x24 DUP3 ADD MSTORE PUSH32 0x76657269666965722D6258302D6774652D7072696D652D710000000000000000 PUSH1 0x44 DUP3 ADD MSTORE SWAP1 MLOAD SWAP1 DUP2 SWAP1 SUB PUSH1 0x64 ADD SWAP1 REVERT JUMPDEST PUSH1 0x20 DUP4 DUP2 ADD MLOAD ADD MLOAD MLOAD PUSH1 0x0 DUP1 MLOAD PUSH1 0x20 PUSH2 0x1744 DUP4 CODECOPY DUP2 MLOAD SWAP2 MSTORE GT PUSH2 0x3DE JUMPI PUSH1 0x40 DUP1 MLOAD PUSH3 0x461BCD PUSH1 0xE5 SHL DUP2 MSTORE PUSH1 0x20 PUSH1 0x4 DUP3 ADD MSTORE PUSH1 0x18 PUSH1 0x24 DUP3 ADD MSTORE PUSH32 0x76657269666965722D6259302D6774652D7072696D652D710000000000000000 PUSH1 0x44 DUP3 ADD MSTORE SWAP1 MLOAD SWAP1 DUP2 SWAP1 SUB PUSH1 0x64 ADD SWAP1 REVERT JUMPDEST PUSH1 0x20 DUP4 DUP2 ADD MLOAD MLOAD ADD MLOAD PUSH1 0x0 DUP1 MLOAD PUSH1 0x20 PUSH2 0x1744 DUP4 CODECOPY DUP2 MLOAD SWAP2 MSTORE GT PUSH2 0x448 JUMPI PUSH1 0x40 DUP1 MLOAD PUSH3 0x461BCD PUSH1 0xE5 SHL DUP2 MSTORE PUSH1 0x20 PUSH1 0x4 DUP3 ADD MSTORE PUSH1 0x18 PUSH1 0x24 DUP3 ADD MSTORE PUSH32 0x76657269666965722D6258312D6774652D7072696D652D710000000000000000 PUSH1 0x44 DUP3 ADD MSTORE SWAP1 MLOAD SWAP1 DUP2 SWAP1 SUB PUSH1 0x64 ADD SWAP1 REVERT JUMPDEST PUSH1 0x20 DUP4 DUP2 ADD MLOAD DUP2 ADD MLOAD ADD MLOAD PUSH1 0x0 DUP1 MLOAD PUSH1 0x20 PUSH2 0x1744 DUP4 CODECOPY DUP2 MLOAD SWAP2 MSTORE GT PUSH2 0x4B4 JUMPI PUSH1 0x40 DUP1 MLOAD PUSH3 0x461BCD PUSH1 0xE5 SHL DUP2 MSTORE PUSH1 0x20 PUSH1 0x4 DUP3 ADD MSTORE PUSH1 0x18 PUSH1 0x24 DUP3 ADD MSTORE PUSH32 0x76657269666965722D6259312D6774652D7072696D652D710000000000000000 PUSH1 0x44 DUP3 ADD MSTORE SWAP1 MLOAD SWAP1 DUP2 SWAP1 SUB PUSH1 0x64 ADD SWAP1 REVERT JUMPDEST PUSH1 0x40 DUP4 ADD MLOAD MLOAD PUSH1 0x0 DUP1 MLOAD PUSH1 0x20 PUSH2 0x1744 DUP4 CODECOPY DUP2 MLOAD SWAP2 MSTORE GT PUSH2 0x51B JUMPI PUSH1 0x40 DUP1 MLOAD PUSH3 0x461BCD PUSH1 0xE5 SHL DUP2 MSTORE PUSH1 0x20 PUSH1 0x4 DUP3 ADD MSTORE PUSH1 0x17 PUSH1 0x24 DUP3 ADD MSTORE PUSH32 0x76657269666965722D63582D6774652D7072696D652D71000000000000000000 PUSH1 0x44 DUP3 ADD MSTORE SWAP1 MLOAD SWAP1 DUP2 SWAP1 SUB PUSH1 0x64 ADD SWAP1 REVERT JUMPDEST PUSH1 0x0 DUP1 MLOAD PUSH1 0x20 PUSH2 0x1744 DUP4 CODECOPY DUP2 MLOAD SWAP2 MSTORE DUP4 PUSH1 0x40 ADD MLOAD PUSH1 0x20 ADD MLOAD LT PUSH2 0x585 JUMPI PUSH1 0x40 DUP1 MLOAD PUSH3 0x461BCD PUSH1 0xE5 SHL DUP2 MSTORE PUSH1 0x20 PUSH1 0x4 DUP3 ADD MSTORE PUSH1 0x17 PUSH1 0x24 DUP3 ADD MSTORE PUSH32 0x76657269666965722D63592D6774652D7072696D652D71000000000000000000 PUSH1 0x44 DUP3 ADD MSTORE SWAP1 MLOAD SWAP1 DUP2 SWAP1 SUB PUSH1 0x64 ADD SWAP1 REVERT JUMPDEST PUSH1 0x0 JUMPDEST PUSH1 0x18 DUP2 LT ISZERO PUSH2 0x65F JUMPI PUSH32 0x30644E72E131A029B85045B68181585D2833E84879B9709143E1F593F0000001 DUP7 DUP3 DUP2 MLOAD DUP2 LT PUSH2 0x5BE JUMPI INVALID JUMPDEST PUSH1 0x20 MUL PUSH1 0x20 ADD ADD MLOAD LT PUSH2 0x618 JUMPI PUSH1 0x40 DUP1 MLOAD PUSH3 0x461BCD PUSH1 0xE5 SHL DUP2 MSTORE PUSH1 0x20 PUSH1 0x4 DUP3 ADD MSTORE PUSH1 0x1F PUSH1 0x24 DUP3 ADD MSTORE PUSH32 0x76657269666965722D6774652D736E61726B2D7363616C61722D6669656C6400 PUSH1 0x44 DUP3 ADD MSTORE SWAP1 MLOAD SWAP1 DUP2 SWAP1 SUB PUSH1 0x64 ADD SWAP1 REVERT JUMPDEST PUSH2 0x655 DUP3 PUSH2 0x650 DUP6 PUSH1 0x80 ADD MLOAD DUP5 PUSH1 0x1 ADD PUSH1 0x19 DUP2 LT PUSH2 0x632 JUMPI INVALID JUMPDEST PUSH1 0x20 MUL ADD MLOAD DUP10 DUP6 DUP2 MLOAD DUP2 LT PUSH2 0x643 JUMPI INVALID JUMPDEST PUSH1 0x20 MUL PUSH1 0x20 ADD ADD MLOAD PUSH2 0x1189 JUMP JUMPDEST PUSH2 0x121E JUMP JUMPDEST SWAP2 POP PUSH1 0x1 ADD PUSH2 0x588 JUMP JUMPDEST POP PUSH1 0x80 DUP3 ADD MLOAD MLOAD PUSH2 0x671 SWAP1 DUP3 SWAP1 PUSH2 0x121E JUMP JUMPDEST SWAP1 POP PUSH2 0x6A7 PUSH2 0x683 DUP5 PUSH1 0x0 ADD MLOAD PUSH2 0x12AF JUMP JUMPDEST DUP5 PUSH1 0x20 ADD MLOAD DUP5 PUSH1 0x0 ADD MLOAD DUP6 PUSH1 0x20 ADD MLOAD DUP6 DUP8 PUSH1 0x40 ADD MLOAD DUP10 PUSH1 0x40 ADD MLOAD DUP10 PUSH1 0x60 ADD MLOAD PUSH2 0x1332 JUMP JUMPDEST SWAP9 SWAP8 POP POP POP POP POP POP POP POP JUMP JUMPDEST PUSH2 0x6BB PUSH2 0x15C2 JUMP JUMPDEST PUSH1 0x40 DUP1 MLOAD DUP1 DUP3 ADD DUP3 MSTORE PUSH32 0x4F17EF4D1594369204C74CB4F896BD12DCC5E89499F3D4A5CFAF2B81F4A6181 DUP2 MSTORE PUSH32 0x19E9ADA6AF8F7E535BE4D096D883F057BCC9E5501F2FB87D76BA4454C6535B85 PUSH1 0x20 DUP1 DUP4 ADD SWAP2 SWAP1 SWAP2 MSTORE SWAP1 DUP4 MSTORE DUP2 MLOAD PUSH1 0x80 DUP1 DUP3 ADD DUP5 MSTORE PUSH32 0x28061C9FF47FE7F3CAA687CB335FA18156483B07E29CB5E5ECF36E18DA5B5B32 DUP3 DUP6 ADD SWAP1 DUP2 MSTORE PUSH32 0x7C8F3B8ED7A127023FD0A1C65FB6A716E09310888620D06ABA4DB80AFBCA916 PUSH1 0x60 DUP1 DUP6 ADD SWAP2 SWAP1 SWAP2 MSTORE SWAP1 DUP4 MSTORE DUP5 MLOAD DUP1 DUP7 ADD DUP7 MSTORE PUSH32 0x2C0F8A4DA1BBC9709569C93454325A6340D28CB9687BA2E538354EA873504A6E DUP2 MSTORE PUSH32 0x5FFC7B5553A8C99D4F9602AB8FF1D0E943E4EC28D716046CFF326D21C31714F DUP2 DUP7 ADD MSTORE DUP4 DUP6 ADD MSTORE DUP6 DUP5 ADD SWAP3 SWAP1 SWAP3 MSTORE DUP4 MLOAD DUP1 DUP3 ADD DUP6 MSTORE PUSH32 0x28FD497055A3D592D0140090E30DBC334740C81D619DBC3FF17AF8154BDA1863 DUP2 DUP7 ADD SWAP1 DUP2 MSTORE PUSH32 0x1A191D4A57D02351722376FEF131CC1EE09F4F0CC3DB2EB1087CCD84D6920627 DUP3 DUP6 ADD MSTORE DUP2 MSTORE DUP5 MLOAD DUP1 DUP7 ADD DUP7 MSTORE PUSH32 0x114BE992B36E09A4EA5DBCD5E0222721939CE402EF3AD6A2F63E0F46A231D831 DUP2 MSTORE PUSH31 0xD7F1A7315A99659C728C6CE244455BE136AD1D5389CF53C09F38349208B16A DUP2 DUP7 ADD MSTORE DUP2 DUP6 ADD MSTORE DUP6 DUP6 ADD MSTORE DUP4 MLOAD DUP1 DUP3 ADD DUP6 MSTORE PUSH32 0x1E75F9CD481B9037C9D4D1FDAE401B954019EE29EF45C90B534ED7BC9A3100B0 DUP2 DUP7 ADD SWAP1 DUP2 MSTORE PUSH32 0xCE3458B4B3F07377B29CCC391691418AE35ADAC7B7A58F8E5DDCE0CB9636FC7 DUP3 DUP6 ADD MSTORE DUP2 MSTORE DUP5 MLOAD DUP1 DUP7 ADD DUP7 MSTORE PUSH32 0x72E495F48CF043CEB38348C26C3F62CFC5136322BEC410359914E02579B4B56 DUP2 MSTORE PUSH32 0x2CF44C32EE66739C72EEC5867E324AB45276EF832587F176553A981B38D53A7A DUP2 DUP7 ADD MSTORE DUP2 DUP6 ADD MSTORE DUP3 DUP7 ADD MSTORE DUP4 MLOAD DUP1 DUP6 ADD DUP6 MSTORE PUSH32 0x1C11488B6046A60FD7F54889553447F4AE4FE52C5D54914BD240F2C5CF3F0B8E DUP2 MSTORE PUSH32 0x135BDA5A5730C6A7BCB074B9C5697E3B3FBAB0300DC1782CB0B25F985E661A65 DUP2 DUP6 ADD MSTORE DUP2 DUP7 ADD DUP1 MLOAD SWAP2 SWAP1 SWAP2 MSTORE DUP5 MLOAD DUP1 DUP7 ADD DUP7 MSTORE PUSH32 0x2AF353A94677AD071E0D2818EA5F08C655AC7951A7F4D583D264AAE1C1712D06 DUP2 MSTORE PUSH32 0x276B6FC3A4B1009C41875E9E954BCB2FDAD5BF9ADA5D2B470F58BDEBDFFB8D0A DUP2 DUP7 ADD MSTORE DUP2 MLOAD DUP6 ADD MSTORE DUP5 MLOAD DUP1 DUP7 ADD DUP7 MSTORE PUSH31 0xE85288A75ED72828BAB40804402962D9F106868200FF93783CB8A387199C05 DUP2 MSTORE PUSH32 0x2BCC113C58E7C74851E19B5FE25CB2B57479E2E06E1A742A9D09C17EE8A972C5 DUP2 DUP7 ADD MSTORE DUP2 MLOAD DUP7 ADD MSTORE DUP5 MLOAD DUP1 DUP7 ADD DUP7 MSTORE PUSH32 0x256CDEDA520520F26F669931F7BC0DBCFCD88430848AAEA74468B8B353039348 DUP2 MSTORE PUSH32 0xFA7B21B1CE0ED3C9A18227815A6A1F5C7CF185CF84D2592A4389B6D8F059CA4 DUP2 DUP7 ADD MSTORE DUP2 MLOAD SWAP1 SWAP4 ADD SWAP3 SWAP1 SWAP3 MSTORE DUP4 MLOAD DUP1 DUP6 ADD DUP6 MSTORE PUSH32 0x23E20E94C9CD118AFD390CD9FB6F6DF6A5954C6E8D65EC0E0AFF795BFD75E67A DUP2 MSTORE PUSH32 0x1FD0CA0DAC474C44D5D935983742154A5946F6805AAE8CFA7F4C3FFCCB3E1319 DUP2 DUP6 ADD MSTORE DUP3 MLOAD SWAP1 SWAP2 ADD MSTORE DUP3 MLOAD DUP1 DUP5 ADD DUP5 MSTORE PUSH32 0x1E51E8BD8CC1CFDC82B04B543EBB0B7AB052E3410976E60A905FD4E62C146D48 DUP2 MSTORE PUSH32 0x11326C03192E1F82CC5F6F92FFFB5DC6F4AFF5D7EB12C14494A12C625C72E05 DUP2 DUP5 ADD MSTORE DUP2 MLOAD PUSH1 0xA0 ADD MSTORE DUP3 MLOAD DUP1 DUP5 ADD DUP5 MSTORE PUSH32 0x2748DAAD2336E5444B1718551DBED39FFF63DCE28C6386FDFF11EA2111F80A66 DUP2 MSTORE PUSH32 0x12CA9BFA34CB36E948D024AC747B283E715FFB6B263C1C10D3D73250838F028B DUP2 DUP5 ADD MSTORE DUP2 MLOAD PUSH1 0xC0 ADD MSTORE DUP3 MLOAD DUP1 DUP5 ADD DUP5 MSTORE PUSH32 0x1FDEF7B53A748E789754D47648C31C0F165D96B83F2144E77A1255CE949B7FA0 DUP2 MSTORE PUSH32 0x204EEB91922799D596104F5EEF8B1A9A0002B82023C384E00F761FE2FE85E10E DUP2 DUP5 ADD MSTORE DUP2 MLOAD PUSH1 0xE0 ADD MSTORE DUP3 MLOAD DUP1 DUP5 ADD DUP5 MSTORE PUSH32 0x2510A4FC3C5EBACC8FF23F7E30122863D075375F6AFE40292C62E8B74BB5A1F1 DUP2 MSTORE PUSH32 0x2FD807094A71D6E6C5A82C1B07C03A9872521E401A3F653CADB012A024AE9FC DUP2 DUP5 ADD MSTORE DUP2 MLOAD PUSH2 0x100 ADD MSTORE DUP3 MLOAD DUP1 DUP5 ADD DUP5 MSTORE PUSH32 0x163B8B3A862B3B49C0704005CE9F9B976DC0C1DF89B1A5891F4EE1F9694755C5 DUP2 MSTORE PUSH32 0x24FD49286D7D67C4C537D3F63BA6F6BB9740664B4D5817DB3FF5F4B0AFA67720 DUP2 DUP5 ADD MSTORE DUP2 MLOAD PUSH2 0x120 ADD MSTORE DUP3 MLOAD DUP1 DUP5 ADD DUP5 MSTORE PUSH32 0x1D626212F371C0D4EC44A1CF3FF2C255AE602600749FE09EC81ED31D951B2E0F DUP2 MSTORE PUSH32 0x11F0947D14EB51564EE7EB1CF34587D93B4A39EC4D93E412BF4471E2F97A49BB DUP2 DUP5 ADD MSTORE DUP2 MLOAD PUSH2 0x140 ADD MSTORE DUP3 MLOAD DUP1 DUP5 ADD DUP5 MSTORE PUSH32 0x1134F68A92002CF672EAF3CF9464F86201004D4704D64BE69193D8D9993679B0 DUP2 MSTORE PUSH32 0x2DB9CF8C4BDCBC56E48458ECB46B94D0284F97B8C325CCBCB0ABC5160D42B37E DUP2 DUP5 ADD MSTORE DUP2 MLOAD PUSH2 0x160 ADD MSTORE DUP3 MLOAD DUP1 DUP5 ADD DUP5 MSTORE PUSH32 0x15DB851B48CED70DA43C4F13D0FF0BB5B1CD243802D9E5A246E7022927A0B1D DUP2 MSTORE PUSH32 0x23C95E35C9AC1671EF89D737A5E3374DE671FD6C2640A82DCFF64AB78B35FC76 DUP2 DUP5 ADD MSTORE DUP2 MLOAD PUSH2 0x180 ADD MSTORE DUP3 MLOAD DUP1 DUP5 ADD DUP5 MSTORE PUSH32 0x2001EF62F54B1C729845ACDAC55BC8FD5435E9181BB3A992341915F991806CB5 DUP2 MSTORE PUSH32 0x1EC33C43A3A53C73CF048B5CF1365313E44D3518F888756A73A6D9D3C4F61C10 DUP2 DUP5 ADD MSTORE DUP2 MLOAD PUSH2 0x1A0 ADD MSTORE DUP3 MLOAD DUP1 DUP5 ADD DUP5 MSTORE PUSH32 0xD18F8AF6E0DF5E73DD048A96B755BA017C295418BF9C7C2CE28847758BDFDE8 DUP2 MSTORE PUSH32 0x242C5F680775E3B0411B244402B4C3590B2815D1CB4FAB5538FE6FE03141609D DUP2 DUP5 ADD MSTORE DUP2 MLOAD PUSH2 0x1C0 ADD MSTORE DUP3 MLOAD DUP1 DUP5 ADD DUP5 MSTORE PUSH32 0x25C8B10C93BC123A644E1F6D8022ED529B85005820726DBB42CDAE1339775D19 DUP2 MSTORE PUSH32 0x24411C021C373335D2A11878D30883C30229C713D62E3B3567A664C3693BCD41 DUP2 DUP5 ADD MSTORE DUP2 MLOAD PUSH2 0x1E0 ADD MSTORE DUP3 MLOAD DUP1 DUP5 ADD DUP5 MSTORE PUSH32 0x10BF1D334FEA0FF510E2C0F4B3D79911204F89346C7AD18A59E880245C64D32F DUP2 MSTORE PUSH32 0xB353BB8C43757109BFC6C730C576D43AF4682CF3FAC291AA283ED60A40A216C DUP2 DUP5 ADD MSTORE DUP2 MLOAD PUSH2 0x200 ADD MSTORE DUP3 MLOAD DUP1 DUP5 ADD DUP5 MSTORE PUSH32 0x1715CE03F00C600797DDF2E161792194BB6318532FBFE6A34C58551814ED5E13 DUP2 MSTORE PUSH32 0x220B8539DE47094383330CF542E88179EC811193CC7AB56D665D04FB2B1F755E DUP2 DUP5 ADD MSTORE DUP2 MLOAD PUSH2 0x220 ADD MSTORE DUP3 MLOAD DUP1 DUP5 ADD DUP5 MSTORE PUSH32 0x27135D17FF93447830C19B56DA1B0A21CAE7EE61E9065EB8F48122C3762C1CEE DUP2 MSTORE PUSH32 0x15105F2041A0053FFA6C2062931293032B3020B9B7E9B759DD8782C105F6FAAE DUP2 DUP5 ADD MSTORE DUP2 MLOAD PUSH2 0x240 ADD MSTORE DUP3 MLOAD DUP1 DUP5 ADD DUP5 MSTORE PUSH32 0x2E2AA17F39F260618BF88F30654CFCB30B3D02645C224C52DC178C662766AB1 DUP2 MSTORE PUSH32 0x2DA2786D5351C3E60B6696109D611922A34AA2B9A4394168460B72D70F52E2FE DUP2 DUP5 ADD MSTORE DUP2 MLOAD PUSH2 0x260 ADD MSTORE DUP3 MLOAD DUP1 DUP5 ADD DUP5 MSTORE PUSH32 0x2E098F6434F77C754F216E5C30EBE959323897415CD2B37A4C093994B5E276ED DUP2 MSTORE PUSH32 0x3818A8D7C349225A23A27002B5208DE1D8FD707F7E090C676AC5D0273423EFC DUP2 DUP5 ADD MSTORE DUP2 MLOAD PUSH2 0x280 ADD MSTORE DUP3 MLOAD DUP1 DUP5 ADD DUP5 MSTORE PUSH32 0x130508A818B1344ECD35990D08FE4C7C4E4FFFCCEA15AE22923535548C222E72 DUP2 MSTORE PUSH32 0x6B3DBB8F92E3B41CB3E58D152657DC9F13AFB67BF924448BA4D49D807554B21 DUP2 DUP5 ADD MSTORE DUP2 MLOAD PUSH2 0x2A0 ADD MSTORE DUP3 MLOAD DUP1 DUP5 ADD DUP5 MSTORE PUSH32 0x214D2F507616C86F3AFE87BCF855FF613258B42A73D87F618474FCCB3A60B022 DUP2 MSTORE PUSH32 0x2044B7FAD06651466D96A2582581F418A14EF3C17259D4304EB544B0AA9413EB DUP2 DUP5 ADD MSTORE DUP2 MLOAD PUSH2 0x2C0 ADD MSTORE DUP3 MLOAD DUP1 DUP5 ADD DUP5 MSTORE PUSH32 0x1458C6B23DDAB739BCF21377D700AF5A3A50B54911F6E33C4F7478903413F74B DUP2 MSTORE PUSH32 0xEAA9D91F276118C05B33DCFA24D7D5DFDD179826DB125B38D92D7E704592FA4 DUP2 DUP5 ADD MSTORE DUP2 MLOAD PUSH2 0x2E0 ADD MSTORE DUP3 MLOAD DUP1 DUP5 ADD SWAP1 SWAP4 MSTORE PUSH32 0x15742387F191645EC3DFA6CC81DB61AF15B760B88ED6CE30036D66C600FF5B61 DUP4 MSTORE PUSH32 0x250A821DD5293D02E98C0CECA2DE48BF7689E1AFEFFF8E245363B32EB5737BE6 SWAP2 DUP4 ADD SWAP2 SWAP1 SWAP2 MSTORE MLOAD PUSH2 0x300 ADD MSTORE SWAP1 JUMP JUMPDEST PUSH2 0x1191 PUSH2 0x1609 JUMP JUMPDEST PUSH2 0x1199 PUSH2 0x1623 JUMP JUMPDEST DUP4 MLOAD DUP2 MSTORE PUSH1 0x20 DUP1 DUP6 ADD MLOAD SWAP1 DUP3 ADD MSTORE PUSH1 0x40 DUP2 ADD DUP4 SWAP1 MSTORE PUSH1 0x0 PUSH1 0x60 DUP4 PUSH1 0x80 DUP5 PUSH1 0x7 PUSH2 0x7D0 GAS SUB STATICCALL SWAP1 POP DUP1 DUP1 ISZERO PUSH2 0x11CC JUMPI PUSH2 0x11CE JUMP JUMPDEST INVALID JUMPDEST POP DUP1 PUSH2 0x1216 JUMPI PUSH1 0x40 DUP1 MLOAD PUSH3 0x461BCD PUSH1 0xE5 SHL DUP2 MSTORE PUSH1 0x20 PUSH1 0x4 DUP3 ADD MSTORE PUSH1 0x12 PUSH1 0x24 DUP3 ADD MSTORE PUSH18 0x1C185A5C9A5B99CB5B5D5B0B59985A5B1959 PUSH1 0x72 SHL PUSH1 0x44 DUP3 ADD MSTORE SWAP1 MLOAD SWAP1 DUP2 SWAP1 SUB PUSH1 0x64 ADD SWAP1 REVERT JUMPDEST POP POP SWAP3 SWAP2 POP POP JUMP JUMPDEST PUSH2 0x1226 PUSH2 0x1609 JUMP JUMPDEST PUSH2 0x122E PUSH2 0x1641 JUMP JUMPDEST DUP4 MLOAD DUP2 MSTORE PUSH1 0x20 DUP1 DUP6 ADD MLOAD DUP2 DUP4 ADD MSTORE DUP4 MLOAD PUSH1 0x40 DUP4 ADD MSTORE DUP4 ADD MLOAD PUSH1 0x60 DUP1 DUP4 ADD SWAP2 SWAP1 SWAP2 MSTORE PUSH1 0x0 SWAP1 DUP4 PUSH1 0xC0 DUP5 PUSH1 0x6 PUSH2 0x7D0 GAS SUB STATICCALL SWAP1 POP DUP1 DUP1 ISZERO PUSH2 0x11CC JUMPI POP DUP1 PUSH2 0x1216 JUMPI PUSH1 0x40 DUP1 MLOAD PUSH3 0x461BCD PUSH1 0xE5 SHL DUP2 MSTORE PUSH1 0x20 PUSH1 0x4 DUP3 ADD MSTORE PUSH1 0x12 PUSH1 0x24 DUP3 ADD MSTORE PUSH18 0x1C185A5C9A5B99CB5859190B59985A5B1959 PUSH1 0x72 SHL PUSH1 0x44 DUP3 ADD MSTORE SWAP1 MLOAD SWAP1 DUP2 SWAP1 SUB PUSH1 0x64 ADD SWAP1 REVERT JUMPDEST PUSH2 0x12B7 PUSH2 0x1609 JUMP JUMPDEST DUP2 MLOAD ISZERO DUP1 ISZERO PUSH2 0x12C8 JUMPI POP PUSH1 0x20 DUP3 ADD MLOAD ISZERO JUMPDEST ISZERO PUSH2 0x12E7 JUMPI POP PUSH1 0x40 DUP1 MLOAD DUP1 DUP3 ADD SWAP1 SWAP2 MSTORE PUSH1 0x0 DUP1 DUP3 MSTORE PUSH1 0x20 DUP3 ADD MSTORE PUSH2 0x132D JUMP JUMPDEST PUSH1 0x40 MLOAD DUP1 PUSH1 0x40 ADD PUSH1 0x40 MSTORE DUP1 DUP4 PUSH1 0x0 ADD MLOAD DUP2 MSTORE PUSH1 0x20 ADD PUSH1 0x0 DUP1 MLOAD PUSH1 0x20 PUSH2 0x1744 DUP4 CODECOPY DUP2 MLOAD SWAP2 MSTORE DUP5 PUSH1 0x20 ADD MLOAD DUP2 PUSH2 0x1317 JUMPI INVALID JUMPDEST MOD PUSH1 0x0 DUP1 MLOAD PUSH1 0x20 PUSH2 0x1744 DUP4 CODECOPY DUP2 MLOAD SWAP2 MSTORE SUB SWAP1 MSTORE SWAP1 POP JUMPDEST SWAP2 SWAP1 POP JUMP JUMPDEST PUSH1 0x0 PUSH2 0x133C PUSH2 0x165F JUMP JUMPDEST PUSH1 0x40 MLOAD DUP1 PUSH1 0x80 ADD PUSH1 0x40 MSTORE DUP1 DUP12 DUP2 MSTORE PUSH1 0x20 ADD DUP10 DUP2 MSTORE PUSH1 0x20 ADD DUP8 DUP2 MSTORE PUSH1 0x20 ADD DUP6 DUP2 MSTORE POP SWAP1 POP PUSH2 0x1367 PUSH2 0x168C JUMP JUMPDEST POP PUSH1 0x40 DUP1 MLOAD PUSH1 0x80 DUP2 ADD DUP3 MSTORE DUP11 DUP2 MSTORE PUSH1 0x20 DUP2 ADD DUP10 SWAP1 MSTORE DUP1 DUP3 ADD DUP8 SWAP1 MSTORE PUSH1 0x60 DUP1 DUP3 ADD DUP7 SWAP1 MSTORE DUP3 MLOAD PUSH1 0x18 DUP1 DUP3 MSTORE PUSH2 0x320 DUP3 ADD SWAP1 SWAP5 MSTORE SWAP2 SWAP3 SWAP2 DUP3 DUP2 PUSH1 0x20 ADD PUSH1 0x20 DUP3 MUL DUP1 CALLDATASIZE DUP4 CALLDATACOPY ADD SWAP1 POP POP SWAP1 POP PUSH1 0x0 JUMPDEST PUSH1 0x4 DUP2 LT ISZERO PUSH2 0x1509 JUMPI PUSH1 0x6 DUP2 MUL DUP6 DUP3 PUSH1 0x4 DUP2 LT PUSH2 0x13CB JUMPI INVALID JUMPDEST PUSH1 0x20 MUL ADD MLOAD MLOAD DUP4 MLOAD DUP5 SWAP1 DUP4 SWAP1 DUP2 LT PUSH2 0x13DF JUMPI INVALID JUMPDEST PUSH1 0x20 MUL PUSH1 0x20 ADD ADD DUP2 DUP2 MSTORE POP POP DUP6 DUP3 PUSH1 0x4 DUP2 LT PUSH2 0x13F7 JUMPI INVALID JUMPDEST PUSH1 0x20 MUL ADD MLOAD PUSH1 0x20 ADD MLOAD DUP4 DUP3 PUSH1 0x1 ADD DUP2 MLOAD DUP2 LT PUSH2 0x140F JUMPI INVALID JUMPDEST PUSH1 0x20 MUL PUSH1 0x20 ADD ADD DUP2 DUP2 MSTORE POP POP DUP5 DUP3 PUSH1 0x4 DUP2 LT PUSH2 0x1427 JUMPI INVALID JUMPDEST PUSH1 0x20 MUL ADD MLOAD MLOAD MLOAD DUP4 MLOAD DUP5 SWAP1 PUSH1 0x2 DUP5 ADD SWAP1 DUP2 LT PUSH2 0x143F JUMPI INVALID JUMPDEST PUSH1 0x20 MUL PUSH1 0x20 ADD ADD DUP2 DUP2 MSTORE POP POP DUP5 DUP3 PUSH1 0x4 DUP2 LT PUSH2 0x1457 JUMPI INVALID JUMPDEST PUSH1 0x20 MUL ADD MLOAD MLOAD PUSH1 0x1 PUSH1 0x20 MUL ADD MLOAD DUP4 DUP3 PUSH1 0x3 ADD DUP2 MLOAD DUP2 LT PUSH2 0x1473 JUMPI INVALID JUMPDEST PUSH1 0x20 MUL PUSH1 0x20 ADD ADD DUP2 DUP2 MSTORE POP POP DUP5 DUP3 PUSH1 0x4 DUP2 LT PUSH2 0x148B JUMPI INVALID JUMPDEST PUSH1 0x20 MUL ADD MLOAD PUSH1 0x20 ADD MLOAD PUSH1 0x0 PUSH1 0x2 DUP2 LT PUSH2 0x14A0 JUMPI INVALID JUMPDEST PUSH1 0x20 MUL ADD MLOAD DUP4 DUP3 PUSH1 0x4 ADD DUP2 MLOAD DUP2 LT PUSH2 0x14B4 JUMPI INVALID JUMPDEST PUSH1 0x20 MUL PUSH1 0x20 ADD ADD DUP2 DUP2 MSTORE POP POP DUP5 DUP3 PUSH1 0x4 DUP2 LT PUSH2 0x14CC JUMPI INVALID JUMPDEST PUSH1 0x20 MUL ADD MLOAD PUSH1 0x20 ADD MLOAD PUSH1 0x1 PUSH1 0x2 DUP2 LT PUSH2 0x14E1 JUMPI INVALID JUMPDEST PUSH1 0x20 MUL ADD MLOAD DUP4 DUP3 PUSH1 0x5 ADD DUP2 MLOAD DUP2 LT PUSH2 0x14F5 JUMPI INVALID JUMPDEST PUSH1 0x20 SWAP1 DUP2 MUL SWAP2 SWAP1 SWAP2 ADD ADD MSTORE POP PUSH1 0x1 ADD PUSH2 0x13B2 JUMP JUMPDEST POP PUSH2 0x1512 PUSH2 0x16B9 JUMP JUMPDEST PUSH1 0x0 PUSH1 0x20 DUP3 PUSH1 0x20 DUP7 MUL PUSH1 0x20 DUP7 ADD PUSH1 0x8 PUSH2 0x7D0 GAS SUB STATICCALL SWAP1 POP DUP1 DUP1 ISZERO PUSH2 0x11CC JUMPI POP DUP1 PUSH2 0x157B JUMPI PUSH1 0x40 DUP1 MLOAD PUSH3 0x461BCD PUSH1 0xE5 SHL DUP2 MSTORE PUSH1 0x20 PUSH1 0x4 DUP3 ADD MSTORE PUSH1 0x15 PUSH1 0x24 DUP3 ADD MSTORE PUSH21 0x1C185A5C9A5B99CB5BDC18DBD9194B59985A5B1959 PUSH1 0x5A SHL PUSH1 0x44 DUP3 ADD MSTORE SWAP1 MLOAD SWAP1 DUP2 SWAP1 SUB PUSH1 0x64 ADD SWAP1 REVERT JUMPDEST POP MLOAD ISZERO ISZERO SWAP14 SWAP13 POP POP POP POP POP POP POP POP POP POP POP POP POP JUMP JUMPDEST PUSH1 0x40 MLOAD DUP1 PUSH1 0x60 ADD PUSH1 0x40 MSTORE DUP1 PUSH2 0x15A3 PUSH2 0x1609 JUMP JUMPDEST DUP2 MSTORE PUSH1 0x20 ADD PUSH2 0x15B0 PUSH2 0x16D7 JUMP JUMPDEST DUP2 MSTORE PUSH1 0x20 ADD PUSH2 0x15BD PUSH2 0x1609 JUMP JUMPDEST SWAP1 MSTORE SWAP1 JUMP JUMPDEST PUSH1 0x40 MLOAD DUP1 PUSH1 0xA0 ADD PUSH1 0x40 MSTORE DUP1 PUSH2 0x15D5 PUSH2 0x1609 JUMP JUMPDEST DUP2 MSTORE PUSH1 0x20 ADD PUSH2 0x15E2 PUSH2 0x16D7 JUMP JUMPDEST DUP2 MSTORE PUSH1 0x20 ADD PUSH2 0x15EF PUSH2 0x16D7 JUMP JUMPDEST DUP2 MSTORE PUSH1 0x20 ADD PUSH2 0x15FC PUSH2 0x16D7 JUMP JUMPDEST DUP2 MSTORE PUSH1 0x20 ADD PUSH2 0x15BD PUSH2 0x16F7 JUMP JUMPDEST PUSH1 0x40 MLOAD DUP1 PUSH1 0x40 ADD PUSH1 0x40 MSTORE DUP1 PUSH1 0x0 DUP2 MSTORE PUSH1 0x20 ADD PUSH1 0x0 DUP2 MSTORE POP SWAP1 JUMP JUMPDEST PUSH1 0x40 MLOAD DUP1 PUSH1 0x60 ADD PUSH1 0x40 MSTORE DUP1 PUSH1 0x3 SWAP1 PUSH1 0x20 DUP3 MUL DUP1 CALLDATASIZE DUP4 CALLDATACOPY POP SWAP2 SWAP3 SWAP2 POP POP JUMP JUMPDEST PUSH1 0x40 MLOAD DUP1 PUSH1 0x80 ADD PUSH1 0x40 MSTORE DUP1 PUSH1 0x4 SWAP1 PUSH1 0x20 DUP3 MUL DUP1 CALLDATASIZE DUP4 CALLDATACOPY POP SWAP2 SWAP3 SWAP2 POP POP JUMP JUMPDEST PUSH1 0x40 MLOAD DUP1 PUSH1 0x80 ADD PUSH1 0x40 MSTORE DUP1 PUSH1 0x4 SWAP1 JUMPDEST PUSH2 0x1676 PUSH2 0x1609 JUMP JUMPDEST DUP2 MSTORE PUSH1 0x20 ADD SWAP1 PUSH1 0x1 SWAP1 SUB SWAP1 DUP2 PUSH2 0x166E JUMPI SWAP1 POP POP SWAP1 JUMP JUMPDEST PUSH1 0x40 MLOAD DUP1 PUSH1 0x80 ADD PUSH1 0x40 MSTORE DUP1 PUSH1 0x4 SWAP1 JUMPDEST PUSH2 0x16A3 PUSH2 0x16D7 JUMP JUMPDEST DUP2 MSTORE PUSH1 0x20 ADD SWAP1 PUSH1 0x1 SWAP1 SUB SWAP1 DUP2 PUSH2 0x169B JUMPI SWAP1 POP POP SWAP1 JUMP JUMPDEST PUSH1 0x40 MLOAD DUP1 PUSH1 0x20 ADD PUSH1 0x40 MSTORE DUP1 PUSH1 0x1 SWAP1 PUSH1 0x20 DUP3 MUL DUP1 CALLDATASIZE DUP4 CALLDATACOPY POP SWAP2 SWAP3 SWAP2 POP POP JUMP JUMPDEST PUSH1 0x40 MLOAD DUP1 PUSH1 0x40 ADD PUSH1 0x40 MSTORE DUP1 PUSH2 0x16EA PUSH2 0x1725 JUMP JUMPDEST DUP2 MSTORE PUSH1 0x20 ADD PUSH2 0x15BD PUSH2 0x1725 JUMP JUMPDEST PUSH1 0x40 MLOAD DUP1 PUSH2 0x320 ADD PUSH1 0x40 MSTORE DUP1 PUSH1 0x19 SWAP1 JUMPDEST PUSH2 0x170F PUSH2 0x1609 JUMP JUMPDEST DUP2 MSTORE PUSH1 0x20 ADD SWAP1 PUSH1 0x1 SWAP1 SUB SWAP1 DUP2 PUSH2 0x1707 JUMPI SWAP1 POP POP SWAP1 JUMP JUMPDEST PUSH1 0x40 MLOAD DUP1 PUSH1 0x40 ADD PUSH1 0x40 MSTORE DUP1 PUSH1 0x2 SWAP1 PUSH1 0x20 DUP3 MUL DUP1 CALLDATASIZE DUP4 CALLDATACOPY POP SWAP2 SWAP3 SWAP2 POP POP JUMP INVALID ADDRESS PUSH5 0x4E72E131A0 0x29 0xB8 POP GASLIMIT 0xB6 DUP2 DUP2 PC 0x5D SWAP8 DUP2 PUSH11 0x916871CA8D3C208C16D87C REVERT SELFBALANCE LOG2 PUSH5 0x6970667358 0x22 SLT KECCAK256 0xE CALLCODE PUSH31 0x936D002AAE8E8BE8A4E4CBB760ABAD204401F0012975AF9B4AE81DE476473 PUSH16 0x6C634300060C00330000000000000000 "},"methodIdentifiers":{"verifyProof(uint256[2],uint256[2][2],uint256[2],uint256[])":"c32e370e"}}}}}