{"contracts/snarkVerifiers/BatchUpdateStateTreeVerifierBatch64.sol":{"BatchUpdateStateTreeVerifierBatch64":{"abi":[{"inputs":[{"internalType":"uint256[2]","name":"a","type":"uint256[2]"},{"internalType":"uint256[2][2]","name":"b","type":"uint256[2][2]"},{"internalType":"uint256[2]","name":"c","type":"uint256[2]"},{"internalType":"uint256[]","name":"input","type":"uint256[]"}],"name":"verifyProof","outputs":[{"internalType":"bool","name":"","type":"bool"}],"stateMutability":"view","type":"function"}],"evm":{"bytecode":{"linkReferences":{},"object":"608060405234801561001057600080fd5b50613d35806100206000396000f3fe608060405234801561001057600080fd5b506004361061002b5760003560e01c8063c32e370e14610030575b600080fd5b610184600480360361012081101561004757600080fd5b6040805180820182529183019291818301918390600290839083908082843760009201829052506040805180820190915293969594608081019493509150600290835b828210156100c8576040805180820182529080840286019060029083908390808284376000920191909152505050815260019091019060200161008a565b505060408051808201825293969594818101949350915060029083908390808284376000920191909152509194939260208101925035905064010000000081111561011257600080fd5b82018360208201111561012457600080fd5b8035906020019184602083028401116401000000008311171561014657600080fd5b919080806020026020016040519081016040528093929190818152602001838360200280828437600092019190915250929550610198945050505050565b604080519115158252519081900360200190f35b60006101a2613b2c565b6040805180820182528751815260208089015181830152908352815160808101835287515181840190815288518301516060830152815282518084018452888301805151825251830151818401528183015283820152815180830183528651815286820151918101919091529082015261021a613b5e565b6102226106b3565b905061022c613ba5565b506040805180820190915260008082526020820152825151600080516020613ce0833981519152116102a5576040805162461bcd60e51b815260206004820152601760248201527f76657269666965722d61582d6774652d7072696d652d71000000000000000000604482015290519081900360640190fd5b825160200151600080516020613ce08339815191521161030c576040805162461bcd60e51b815260206004820152601760248201527f76657269666965722d61592d6774652d7072696d652d71000000000000000000604482015290519081900360640190fd5b60208301515151600080516020613ce083398151915211610374576040805162461bcd60e51b815260206004820152601860248201527f76657269666965722d6258302d6774652d7072696d652d710000000000000000604482015290519081900360640190fd5b602083810151015151600080516020613ce0833981519152116103de576040805162461bcd60e51b815260206004820152601860248201527f76657269666965722d6259302d6774652d7072696d652d710000000000000000604482015290519081900360640190fd5b602083810151510151600080516020613ce083398151915211610448576040805162461bcd60e51b815260206004820152601860248201527f76657269666965722d6258312d6774652d7072696d652d710000000000000000604482015290519081900360640190fd5b6020838101518101510151600080516020613ce0833981519152116104b4576040805162461bcd60e51b815260206004820152601860248201527f76657269666965722d6259312d6774652d7072696d652d710000000000000000604482015290519081900360640190fd5b604083015151600080516020613ce08339815191521161051b576040805162461bcd60e51b815260206004820152601760248201527f76657269666965722d63582d6774652d7072696d652d71000000000000000000604482015290519081900360640190fd5b600080516020613ce083398151915283604001516020015110610585576040805162461bcd60e51b815260206004820152601760248201527f76657269666965722d63592d6774652d7072696d652d71000000000000000000604482015290519081900360640190fd5b60005b608881101561065f577f30644e72e131a029b85045b68181585d2833e84879b9709143e1f593f00000018682815181106105be57fe5b602002602001015110610618576040805162461bcd60e51b815260206004820152601f60248201527f76657269666965722d6774652d736e61726b2d7363616c61722d6669656c6400604482015290519081900360640190fd5b610655826106508560800151846001016089811061063257fe5b602002015189858151811061064357fe5b6020026020010151613725565b6137ba565b9150600101610588565b506080820151516106719082906137ba565b90506106a7610683846000015161384b565b846020015184600001518560200151858760400151896040015189606001516138ce565b98975050505050505050565b6106bb613b5e565b6040805180820182527f2c7677ec62a7f8e8042b019fcbed879a5fcf7f59d188df331b2c709bbbe34aab81527f1be55db229f344753201f10b7a0a35eb276e345608f0cd5d14878fa882d7aee96020808301919091529083528151608080820184527f1df0b1fd8432acc8bb6989506453ca8bc89029d9dfce66f642cce33a1751453b8285019081527f2f85f90173d1f6d610dec1e182deefe9895583910bb440db69f52b6b65a9dcf3606080850191909152908352845180860186527f20122b46b0dcaafc4c9314d175db451d74ecc95311c2fcc503d2266b088be46581527f0768322a603199a0213427c8867d12682041ce7792db0f2e0ed584694a11d969818601528385015285840192909252835180820185527f031bb51a585a804098b303e154bc61adf43fcd469d9cbd0523b26e04df37adf48186019081527f2a18127713902be513dfab4eed2be18a3d2566ea203d0efc7284df8efa543efc828501528152845180860186527f16a73020e2b4218cdb0eb99e5705de44049fc19b080fb110af69662a09d429b181527f22832c057de9c33b6320c41f47543332ffa42986707b79432a167eafe30b6566818601528185015285850152835180820185527e7ba358754936611836c57f59de131e2def755667c358d3d91ef96cdccc54f98186019081527f0bf47ca9b245cf5ab436dc09bfe8475cee9687613f1092237e51cbed5bc2a69a828501528152845180860186527f18695beb2d0c3e5436878661581c440afdd7f8918603fadcef37d3637649a4c281527e4bb4a8fcdf8c6cd0f6e8f5fa1d050558dcd374a49927ae57418ed1552d28cc818601528185015282860152835180850185527f2ec4c17cf1da044ee1baff19f8a0814919a4e02c0a885345ecbb90e9ff360a8781527f0355d6d91f51ed22e16bd16f5a72e2b9a290a7bf854b76a8cbbb821eef9ed56d81850152818601805191909152845180860186527f25e424dbda71f2915d223b5ce85cf81b82a2460cea6d6c9ed2d65f11083f401b81527f0c67c2aa29a2ef3c382e5a3b6c8ca818a330764df92cf4549827dcb6fb3c15f1818601528151850152845180860186527f220677677112aa66d31844af97df144ae2e1abb645fa370bc1756e193f51f34181527f0524a07be283dd6c74140c3697a9089b85bcd5885bb9f10c573410b77795d018818601528151860152845180860186527f017b7daf5c3321cef8a2e74583cf365fd23c6ad7688ac9002a42d1dd7eab4c4a81527f1ebb1546fe094ee7e67d15ba2112bd4e3d0ce1a482d0477bc65ffd6481eb939e81860152815190930192909252835180850185527f03b08a5d237f7d4536befbcb5b98a3066885d05b87d014d9b9472f31c61c7bd481527f183d5d182019a2727abba61c91cdee18bb17925855b09f8841b936a40ac470a581850152825190910152825180840184527f1feefc5f3e46e064003c9f42b1669d2d3b2d09c3bfeb0149e2411f1fcd512b3e81527f1032fcd1694f13756a6f350408b5c438255f1f6035923fa25caaeb52127369cf81840152815160a00152825180840184527f0b7c57164c018cfdeddc86a165a1638afb464d0204003e84d1ae8014d93bb1c181527f1ca3c26cb5fdecc37600ea83374d3e8f0d3fd00962ee3a14563b5ee894370a5c81840152815160c00152825180840184527f0b161ac82b4a4bd9f3d7a40175eee903d5319fdc15f1b75f36a0f321625300e581527f0564e9a636a35b8ccdf8d8005dc9897dd765814d502ee514f591defe31238b1181840152815160e00152825180840184527f0978889721e072b413126dd18ed0d9622ba5c6ee7bf637a4b4779f55bbe127d381527f0f0737948d308b4118dbc7d4f912eacef7dc4c2d60f40e32a40c3048250c3b268184015281516101000152825180840184527f03e6afccd7c5e7a73f56b50fea257a37840a134c48d2ba1e443b145cd0feb5bd81527f259b20c8451a09bf1699cb7ab29d6a5a3309d71d85b87dee6443217fca2493eb8184015281516101200152825180840184527f0a3ec6c6fac9a09f70423dc8d0608c3975112028fbd10121cadf608ef84f843781527f225f0e869dd56151f28b78c469e5640aad842e28aa19c8b47519cb328c689e4c8184015281516101400152825180840184527f06010653aab5b614d198038b044199cd1d3ab65ece683704bc28eaa15eecc1e781527f12130d51d53e5e4d081c7ab2818a5d2e39a0509749b9c0482f582d8a5d7ff3e98184015281516101600152825180840184527f2c7c740da3e4ea99844934a2742c370594145a550b5b178672f7de83812f118681527f2ea95afa9e016096db0090f303305a5816a3938cf64edc0366705f4f292669048184015281516101800152825180840184527f1af6eb732afd3f5b9590c9d460fd7c83f84d168d8fe6af7045ad4177245f295381527f2f5478943d0f17ddc51b5130df8b9cdd71b59723c07707f97c6b450af12d0ea98184015281516101a00152825180840184527f0bbdae843dfa8d7aaaeec9f933f504851a0ce51abc25891c5d3e7f225ceb543181527f1e313e38813e501799e442add69db53e1ca3caee2829276624bea8eafc693ce88184015281516101c00152825180840184527f0b8f51a4881a0a3ea8af8205eec033a3bd8aa4c7dba2784eccee204a7d48f93881527f25be1b6ffb68f19739480266d3501ffbde5accbe77cf3bd195f2b97ad9da54ce8184015281516101e00152825180840184527f2f4bd4e24550ebb662d670889d8dd0d5c6106e211e08aeab153b09a567e82ad081527f2c28c7cb034e95425133c10434696395206aceafadb67eaa383ca50e3fcba3f58184015281516102000152825180840184527f2198430e9b9d5fee9b00fde7c7e421dc927755bb54e61f0c964492f9207d756e81527f0c08ea1eb96d1e99e12d8ffd0a667c3f2dffeb92130cb96b5f02fa7688989e888184015281516102200152825180840184527f011f51ad0d3e6e31483db5abb0d080bfa5fad382727bb003edf3cb0c20cd316081527f2bf2a4711bd3fa4b680f7db01576db1cf0d7708749ec3a711301b5886082b2898184015281516102400152825180840184527f114105e6f0547d7369b0b47c2d9739c7e32c000ef1097ccde1bdff97801942da81527f2ddfde1003b4759b6ea02f63ddf1d445e5285cc662d1f0ecfd192e03a609d0eb8184015281516102600152825180840184527f092521f91bf0f6b9418ebcc265c0d5047990754759c1b010275c1f33ff14cea381527f160c9a0bcdcf07319b43a70a4b8ac54ddcfd66c3d6080efe7153126a1e6eac8e8184015281516102800152825180840184527f106e23eb3d83b851667980fefeff8cb812570d6348dd07e5d2dc84c3494b3ee281527f0c4d2259ed85d97936df568139221044479c18590d6d945de67698cd6506ee5b8184015281516102a00152825180840184527f228c8e01724601a1d54980e53fba51433ea48ae132861ce3c6ffae92ee14ace981527e083553f9733bb0544bef4d1e94a46ba7cda69df7bb9e279240d1620fbecf3b8184015281516102c00152825180840184527f1c793851deac3d60ce47bfb8c748b3fe78f41dc19c6ee32a73ed2e8e2d5be56881527f0cfdf57313c36b3f1bfe89f0ad056cc6f03b9ea5637e813f52c07dc2d4d02f668184015281516102e00152825180840184527f23d471be360b05a510d9c1c4ddc98c0d6897d2cf8b00594b6abf204b958677e581527f2f75666587a62640739cb446b383e1ce4b30e080e0bb457424f8c561270662448184015281516103000152825180840184527f2f58cba3dbf4b60d4023783fc0586cec4966b97a7cea92e4c685e603f66340ce81527f2a40e644b037129dd28317ba150ae8c8de29c32cbe86e4ad187836dcdf4e1a1a8184015281516103200152825180840184527f291d92896a392cea4443898511d35cbb64fa5698d928b25e45f31b75967af6bb81527f115a2f821db38ab6e6eb9614a45454080686fefa10ccc1e793610f8bb2d3f1bc8184015281516103400152825180840184527f1dcc4f9e7a039e20b4533cf147f753d1b75b8d81f59854741edc90dfce810dff81527f02860ea3875cb46992e6cd37b9aa426775e9aafcbff2a2e168d01379d775cd308184015281516103600152825180840184527f22dcfb465f06bf1e5daa8a0f94702f88600c47f8ca99b95e435c021a03e47b6881527f18691592ffaf19461a75e7f2f2d86ae0ef6c5a85e1d522d5afdc0203fafa50e48184015281516103800152825180840184527f0df7694b00703bf609b28e2c67f3e2866e728c9aae7ca91b5ec72d29858a649381527f24725373c5cabff832bea5ed6274954e9f1b156046f61da26f33fbe309fd127c8184015281516103a00152825180840184527f0969706adfa835b59d21b7373d67a9fe278a0e8320b4112b517b784a54dfe7c481527f1a3f9f6ed2b5c40cb027557df0d8038b015732879c7e0834d268aad077ce9d328184015281516103c00152825180840184527f0f643e3e146a77192198f4ee31402abf23c9194c73bb4145fd05a15101ba825581527f07d8551e9d7ca02d77cefe060957138f2789f72115cb4804c6a2c2b4439854878184015281516103e00152825180840184527f2eb4fb7fe5ae81a80c269ab5a4f93727808304a088409123e56b4e7758ffe61f81527f155e65f00696ac638ef74e5b637ea77a08cfde4bda9ebe000341c700703bc9b78184015281516104000152825180840184527f091f8c3f602ef1bc526ff9be6b22e49861a3d73bbb8fbf0f6da7ee8d4202f44b81527f1d9a6b392eb9e793cec00fb4b453d9c2f9fa9f2b46a09d56cd14c30c14ea8c618184015281516104200152825180840184527f146c18c6f1d3cd6123de62f79167d587445c7e0ed02eaf652915bd7cb35845c281527f1b96ef77b32bf4fdd340235b3082da16040ee060015264ed3259e0803987e9588184015281516104400152825180840184527e505e6c6fb7ddcf0447da5c8a7dd2827d619997e4a3cdffd624885f37a2d3bf81527f04516e012ce58cebf4a8c134d676aa05598587cb26983bdcb00fef5987a0ca928184015281516104600152825180840184527f1a0c2cd9f44ea009241179e50ffbb209b1bfd7a44f7f59c4e9ffaad821da644181527f170de9874fd625ee897d47b4a8f49b4f08cd478369c0dd327cdef393c404d10a8184015281516104800152825180840184527f102f732de3e536d52e651ec54308658d7934b9bedc8be3bd12e975a98772d1fd81527f2fea3a6235d9ee84b93c81c8c96528e984ae8ceb840dadeb648b0ded88c1b7128184015281516104a00152825180840184527f23073cdebb56bb2d5d10d2343ba59aea07b0befd1d930534797b4410f3fa612281527f28549d140104dc3b1ff7f2fa9536af4ab9cbb6b995b752acb02d82a7189f2e578184015281516104c00152825180840184527f2c40fdc89c1577f90d09e89c7f5da97e94a0854a5505025fe883a70340a560c981527f2e69fa5af52434ab1d96f1713fb6fee06fc67f87303def2c0128ad124faaae9b8184015281516104e00152825180840184527f21e7246798554424213b607f2bcfbc3b59211f464eeb5796e63528a6e5211a0581527f0183ea76497248ab16f1084782130e81fc6bd0aca9ec6a1f6d1a14d15864516f8184015281516105000152825180840184527f02e1cbb2f46b56a2b85859b2552c9d1fa9fde60b2aef59b745e23bcfdce17a0881527f1ebe20ac90fb602f0df0cc743325ad1e70e0db304ac5cbf27d4c295acf6851f28184015281516105200152825180840184527f1f70f894fb504e58ffd9e7843afe930d4e6318bcea4ec608603b508249ff8a3481527f0863302f165f95c28b4ade6ad6436c4381dc8d068892f4a78e71cd79a1f8d80a8184015281516105400152825180840184527f1a291ca381b1c66af09be5bb1800f6033e5438d5cf0b2c802fac66a5a032688a81527f20cc3bb414afc6a14fe137cb91bf1d553ead5b92c046a789ebe4f1cb07d25b218184015281516105600152825180840184527f26ff57fada479cd8729018b42b5515991b0354b860d85c25483765c7b8cc7ae081527f133ed6969d168a4d3d8e7330db5b37ff34964d8ca09c9ba05399fdab68c87ca08184015281516105800152825180840184527f0bb81286528be8897b1448173a9d33df05305deac03bca028bd537e42400534681527f22f27d3d72af363cda19cd524679d160f49b2a394f616ee1e85451ec6aa2d5b08184015281516105a00152825180840184527f250da7a61c11e27a1710ced6f63d9f1fa63b4da168364c47a94ef2cf1ccfce3981527f1acb7039f4d6f0e454de074413c9aa7107ccc25782d2b8b4c27f7edc60ec2abe8184015281516105c00152825180840184527f07d7508f11e8e5e186b9ef49d21c0aa01849ac6bbc28926de0a594fcc57bbfc281527f117713fc920ca16b3986030b8acffd71a477d777c5216e2d51ae4fe042df53408184015281516105e00152825180840184527f1ba8f79e38128470e10f26377b0d00399d8e7737ede0f75755ead7d6cba909c781527f27a8b94c91be9beb1e23a1c8ff2edf7e2d23c15e05d355a088f928e947f8f7098184015281516106000152825180840184527f170357f93499fd90d850400ef669d7acd8b5599e2674b4580ce6fc847ecdbf4b81527f1afdc4b6a3169fc3080717eac203be3d3595ae5e8f5a5cdfe382ae06dadf7cb28184015281516106200152825180840184527f2a2e4bbe064cd070f6019c82256c24cc18f202e95748161b31c6d65f2a712f9681527f19624c87b288ec47faf9808bdaa13806509ce45bb24531dd32d510daee8978288184015281516106400152825180840184527f0c8811542ead6c353c07f13645dcafa41704d56f78c386e2f14e602590e5214581527f0480b911f59601903f9e0f0733e2cf9946f1fe769e8384f00daa116ac5a65a4a8184015281516106600152825180840184527f1765b36a2bcb01f57d64b02adf8743387ea8bbbf8b373ca6c34a501aabb6be8381527f0bb91d6ad3c8fecb6d7c225245f6237ebad87e00ae5d8a80d2121010c18356858184015281516106800152825180840184527f17cbe69834a73f25ae1947e0bf801071fa04a5bb99e341a9d698421ff8e7a4f381527f0516aa3a7233f447b462ba0eeed255fa7098444d79e65cf8d36d47a64a2f2f758184015281516106a00152825180840184527f1f26c1ca06184fddab178a4907c88cc3ca56551eef0ff22cc9c07110f3fcad0c81527f0dc128bdcdd5bed6d10e09653a8eb9b295cfc51c8310d80b1b2664a665f7959a8184015281516106c00152825180840184527f1cb22abf6494c3a4f5243e339c9cdd5b30d8ea1b14ad3a3407be3c5bc478870381527f2a732a18e58b2f9ff992acbf4ffa4741ba58da80df879e839e474b6df8cc0d3b8184015281516106e00152825180840184527f269bdf88f6186c1a5ad44383866e058145229804782468f44de5940bdedd56b981527f0a42557fe06d2f2842fbd085b3a18c6bcaa548cf17efa4cef3465df39b6b56ca8184015281516107000152825180840184527f0b1d0a4e0e45349f00dac001dfefb47d352383831d6334e5ed6ab3a97954fac181527f083d4c2cff386937bbd1b8a7f96472ed9d788ae2a54104743ac5e87bc5f811198184015281516107200152825180840184527f16ff1dda23bb49b8cdcc353be0755f523219a720b0295d276a0bad2406302a4f81527f297407036796b5606df67400a82eba5dcc10abec6bd51482018765de1fe112ec8184015281516107400152825180840184527f13ad879af3742c10f4e962316cbb034b6bd1768386c50bd9f90d650e24b18d1d81527f27cf6013b1a03bfa5e4018e61006f8f4671e3dd5167d6271edc91f5af80177a48184015281516107600152825180840184527f0ae2532a45b286d56f45e60f56ec584424035823263cff7569e74eb02d0895fa81527f28bb7a23ffdcc30f4fdfde61102e2a6ccec2b4a339324ba6ef4054e47d1b59618184015281516107800152825180840184527f12c8ffb9d024210eeca3a2c92384817828bd094b51e6ac7ea62c3469557121e281527f09b3b58b0395b189706dd7e5a5cdcb7afd26c74b8da9d4c00f6813ea5c724a998184015281516107a00152825180840184527f0f11072f09ce366ce37079260c31cf72cb3e3be13ebbf663d1114367a9d80f8c81527e72ceee3ebc2aaa95d452e59460ce4f4df13ade8e34e4e2f70b891316d46ce78184015281516107c00152825180840184527f1578d6a9d77c8dd2983df929013e60d9fa25ec230900a4f41aac59eaaee5b5c381527f2376c9e3cbb8149bb7638d2bf3b7be5414dede21fbf577cad1b16323f76409038184015281516107e00152825180840184527f0106c6c787ce2e0f2d8160abb76ff0aca8307c7ca91a61084bb1d6c501ddad4381527f2874b8da4d0f8955fb5885ca0d43cc5c251a2cdd88ba8eae149c65b63adbbb5f8184015281516108000152825180840184527f026bdc1aa523c5f37184e88216c0ba8e85ce96ff5317b658f5f5527cab04501181527f053e8082e97a65002eb6e3962571b6f9a441091361788506918d45c6eaa0d8cc8184015281516108200152825180840184527f2f868f383470888530f4fd67e6b0437ab3f4d3271493b4b4e53afc673d8563d381527f01480a3ad94d6cf3f2f0182f92a53ccd01284ac6ac637414487daff26278923d8184015281516108400152825180840184527f29c2100e867d334787c65389b3218fc09a82ffa20fbbdbbcdab1c138e73b027381527f2a96d20ea6e09aadda3564f1f21a419252018c606a69938be6fa664238be0a008184015281516108600152825180840184527f208920716854189c788057d9b16fd69dfaae032d9e7d4548af3adf3c7b73902281527f1da43127b570fef6fa8d34570b8f704f8c7a751cb1af172daf93aec77e8aad0e8184015281516108800152825180840184527f13adc92e05395345d1e75aca6adc1384ab69bc7949149191b644b1ef044487ac81527f28670c85263b4b5428f61ef48efff595dcea6304c550cac60613931304b112f38184015281516108a00152825180840184527f1ae68705509feb9b693700439443ee8ec10337ff5fc3390e15932c240a34ce3e81527f14106ff2e48a15d09a68aa58018347e93105b8a33e9b779367c10bf4b902094e8184015281516108c00152825180840184527f048dd066c91767f7a1747f768879e0a3c5fbcb565e4824f923d59cdfa7ec0ba381527f05c429ae90e026a5a11ed579cba9374143b91042721a9675c4b2c389728a56da8184015281516108e00152825180840184527f176ee044dac18a43fe8628b0e1bf60a8f1fd5d75d442d3db9857b182842cff1b81527f1483e9ac3f1e07e0c416988583f9c772a13ac3212710c8e03976d1c34a0589428184015281516109000152825180840184527f290fa44198848e9b571cbd1fb43e709ca23bc653ca0d288fa09a6e59428b992681527f097178c2c182f8e427deebde8898a11b9772730bc56e5ea5fb03c5553e8e0b218184015281516109200152825180840184527f2d84a09444665d7a80773d8dad4b0605fcc7c4d2b9caf8bb92321ac302f8a98f81527f1f6d311b32dbc585f7815782db713b31253c5cbc881195ddee91e87cf082d8148184015281516109400152825180840184527f04c89f98a848e8d9fe75a77aa0912d6752413131d515f1f9b16d692c86cfacb281527f12473e77cc4b5a33365c6c54ef9d5c1b42623e76e2c64fcece7baad6a5ce79748184015281516109600152825180840184527f0fe9a1b9390404a294b7432146acced2cecf29c61bd490ba96265a64515b7fab81527f2fca8f660cfd598a9da547fad0b2cbe2e6000acd5ff4c10452ad1fe37268911f8184015281516109800152825180840184527f1499671b51167b0af91591d34e483de4947a80b5cae8e590d475c897e1d5c09f81527f14716cf2db4eff59ea1ecaa982ac3aecd90e478a10a817ace4fa6e1a490daacf8184015281516109a00152825180840184527f1d077b5d52ce89f22bac85b7b1e55bc8ef44d66da0f124875e8de932ab38ed7481527f2afa5283b5acbca69d518a67a452f22dff37bf1a2861ace50c721f33047ff9018184015281516109c00152825180840184527f1270fe6cebc8576348184fc4cfddf81c22f11d827d6884f7f74fb2bafdfec93581527f08da87a676634e7eba441b87725d0998c3defca8919cfb8f89bea7880eccf9ac8184015281516109e00152825180840184527f282bb41b7c6de34ceb3d40591d33e69d3e746134ceb4da69ae5b45d4414a856a81527f0f4ce8e8499091018a3333a13b4bf149259ff4d68ac5d35378edb4ab04925d2b818401528151610a000152825180840184527f2063ab2dd1338306ece13c1d5ed74f3072fdbbd89d2f964dc00a9b42bd3d06e981527f05e86eb735a66308e73b6266cf95417860d3778bebaff58a04332f89339e1f47818401528151610a200152825180840184527f05975afc8c6eeec878f106d36bdabc56674cf124e3869bc3b76e58bd8a3ecba481527f23b71ffde4eccf8375f4b87ab26c6d239f8c911fc956607f22cd951a4d460114818401528151610a400152825180840184527f2b120590dee786dc2a02db71a8cd5b175aa0234f29cbec141c0798cec1bdb2fc81527f076fbaac2a53e6a6dfee61956d7950f5fe7c3a59bcc22a5bba2784119d9d56bb818401528151610a600152825180840184527f29f59ff12198f009b95158e75a86fd0cc386ae0ae3811d057db645aeff42707c81527f02aee167556a2015aeb43a06440554b2a13f45c2cd2e86e84101a1eccdb9fb10818401528151610a800152825180840184527f1fe0577f081ac5dbe5e77a8e75025d10a8893c7a4923417d8b990ca7940c707481527f0a2833087e01fd7f6d675a0a7e341fb5fd44d25868ba8ab6f6a921fc7e1b5608818401528151610aa00152825180840184527f21b41985d7c2ddf0f3908f74a90cde2d97cae51381a4fdc69a6a5cc1e7dfce5281527f23f522cc61fa7027b20d5082caaa19249b6c746ea641a4cd61d8738a156a0a50818401528151610ac00152825180840184527f1da726d4d32c4e0d3e60e37e21c5b9b99a670e7826aaa3b1a429f915aa1930d681527f29812037b9d309d2b9a15ce4f8d3e5a6bfb063002ecb247537a61bc9224d0c18818401528151610ae00152825180840184527f10177ee445f77962e73f1fc3ead555bbd243e8a8f451e07bb3eb7f6bb4a3bd6781527f15192b01dcd4da52de58fb6f1c93d8a35a53c0c9a7ff6aadf33c98957d89281e818401528151610b000152825180840184527f03c762bf2c924dab8d9039a95c291303c104ff04b640f3802bbe6db4841cc8d981527f0938e13ee185263857d13e69df37201bc3f892adce67f161c85ae0bc73b671ef818401528151610b200152825180840184527f218f745a63a69d7a42bb79fb63c899a91020015878b22c73505e6dfbb874e22081527f19baedefebd2d485aa5c95e8161332410aa8a47e4f52abdd0a44a6982a0b29e3818401528151610b400152825180840184527f0552c193856f15256a754cff644809dbd5d1f54c0028e97741f2881aa9c17b3181527f1ff754edb9294c3062c6a4451fd0036f1672dc005e3f9769ebe66ef07279115b818401528151610b600152825180840184527f2468f373fe1ede9f08d54afc7e66cfb217964b2bab21db86413b8a77e8dc6df681527f2df5f4f6b9dd4f40f99a50916abc5d10711ca30e4958590d69e51c9d8fd69003818401528151610b800152825180840184527f08d2e07363d543096496df2f8a03f74cc2b4b66e99e509990565fed97e76763c81527f08a0be1f67bcefaf239f83939dd5d9eca35d7e684fbdd5b509c3a34de93b4549818401528151610ba00152825180840184527f033e3a7ff897f88ee05abba396c49e43fafba2fad0f748bb39f1cd4b6dc8796b81527f187fdf0bbd95d6e6c0afded74b73ac383c9d6eb14068f66881239e9eb117f40e818401528151610bc00152825180840184527f22a7f1a01803be8363d188a8ad5befda8d54e88c5411e05abb842d2f41f7153c81527f0624ce8da621024d0acff9ed6a3977abaa16a56be9720f76c1af44781ad03f76818401528151610be00152825180840184527f14fd506469a1ed00d3c6b7f3c88068c622ea2416600b0f38feeb0ff8b869c66b81527f1dffca700a14a0306bd9a73cee71b9aa3512ec8f64f928f2fef11d6d31a61240818401528151610c000152825180840184527f146f20ad9b94466bd1c5607c22b24c95c6f8c6acfbbe0c6e069e7d90861d1aa781527f0e5652f410c5b7bdcfba0dcc024ae50d0b3a5d83f29ea06401b45970a0c18a7a818401528151610c200152825180840184527f035e7b4165861d8c0115dffd8e8265e92f1a0121a7a652a6fffa6f8abef5897281527f2682a1d7aeb15d850727d28f08827d2306d9411f997908987a8f3f86f4a2eac3818401528151610c400152825180840184527f1934068fcbee73f8c90567b997c2b9d937b1f62777541856f4ade66538709d1581527f179714f0bcdefc5265bc2b063e63b2415701a2ad5d02126ae0ac2bc631e26558818401528151610c600152825180840184527f1fe90e0fa754816d0bedb3b856942ed45052cba1d3f35362c79a4e97805ea0c181527f0785a6bbb290071ca3eee1001dd19b534839956dfb99e13c1c7685026e169063818401528151610c800152825180840184527f30456c5832528c5358428d1e14850083d17137daff16d08b4ff3cf19fd7d4f6b81527f107f882e43d130ffbf82d377049430cf1cf8ebf43a26c2e5714853f73058e41f818401528151610ca00152825180840184527e76e4af9f88d8063c1a7541f7faf2c320758670fa182ce176e9e43ed118f15a81527f258923b79e2fa4bfd9d9c00d446c5e5d5165073b6457e0b707cabb05b4ccf50c818401528151610cc00152825180840184527f2b145967697494a3400afe3532444c7245d681a166029e921f01d86cc51b4e0d81527f2120144c669d9100e4ace02930438ac18cc26601e1261afe03b6e432d7d13e88818401528151610ce00152825180840184527f03a2230843650fdde1c1dc91a8d13fb5e06695ea82b456f59eb8e70d2e8bfa9081527f18f4ea6edd4d874c6d71cf39ce871ea993a0ca7b0ecaa3f949d023ac500c9230818401528151610d000152825180840184527f0c83997f5816a2573adca1e529b923af5daee61f444a0acb1995da4b1e55684881527f248da5e1756c6efb3f51422a783a3078e5ecce56ea1ad17b1ed20b527b5807eb818401528151610d200152825180840184527f2972cc40970947092e24849648c86a13ed16165844ab8be1d5a2654f38f22b7b81527f2a1109120d4998b1d15d33547c022035e6f9b359bf3c8295d09d37576f96788b818401528151610d400152825180840184527f05dc5082a2450bd5d8ff38e5292fb1da48d37c85a53732086fd70961f0836de681527f08586c204b540ad59a6ae24321a179e8986040ef653816509ca017a8219b1214818401528151610d600152825180840184527f0a4ed32f8b39520f5040a07f43506ff873ff0865fa22ff90267e6937e2dbb1a181527f11d94c88a8520378da2c8b081a8d75bd1d762cc7a0479d79224edcdffd44c792818401528151610d800152825180840184527f1d484cc9c2c7b0b543fc0a16e25a5905bb4b0b84c2601f7f4891c17765dab53881527f2251b10f97908b395c83caa7a41b185f52c0f4522cfc381818f71972f15603a1818401528151610da00152825180840184527f2ba99a8b814d19f0c43c20059818d69358579b93de03c100d0a76792dac0f40481527f19f3c9803a49b93253661f7c6c978963ad6dd9503770639aa871c2f827a34547818401528151610dc00152825180840184527f19538c14a2cae160d4b60db876b2ca5c4eca1d61ae1df82fbd6e2e7d2433c28781527f16b8f3985f9d0525f8dcb58c73f9e8b852e9e0a280c8fed27febd70491f8b9d3818401528151610de00152825180840184527f1c265c57560f35b44622d0a79fe9e2b24f9ce0d503c22be3aa6603d48ef66bd081527f244b434f2f1cde94d375389caf16b1a7c5fb0d911a2bef5f6b14629ff11fde02818401528151610e000152825180840184527f173fe91791785c73c1de7459363b05db2f7fa4734d8da4597d7408c33287903481527f1018f47e79a91375466c162bd046c50eb0ec368a205233b182382ca0bef7b5b6818401528151610e200152825180840184527f0434b4928b4b04e0c5b138da4870e746f1b633da129d3955397eb1afdf980ebd81527f0c0e187b23c2dc08ae194414b3d38d755e3277b10499ecb257e8810f2d7ccf4f818401528151610e400152825180840184527f1a4a25977e2613469f5652290f6dceb7bb8518be126da67d826af11e630fb24681527f23a96ac9e0cdb9e299161f0d8deb38c9084ed3b8a32095b67b97f0775ba2ce5e818401528151610e600152825180840184527f201b73ad5020cac2861d124226b6758380b5622f7332cac71e8fabf7ea9a5b6f81527f0786528ef6dc4b0feb1eb8474b55af0439656fa2a00d28211887d56f713c72b3818401528151610e800152825180840184527f0cada7a29992ef576911423ee2c25d9730e1c455b7b177eb171efe631abfcd9881527f1fb26dc15a97df863512339ba708c9c93447416099e38486cb86fc7d8283b3c2818401528151610ea00152825180840184527f1c9eacb13e439dbff60b96b9c52a311d853fe416a427123a7cbfdf67689861d781527f14a18d75dfbf3fdd7c04560c3e2258c285525378be5d81a4ce89d2198269a031818401528151610ec00152825180840184527f1c4f7a2cf25b10b986cb31fccb73f632d47ac6990fa2f2d93597c061b92a5e3281527f2148b0efdd50e277f878bad321d59ea56ee5dea605cd2f5baae52f0b60ff7ff3818401528151610ee00152825180840184527f033b43d4695c15dd1cbcaa1859a2837096b3ecc8cff8e807bc1ed8d21f2ff27d81527f2c2c45f1f5f01cb0ccd50367ee74ee6f4e4eb2a295efb75e5deeea51b6dee5d7818401528151610f000152825180840184527f18c358919b36a133c10e5eb6c6bcc83764d0a7ca28b36c983342e988714bb37c81527f16a2f21a0aba82f1240857673738d476a18eb877327244e54fbfca4e7c0d0ee9818401528151610f200152825180840184527f2970e959178ae10db4ca0e0b12ca89e22ce3bd3a5c693a138ac8000165e25bb681527f02effde35d93bd1ff9b0a44ba3e7dd62a3332a7de32c4908f4ba60cad800c033818401528151610f400152825180840184527f015a87d65b458991b6edb4ee7e654cb42f7b5fb886c3191918d54c9a9608ae0381527f1178fbae9b315662e25cedfbf17627b7a28f22203e18cb021fc62e4206108248818401528151610f600152825180840184527f1c4b94967d4c250edfd585ed42a3605447fffdf35a2d10f3fa557971b7ce1f9481527f06a19d0f5cddd3d0e69fac9d773f65eedcc6505f6ee1fd7a614e066ed7a400de818401528151610f800152825180840184527f226851738af0fc85fb16756e64d3668f84d7df6f9bda13ed41f814480bc0012e81527f262596f00e224faa8c84e6b50e12fc0b9b30e54b4410b3c71b039aab9ddb9000818401528151610fa00152825180840184527f115f6ac434d74af8ad096c410b9fb04109955a203b2b7b86203a84a24d3d090a81527f0222b7bb844e99c8025b5b4b25beb4bcbd41dafad5ef3917df3847ce7901141a818401528151610fc00152825180840184527f0f17b2aaa7bdfd081846c0a0c81578935898a74d5880a37a1777aca367fbcbca81527f259429b7f9388de31eb8a5ed899736bbdc38d1c47729309d1361f8523099f975818401528151610fe00152825180840184527f0f4a94173bba71bd6bf4da82c7e9bd3e5c7c2c471a4da385863e1970c0ad153b81527f295d77abc5348fe32972f2621fc78af928e8085e31c3313fbbe159d095d3f45d8184015281516110000152825180840184527f1ed99a54ab190a1b53967f63cfecad66cf97378227613627551e08a4adc347e481527f0cf03c61ccd8224d4fe192d43583cc611ae690737323def24c6aa0a94fd112fb8184015281516110200152825180840184527f01f3c69f7cce45562cc7d2f7a5b41c37e7b172ea221065496d413c151f69432a81527f15532be47f553160d97d1a22b13e4d98c8f529c9b3b1cb0d691d2d75a91dde088184015281516110400152825180840184527f10fc150bb0472416514ed82e0d116c102b4a490e94fe9fc3694e1ea17abc905b81527f18ac154f8618b4ad8482fa92a60347b1ef1ccaf802a686ef94c93648628a6ed58184015281516110600152825180840184527f115216155e5da1d350a1ea6ba8b9f5e6ed49fba29ee98a832bf9bfeb2040a49981527f0b9ef65b7695891c52ca282813218a8a892dc51453663c4daf4fcb8d80b5c6e48184015281516110800152825180840184527f0b4f8a61b562c15d78dc215871e1e37de9d3040e2c2aaac36d5db581221ca26a81527f0cf9acbeddb8fdec9a0248c237d418cd5f8541e5a0a399f104fed2484a207cd78184015281516110a00152825180840184527f29a0956ece42e4bc27c22f7d8361a2452beb3f1b9f5396fe3019523832e61dc381527f02d805389fc7fc6ac6a10fd621a8f573a831cfde4914fb8dca855b575e6af1788184015281516110c00152825180840184527f293e5dc421e8e8446678e418f2cbbed03e2960a37f770477a45b50eb1ce5f51081527f23abdc4897179d8b78ebc71d95b657f80f7b31d93103f99e60860dfabaaea8cc8184015281516110e0015282518084019093527f09eacb17aec540d9feeced52033416132c14ff7fc643a1895fcd0929e7a39a4683527f1bd91ba007dad6686656cd2b955287240702e5eb49be71fdf3a7790e7d4285459183019190915251611100015290565b61372d613ba5565b613735613bbf565b835181526020808501519082015260408101839052600060608360808460076107d05a03fa90508080156137685761376a565bfe5b50806137b2576040805162461bcd60e51b81526020600482015260126024820152711c185a5c9a5b99cb5b5d5b0b59985a5b195960721b604482015290519081900360640190fd5b505092915050565b6137c2613ba5565b6137ca613bdd565b8351815260208085015181830152835160408301528301516060808301919091526000908360c08460066107d05a03fa90508080156137685750806137b2576040805162461bcd60e51b81526020600482015260126024820152711c185a5c9a5b99cb5859190b59985a5b195960721b604482015290519081900360640190fd5b613853613ba5565b815115801561386457506020820151155b15613883575060408051808201909152600080825260208201526138c9565b604051806040016040528083600001518152602001600080516020613ce08339815191528460200151816138b357fe5b06600080516020613ce083398151915203905290505b919050565b60006138d8613bfb565b60405180608001604052808b8152602001898152602001878152602001858152509050613903613c28565b50604080516080810182528a81526020810189905280820187905260608082018690528251601880825261032082019094529192918281602001602082028036833701905050905060005b6004811015613aa5576006810285826004811061396757fe5b602002015151835184908390811061397b57fe5b60200260200101818152505085826004811061399357fe5b6020020151602001518382600101815181106139ab57fe5b6020026020010181815250508482600481106139c357fe5b6020020151515183518490600284019081106139db57fe5b6020026020010181815250508482600481106139f357fe5b60200201515160016020020151838260030181518110613a0f57fe5b602002602001018181525050848260048110613a2757fe5b602002015160200151600060028110613a3c57fe5b6020020151838260040181518110613a5057fe5b602002602001018181525050848260048110613a6857fe5b602002015160200151600160028110613a7d57fe5b6020020151838260050181518110613a9157fe5b60209081029190910101525060010161394e565b50613aae613c55565b6000602082602086026020860160086107d05a03fa9050808015613768575080613b17576040805162461bcd60e51b81526020600482015260156024820152741c185a5c9a5b99cb5bdc18dbd9194b59985a5b1959605a1b604482015290519081900360640190fd5b505115159d9c50505050505050505050505050565b6040518060600160405280613b3f613ba5565b8152602001613b4c613c73565b8152602001613b59613ba5565b905290565b6040518060a00160405280613b71613ba5565b8152602001613b7e613c73565b8152602001613b8b613c73565b8152602001613b98613c73565b8152602001613b59613c93565b604051806040016040528060008152602001600081525090565b60405180606001604052806003906020820280368337509192915050565b60405180608001604052806004906020820280368337509192915050565b60405180608001604052806004905b613c12613ba5565b815260200190600190039081613c0a5790505090565b60405180608001604052806004905b613c3f613c73565b815260200190600190039081613c375790505090565b60405180602001604052806001906020820280368337509192915050565b6040518060400160405280613c86613cc1565b8152602001613b59613cc1565b6040518061112001604052806089905b613cab613ba5565b815260200190600190039081613ca35790505090565b6040518060400160405280600290602082028036833750919291505056fe30644e72e131a029b85045b68181585d97816a916871ca8d3c208c16d87cfd47a26469706673582212205dc44cc3082f4116aa6d7de98fa213cc954baa8c838947571b03c26ec298ab6e64736f6c634300060c0033","opcodes":"PUSH1 0x80 PUSH1 0x40 MSTORE CALLVALUE DUP1 ISZERO PUSH2 0x10 JUMPI PUSH1 0x0 DUP1 REVERT JUMPDEST POP PUSH2 0x3D35 DUP1 PUSH2 0x20 PUSH1 0x0 CODECOPY PUSH1 0x0 RETURN INVALID PUSH1 0x80 PUSH1 0x40 MSTORE CALLVALUE DUP1 ISZERO PUSH2 0x10 JUMPI PUSH1 0x0 DUP1 REVERT JUMPDEST POP PUSH1 0x4 CALLDATASIZE LT PUSH2 0x2B JUMPI PUSH1 0x0 CALLDATALOAD PUSH1 0xE0 SHR DUP1 PUSH4 0xC32E370E EQ PUSH2 0x30 JUMPI JUMPDEST PUSH1 0x0 DUP1 REVERT JUMPDEST PUSH2 0x184 PUSH1 0x4 DUP1 CALLDATASIZE SUB PUSH2 0x120 DUP2 LT ISZERO PUSH2 0x47 JUMPI PUSH1 0x0 DUP1 REVERT JUMPDEST PUSH1 0x40 DUP1 MLOAD DUP1 DUP3 ADD DUP3 MSTORE SWAP2 DUP4 ADD SWAP3 SWAP2 DUP2 DUP4 ADD SWAP2 DUP4 SWAP1 PUSH1 0x2 SWAP1 DUP4 SWAP1 DUP4 SWAP1 DUP1 DUP3 DUP5 CALLDATACOPY PUSH1 0x0 SWAP3 ADD DUP3 SWAP1 MSTORE POP PUSH1 0x40 DUP1 MLOAD DUP1 DUP3 ADD SWAP1 SWAP2 MSTORE SWAP4 SWAP7 SWAP6 SWAP5 PUSH1 0x80 DUP2 ADD SWAP5 SWAP4 POP SWAP2 POP PUSH1 0x2 SWAP1 DUP4 JUMPDEST DUP3 DUP3 LT ISZERO PUSH2 0xC8 JUMPI PUSH1 0x40 DUP1 MLOAD DUP1 DUP3 ADD DUP3 MSTORE SWAP1 DUP1 DUP5 MUL DUP7 ADD SWAP1 PUSH1 0x2 SWAP1 DUP4 SWAP1 DUP4 SWAP1 DUP1 DUP3 DUP5 CALLDATACOPY PUSH1 0x0 SWAP3 ADD SWAP2 SWAP1 SWAP2 MSTORE POP POP POP DUP2 MSTORE PUSH1 0x1 SWAP1 SWAP2 ADD SWAP1 PUSH1 0x20 ADD PUSH2 0x8A JUMP JUMPDEST POP POP PUSH1 0x40 DUP1 MLOAD DUP1 DUP3 ADD DUP3 MSTORE SWAP4 SWAP7 SWAP6 SWAP5 DUP2 DUP2 ADD SWAP5 SWAP4 POP SWAP2 POP PUSH1 0x2 SWAP1 DUP4 SWAP1 DUP4 SWAP1 DUP1 DUP3 DUP5 CALLDATACOPY PUSH1 0x0 SWAP3 ADD SWAP2 SWAP1 SWAP2 MSTORE POP SWAP2 SWAP5 SWAP4 SWAP3 PUSH1 0x20 DUP2 ADD SWAP3 POP CALLDATALOAD SWAP1 POP PUSH5 0x100000000 DUP2 GT ISZERO PUSH2 0x112 JUMPI PUSH1 0x0 DUP1 REVERT JUMPDEST DUP3 ADD DUP4 PUSH1 0x20 DUP3 ADD GT ISZERO PUSH2 0x124 JUMPI PUSH1 0x0 DUP1 REVERT JUMPDEST DUP1 CALLDATALOAD SWAP1 PUSH1 0x20 ADD SWAP2 DUP5 PUSH1 0x20 DUP4 MUL DUP5 ADD GT PUSH5 0x100000000 DUP4 GT OR ISZERO PUSH2 0x146 JUMPI PUSH1 0x0 DUP1 REVERT JUMPDEST SWAP2 SWAP1 DUP1 DUP1 PUSH1 0x20 MUL PUSH1 0x20 ADD PUSH1 0x40 MLOAD SWAP1 DUP2 ADD PUSH1 0x40 MSTORE DUP1 SWAP4 SWAP3 SWAP2 SWAP1 DUP2 DUP2 MSTORE PUSH1 0x20 ADD DUP4 DUP4 PUSH1 0x20 MUL DUP1 DUP3 DUP5 CALLDATACOPY PUSH1 0x0 SWAP3 ADD SWAP2 SWAP1 SWAP2 MSTORE POP SWAP3 SWAP6 POP PUSH2 0x198 SWAP5 POP POP POP POP POP JUMP JUMPDEST PUSH1 0x40 DUP1 MLOAD SWAP2 ISZERO ISZERO DUP3 MSTORE MLOAD SWAP1 DUP2 SWAP1 SUB PUSH1 0x20 ADD SWAP1 RETURN JUMPDEST PUSH1 0x0 PUSH2 0x1A2 PUSH2 0x3B2C JUMP JUMPDEST PUSH1 0x40 DUP1 MLOAD DUP1 DUP3 ADD DUP3 MSTORE DUP8 MLOAD DUP2 MSTORE PUSH1 0x20 DUP1 DUP10 ADD MLOAD DUP2 DUP4 ADD MSTORE SWAP1 DUP4 MSTORE DUP2 MLOAD PUSH1 0x80 DUP2 ADD DUP4 MSTORE DUP8 MLOAD MLOAD DUP2 DUP5 ADD SWAP1 DUP2 MSTORE DUP9 MLOAD DUP4 ADD MLOAD PUSH1 0x60 DUP4 ADD MSTORE DUP2 MSTORE DUP3 MLOAD DUP1 DUP5 ADD DUP5 MSTORE DUP9 DUP4 ADD DUP1 MLOAD MLOAD DUP3 MSTORE MLOAD DUP4 ADD MLOAD DUP2 DUP5 ADD MSTORE DUP2 DUP4 ADD MSTORE DUP4 DUP3 ADD MSTORE DUP2 MLOAD DUP1 DUP4 ADD DUP4 MSTORE DUP7 MLOAD DUP2 MSTORE DUP7 DUP3 ADD MLOAD SWAP2 DUP2 ADD SWAP2 SWAP1 SWAP2 MSTORE SWAP1 DUP3 ADD MSTORE PUSH2 0x21A PUSH2 0x3B5E JUMP JUMPDEST PUSH2 0x222 PUSH2 0x6B3 JUMP JUMPDEST SWAP1 POP PUSH2 0x22C PUSH2 0x3BA5 JUMP JUMPDEST POP PUSH1 0x40 DUP1 MLOAD DUP1 DUP3 ADD SWAP1 SWAP2 MSTORE PUSH1 0x0 DUP1 DUP3 MSTORE PUSH1 0x20 DUP3 ADD MSTORE DUP3 MLOAD MLOAD PUSH1 0x0 DUP1 MLOAD PUSH1 0x20 PUSH2 0x3CE0 DUP4 CODECOPY DUP2 MLOAD SWAP2 MSTORE GT PUSH2 0x2A5 JUMPI PUSH1 0x40 DUP1 MLOAD PUSH3 0x461BCD PUSH1 0xE5 SHL DUP2 MSTORE PUSH1 0x20 PUSH1 0x4 DUP3 ADD MSTORE PUSH1 0x17 PUSH1 0x24 DUP3 ADD MSTORE PUSH32 0x76657269666965722D61582D6774652D7072696D652D71000000000000000000 PUSH1 0x44 DUP3 ADD MSTORE SWAP1 MLOAD SWAP1 DUP2 SWAP1 SUB PUSH1 0x64 ADD SWAP1 REVERT JUMPDEST DUP3 MLOAD PUSH1 0x20 ADD MLOAD PUSH1 0x0 DUP1 MLOAD PUSH1 0x20 PUSH2 0x3CE0 DUP4 CODECOPY DUP2 MLOAD SWAP2 MSTORE GT PUSH2 0x30C JUMPI PUSH1 0x40 DUP1 MLOAD PUSH3 0x461BCD PUSH1 0xE5 SHL DUP2 MSTORE PUSH1 0x20 PUSH1 0x4 DUP3 ADD MSTORE PUSH1 0x17 PUSH1 0x24 DUP3 ADD MSTORE PUSH32 0x76657269666965722D61592D6774652D7072696D652D71000000000000000000 PUSH1 0x44 DUP3 ADD MSTORE SWAP1 MLOAD SWAP1 DUP2 SWAP1 SUB PUSH1 0x64 ADD SWAP1 REVERT JUMPDEST PUSH1 0x20 DUP4 ADD MLOAD MLOAD MLOAD PUSH1 0x0 DUP1 MLOAD PUSH1 0x20 PUSH2 0x3CE0 DUP4 CODECOPY DUP2 MLOAD SWAP2 MSTORE GT PUSH2 0x374 JUMPI PUSH1 0x40 DUP1 MLOAD PUSH3 0x461BCD PUSH1 0xE5 SHL DUP2 MSTORE PUSH1 0x20 PUSH1 0x4 DUP3 ADD MSTORE PUSH1 0x18 PUSH1 0x24 DUP3 ADD MSTORE PUSH32 0x76657269666965722D6258302D6774652D7072696D652D710000000000000000 PUSH1 0x44 DUP3 ADD MSTORE SWAP1 MLOAD SWAP1 DUP2 SWAP1 SUB PUSH1 0x64 ADD SWAP1 REVERT JUMPDEST PUSH1 0x20 DUP4 DUP2 ADD MLOAD ADD MLOAD MLOAD PUSH1 0x0 DUP1 MLOAD PUSH1 0x20 PUSH2 0x3CE0 DUP4 CODECOPY DUP2 MLOAD SWAP2 MSTORE GT PUSH2 0x3DE JUMPI PUSH1 0x40 DUP1 MLOAD PUSH3 0x461BCD PUSH1 0xE5 SHL DUP2 MSTORE PUSH1 0x20 PUSH1 0x4 DUP3 ADD MSTORE PUSH1 0x18 PUSH1 0x24 DUP3 ADD MSTORE PUSH32 0x76657269666965722D6259302D6774652D7072696D652D710000000000000000 PUSH1 0x44 DUP3 ADD MSTORE SWAP1 MLOAD SWAP1 DUP2 SWAP1 SUB PUSH1 0x64 ADD SWAP1 REVERT JUMPDEST PUSH1 0x20 DUP4 DUP2 ADD MLOAD MLOAD ADD MLOAD PUSH1 0x0 DUP1 MLOAD PUSH1 0x20 PUSH2 0x3CE0 DUP4 CODECOPY DUP2 MLOAD SWAP2 MSTORE GT PUSH2 0x448 JUMPI PUSH1 0x40 DUP1 MLOAD PUSH3 0x461BCD PUSH1 0xE5 SHL DUP2 MSTORE PUSH1 0x20 PUSH1 0x4 DUP3 ADD MSTORE PUSH1 0x18 PUSH1 0x24 DUP3 ADD MSTORE PUSH32 0x76657269666965722D6258312D6774652D7072696D652D710000000000000000 PUSH1 0x44 DUP3 ADD MSTORE SWAP1 MLOAD SWAP1 DUP2 SWAP1 SUB PUSH1 0x64 ADD SWAP1 REVERT JUMPDEST PUSH1 0x20 DUP4 DUP2 ADD MLOAD DUP2 ADD MLOAD ADD MLOAD PUSH1 0x0 DUP1 MLOAD PUSH1 0x20 PUSH2 0x3CE0 DUP4 CODECOPY DUP2 MLOAD SWAP2 MSTORE GT PUSH2 0x4B4 JUMPI PUSH1 0x40 DUP1 MLOAD PUSH3 0x461BCD PUSH1 0xE5 SHL DUP2 MSTORE PUSH1 0x20 PUSH1 0x4 DUP3 ADD MSTORE PUSH1 0x18 PUSH1 0x24 DUP3 ADD MSTORE PUSH32 0x76657269666965722D6259312D6774652D7072696D652D710000000000000000 PUSH1 0x44 DUP3 ADD MSTORE SWAP1 MLOAD SWAP1 DUP2 SWAP1 SUB PUSH1 0x64 ADD SWAP1 REVERT JUMPDEST PUSH1 0x40 DUP4 ADD MLOAD MLOAD PUSH1 0x0 DUP1 MLOAD PUSH1 0x20 PUSH2 0x3CE0 DUP4 CODECOPY DUP2 MLOAD SWAP2 MSTORE GT PUSH2 0x51B JUMPI PUSH1 0x40 DUP1 MLOAD PUSH3 0x461BCD PUSH1 0xE5 SHL DUP2 MSTORE PUSH1 0x20 PUSH1 0x4 DUP3 ADD MSTORE PUSH1 0x17 PUSH1 0x24 DUP3 ADD MSTORE PUSH32 0x76657269666965722D63582D6774652D7072696D652D71000000000000000000 PUSH1 0x44 DUP3 ADD MSTORE SWAP1 MLOAD SWAP1 DUP2 SWAP1 SUB PUSH1 0x64 ADD SWAP1 REVERT JUMPDEST PUSH1 0x0 DUP1 MLOAD PUSH1 0x20 PUSH2 0x3CE0 DUP4 CODECOPY DUP2 MLOAD SWAP2 MSTORE DUP4 PUSH1 0x40 ADD MLOAD PUSH1 0x20 ADD MLOAD LT PUSH2 0x585 JUMPI PUSH1 0x40 DUP1 MLOAD PUSH3 0x461BCD PUSH1 0xE5 SHL DUP2 MSTORE PUSH1 0x20 PUSH1 0x4 DUP3 ADD MSTORE PUSH1 0x17 PUSH1 0x24 DUP3 ADD MSTORE PUSH32 0x76657269666965722D63592D6774652D7072696D652D71000000000000000000 PUSH1 0x44 DUP3 ADD MSTORE SWAP1 MLOAD SWAP1 DUP2 SWAP1 SUB PUSH1 0x64 ADD SWAP1 REVERT JUMPDEST PUSH1 0x0 JUMPDEST PUSH1 0x88 DUP2 LT ISZERO PUSH2 0x65F JUMPI PUSH32 0x30644E72E131A029B85045B68181585D2833E84879B9709143E1F593F0000001 DUP7 DUP3 DUP2 MLOAD DUP2 LT PUSH2 0x5BE JUMPI INVALID JUMPDEST PUSH1 0x20 MUL PUSH1 0x20 ADD ADD MLOAD LT PUSH2 0x618 JUMPI PUSH1 0x40 DUP1 MLOAD PUSH3 0x461BCD PUSH1 0xE5 SHL DUP2 MSTORE PUSH1 0x20 PUSH1 0x4 DUP3 ADD MSTORE PUSH1 0x1F PUSH1 0x24 DUP3 ADD MSTORE PUSH32 0x76657269666965722D6774652D736E61726B2D7363616C61722D6669656C6400 PUSH1 0x44 DUP3 ADD MSTORE SWAP1 MLOAD SWAP1 DUP2 SWAP1 SUB PUSH1 0x64 ADD SWAP1 REVERT JUMPDEST PUSH2 0x655 DUP3 PUSH2 0x650 DUP6 PUSH1 0x80 ADD MLOAD DUP5 PUSH1 0x1 ADD PUSH1 0x89 DUP2 LT PUSH2 0x632 JUMPI INVALID JUMPDEST PUSH1 0x20 MUL ADD MLOAD DUP10 DUP6 DUP2 MLOAD DUP2 LT PUSH2 0x643 JUMPI INVALID JUMPDEST PUSH1 0x20 MUL PUSH1 0x20 ADD ADD MLOAD PUSH2 0x3725 JUMP JUMPDEST PUSH2 0x37BA JUMP JUMPDEST SWAP2 POP PUSH1 0x1 ADD PUSH2 0x588 JUMP JUMPDEST POP PUSH1 0x80 DUP3 ADD MLOAD MLOAD PUSH2 0x671 SWAP1 DUP3 SWAP1 PUSH2 0x37BA JUMP JUMPDEST SWAP1 POP PUSH2 0x6A7 PUSH2 0x683 DUP5 PUSH1 0x0 ADD MLOAD PUSH2 0x384B JUMP JUMPDEST DUP5 PUSH1 0x20 ADD MLOAD DUP5 PUSH1 0x0 ADD MLOAD DUP6 PUSH1 0x20 ADD MLOAD DUP6 DUP8 PUSH1 0x40 ADD MLOAD DUP10 PUSH1 0x40 ADD MLOAD DUP10 PUSH1 0x60 ADD MLOAD PUSH2 0x38CE JUMP JUMPDEST SWAP9 SWAP8 POP POP POP POP POP POP POP POP JUMP JUMPDEST PUSH2 0x6BB PUSH2 0x3B5E JUMP JUMPDEST PUSH1 0x40 DUP1 MLOAD DUP1 DUP3 ADD DUP3 MSTORE PUSH32 0x2C7677EC62A7F8E8042B019FCBED879A5FCF7F59D188DF331B2C709BBBE34AAB DUP2 MSTORE PUSH32 0x1BE55DB229F344753201F10B7A0A35EB276E345608F0CD5D14878FA882D7AEE9 PUSH1 0x20 DUP1 DUP4 ADD SWAP2 SWAP1 SWAP2 MSTORE SWAP1 DUP4 MSTORE DUP2 MLOAD PUSH1 0x80 DUP1 DUP3 ADD DUP5 MSTORE PUSH32 0x1DF0B1FD8432ACC8BB6989506453CA8BC89029D9DFCE66F642CCE33A1751453B DUP3 DUP6 ADD SWAP1 DUP2 MSTORE PUSH32 0x2F85F90173D1F6D610DEC1E182DEEFE9895583910BB440DB69F52B6B65A9DCF3 PUSH1 0x60 DUP1 DUP6 ADD SWAP2 SWAP1 SWAP2 MSTORE SWAP1 DUP4 MSTORE DUP5 MLOAD DUP1 DUP7 ADD DUP7 MSTORE PUSH32 0x20122B46B0DCAAFC4C9314D175DB451D74ECC95311C2FCC503D2266B088BE465 DUP2 MSTORE PUSH32 0x768322A603199A0213427C8867D12682041CE7792DB0F2E0ED584694A11D969 DUP2 DUP7 ADD MSTORE DUP4 DUP6 ADD MSTORE DUP6 DUP5 ADD SWAP3 SWAP1 SWAP3 MSTORE DUP4 MLOAD DUP1 DUP3 ADD DUP6 MSTORE PUSH32 0x31BB51A585A804098B303E154BC61ADF43FCD469D9CBD0523B26E04DF37ADF4 DUP2 DUP7 ADD SWAP1 DUP2 MSTORE PUSH32 0x2A18127713902BE513DFAB4EED2BE18A3D2566EA203D0EFC7284DF8EFA543EFC DUP3 DUP6 ADD MSTORE DUP2 MSTORE DUP5 MLOAD DUP1 DUP7 ADD DUP7 MSTORE PUSH32 0x16A73020E2B4218CDB0EB99E5705DE44049FC19B080FB110AF69662A09D429B1 DUP2 MSTORE PUSH32 0x22832C057DE9C33B6320C41F47543332FFA42986707B79432A167EAFE30B6566 DUP2 DUP7 ADD MSTORE DUP2 DUP6 ADD MSTORE DUP6 DUP6 ADD MSTORE DUP4 MLOAD DUP1 DUP3 ADD DUP6 MSTORE PUSH31 0x7BA358754936611836C57F59DE131E2DEF755667C358D3D91EF96CDCCC54F9 DUP2 DUP7 ADD SWAP1 DUP2 MSTORE PUSH32 0xBF47CA9B245CF5AB436DC09BFE8475CEE9687613F1092237E51CBED5BC2A69A DUP3 DUP6 ADD MSTORE DUP2 MSTORE DUP5 MLOAD DUP1 DUP7 ADD DUP7 MSTORE PUSH32 0x18695BEB2D0C3E5436878661581C440AFDD7F8918603FADCEF37D3637649A4C2 DUP2 MSTORE PUSH31 0x4BB4A8FCDF8C6CD0F6E8F5FA1D050558DCD374A49927AE57418ED1552D28CC DUP2 DUP7 ADD MSTORE DUP2 DUP6 ADD MSTORE DUP3 DUP7 ADD MSTORE DUP4 MLOAD DUP1 DUP6 ADD DUP6 MSTORE PUSH32 0x2EC4C17CF1DA044EE1BAFF19F8A0814919A4E02C0A885345ECBB90E9FF360A87 DUP2 MSTORE PUSH32 0x355D6D91F51ED22E16BD16F5A72E2B9A290A7BF854B76A8CBBB821EEF9ED56D DUP2 DUP6 ADD MSTORE DUP2 DUP7 ADD DUP1 MLOAD SWAP2 SWAP1 SWAP2 MSTORE DUP5 MLOAD DUP1 DUP7 ADD DUP7 MSTORE PUSH32 0x25E424DBDA71F2915D223B5CE85CF81B82A2460CEA6D6C9ED2D65F11083F401B DUP2 MSTORE PUSH32 0xC67C2AA29A2EF3C382E5A3B6C8CA818A330764DF92CF4549827DCB6FB3C15F1 DUP2 DUP7 ADD MSTORE DUP2 MLOAD DUP6 ADD MSTORE DUP5 MLOAD DUP1 DUP7 ADD DUP7 MSTORE PUSH32 0x220677677112AA66D31844AF97DF144AE2E1ABB645FA370BC1756E193F51F341 DUP2 MSTORE PUSH32 0x524A07BE283DD6C74140C3697A9089B85BCD5885BB9F10C573410B77795D018 DUP2 DUP7 ADD MSTORE DUP2 MLOAD DUP7 ADD MSTORE DUP5 MLOAD DUP1 DUP7 ADD DUP7 MSTORE PUSH32 0x17B7DAF5C3321CEF8A2E74583CF365FD23C6AD7688AC9002A42D1DD7EAB4C4A DUP2 MSTORE PUSH32 0x1EBB1546FE094EE7E67D15BA2112BD4E3D0CE1A482D0477BC65FFD6481EB939E DUP2 DUP7 ADD MSTORE DUP2 MLOAD SWAP1 SWAP4 ADD SWAP3 SWAP1 SWAP3 MSTORE DUP4 MLOAD DUP1 DUP6 ADD DUP6 MSTORE PUSH32 0x3B08A5D237F7D4536BEFBCB5B98A3066885D05B87D014D9B9472F31C61C7BD4 DUP2 MSTORE PUSH32 0x183D5D182019A2727ABBA61C91CDEE18BB17925855B09F8841B936A40AC470A5 DUP2 DUP6 ADD MSTORE DUP3 MLOAD SWAP1 SWAP2 ADD MSTORE DUP3 MLOAD DUP1 DUP5 ADD DUP5 MSTORE PUSH32 0x1FEEFC5F3E46E064003C9F42B1669D2D3B2D09C3BFEB0149E2411F1FCD512B3E DUP2 MSTORE PUSH32 0x1032FCD1694F13756A6F350408B5C438255F1F6035923FA25CAAEB52127369CF DUP2 DUP5 ADD MSTORE DUP2 MLOAD PUSH1 0xA0 ADD MSTORE DUP3 MLOAD DUP1 DUP5 ADD DUP5 MSTORE PUSH32 0xB7C57164C018CFDEDDC86A165A1638AFB464D0204003E84D1AE8014D93BB1C1 DUP2 MSTORE PUSH32 0x1CA3C26CB5FDECC37600EA83374D3E8F0D3FD00962EE3A14563B5EE894370A5C DUP2 DUP5 ADD MSTORE DUP2 MLOAD PUSH1 0xC0 ADD MSTORE DUP3 MLOAD DUP1 DUP5 ADD DUP5 MSTORE PUSH32 0xB161AC82B4A4BD9F3D7A40175EEE903D5319FDC15F1B75F36A0F321625300E5 DUP2 MSTORE PUSH32 0x564E9A636A35B8CCDF8D8005DC9897DD765814D502EE514F591DEFE31238B11 DUP2 DUP5 ADD MSTORE DUP2 MLOAD PUSH1 0xE0 ADD MSTORE DUP3 MLOAD DUP1 DUP5 ADD DUP5 MSTORE PUSH32 0x978889721E072B413126DD18ED0D9622BA5C6EE7BF637A4B4779F55BBE127D3 DUP2 MSTORE PUSH32 0xF0737948D308B4118DBC7D4F912EACEF7DC4C2D60F40E32A40C3048250C3B26 DUP2 DUP5 ADD MSTORE DUP2 MLOAD PUSH2 0x100 ADD MSTORE DUP3 MLOAD DUP1 DUP5 ADD DUP5 MSTORE PUSH32 0x3E6AFCCD7C5E7A73F56B50FEA257A37840A134C48D2BA1E443B145CD0FEB5BD DUP2 MSTORE PUSH32 0x259B20C8451A09BF1699CB7AB29D6A5A3309D71D85B87DEE6443217FCA2493EB DUP2 DUP5 ADD MSTORE DUP2 MLOAD PUSH2 0x120 ADD MSTORE DUP3 MLOAD DUP1 DUP5 ADD DUP5 MSTORE PUSH32 0xA3EC6C6FAC9A09F70423DC8D0608C3975112028FBD10121CADF608EF84F8437 DUP2 MSTORE PUSH32 0x225F0E869DD56151F28B78C469E5640AAD842E28AA19C8B47519CB328C689E4C DUP2 DUP5 ADD MSTORE DUP2 MLOAD PUSH2 0x140 ADD MSTORE DUP3 MLOAD DUP1 DUP5 ADD DUP5 MSTORE PUSH32 0x6010653AAB5B614D198038B044199CD1D3AB65ECE683704BC28EAA15EECC1E7 DUP2 MSTORE PUSH32 0x12130D51D53E5E4D081C7AB2818A5D2E39A0509749B9C0482F582D8A5D7FF3E9 DUP2 DUP5 ADD MSTORE DUP2 MLOAD PUSH2 0x160 ADD MSTORE DUP3 MLOAD DUP1 DUP5 ADD DUP5 MSTORE PUSH32 0x2C7C740DA3E4EA99844934A2742C370594145A550B5B178672F7DE83812F1186 DUP2 MSTORE PUSH32 0x2EA95AFA9E016096DB0090F303305A5816A3938CF64EDC0366705F4F29266904 DUP2 DUP5 ADD MSTORE DUP2 MLOAD PUSH2 0x180 ADD MSTORE DUP3 MLOAD DUP1 DUP5 ADD DUP5 MSTORE PUSH32 0x1AF6EB732AFD3F5B9590C9D460FD7C83F84D168D8FE6AF7045AD4177245F2953 DUP2 MSTORE PUSH32 0x2F5478943D0F17DDC51B5130DF8B9CDD71B59723C07707F97C6B450AF12D0EA9 DUP2 DUP5 ADD MSTORE DUP2 MLOAD PUSH2 0x1A0 ADD MSTORE DUP3 MLOAD DUP1 DUP5 ADD DUP5 MSTORE PUSH32 0xBBDAE843DFA8D7AAAEEC9F933F504851A0CE51ABC25891C5D3E7F225CEB5431 DUP2 MSTORE PUSH32 0x1E313E38813E501799E442ADD69DB53E1CA3CAEE2829276624BEA8EAFC693CE8 DUP2 DUP5 ADD MSTORE DUP2 MLOAD PUSH2 0x1C0 ADD MSTORE DUP3 MLOAD DUP1 DUP5 ADD DUP5 MSTORE PUSH32 0xB8F51A4881A0A3EA8AF8205EEC033A3BD8AA4C7DBA2784ECCEE204A7D48F938 DUP2 MSTORE PUSH32 0x25BE1B6FFB68F19739480266D3501FFBDE5ACCBE77CF3BD195F2B97AD9DA54CE DUP2 DUP5 ADD MSTORE DUP2 MLOAD PUSH2 0x1E0 ADD MSTORE DUP3 MLOAD DUP1 DUP5 ADD DUP5 MSTORE PUSH32 0x2F4BD4E24550EBB662D670889D8DD0D5C6106E211E08AEAB153B09A567E82AD0 DUP2 MSTORE PUSH32 0x2C28C7CB034E95425133C10434696395206ACEAFADB67EAA383CA50E3FCBA3F5 DUP2 DUP5 ADD MSTORE DUP2 MLOAD PUSH2 0x200 ADD MSTORE DUP3 MLOAD DUP1 DUP5 ADD DUP5 MSTORE PUSH32 0x2198430E9B9D5FEE9B00FDE7C7E421DC927755BB54E61F0C964492F9207D756E DUP2 MSTORE PUSH32 0xC08EA1EB96D1E99E12D8FFD0A667C3F2DFFEB92130CB96B5F02FA7688989E88 DUP2 DUP5 ADD MSTORE DUP2 MLOAD PUSH2 0x220 ADD MSTORE DUP3 MLOAD DUP1 DUP5 ADD DUP5 MSTORE PUSH32 0x11F51AD0D3E6E31483DB5ABB0D080BFA5FAD382727BB003EDF3CB0C20CD3160 DUP2 MSTORE PUSH32 0x2BF2A4711BD3FA4B680F7DB01576DB1CF0D7708749EC3A711301B5886082B289 DUP2 DUP5 ADD MSTORE DUP2 MLOAD PUSH2 0x240 ADD MSTORE DUP3 MLOAD DUP1 DUP5 ADD DUP5 MSTORE PUSH32 0x114105E6F0547D7369B0B47C2D9739C7E32C000EF1097CCDE1BDFF97801942DA DUP2 MSTORE PUSH32 0x2DDFDE1003B4759B6EA02F63DDF1D445E5285CC662D1F0ECFD192E03A609D0EB DUP2 DUP5 ADD MSTORE DUP2 MLOAD PUSH2 0x260 ADD MSTORE DUP3 MLOAD DUP1 DUP5 ADD DUP5 MSTORE PUSH32 0x92521F91BF0F6B9418EBCC265C0D5047990754759C1B010275C1F33FF14CEA3 DUP2 MSTORE PUSH32 0x160C9A0BCDCF07319B43A70A4B8AC54DDCFD66C3D6080EFE7153126A1E6EAC8E DUP2 DUP5 ADD MSTORE DUP2 MLOAD PUSH2 0x280 ADD MSTORE DUP3 MLOAD DUP1 DUP5 ADD DUP5 MSTORE PUSH32 0x106E23EB3D83B851667980FEFEFF8CB812570D6348DD07E5D2DC84C3494B3EE2 DUP2 MSTORE PUSH32 0xC4D2259ED85D97936DF568139221044479C18590D6D945DE67698CD6506EE5B DUP2 DUP5 ADD MSTORE DUP2 MLOAD PUSH2 0x2A0 ADD MSTORE DUP3 MLOAD DUP1 DUP5 ADD DUP5 MSTORE PUSH32 0x228C8E01724601A1D54980E53FBA51433EA48AE132861CE3C6FFAE92EE14ACE9 DUP2 MSTORE PUSH31 0x83553F9733BB0544BEF4D1E94A46BA7CDA69DF7BB9E279240D1620FBECF3B DUP2 DUP5 ADD MSTORE DUP2 MLOAD PUSH2 0x2C0 ADD MSTORE DUP3 MLOAD DUP1 DUP5 ADD DUP5 MSTORE PUSH32 0x1C793851DEAC3D60CE47BFB8C748B3FE78F41DC19C6EE32A73ED2E8E2D5BE568 DUP2 MSTORE PUSH32 0xCFDF57313C36B3F1BFE89F0AD056CC6F03B9EA5637E813F52C07DC2D4D02F66 DUP2 DUP5 ADD MSTORE DUP2 MLOAD PUSH2 0x2E0 ADD MSTORE DUP3 MLOAD DUP1 DUP5 ADD DUP5 MSTORE PUSH32 0x23D471BE360B05A510D9C1C4DDC98C0D6897D2CF8B00594B6ABF204B958677E5 DUP2 MSTORE PUSH32 0x2F75666587A62640739CB446B383E1CE4B30E080E0BB457424F8C56127066244 DUP2 DUP5 ADD MSTORE DUP2 MLOAD PUSH2 0x300 ADD MSTORE DUP3 MLOAD DUP1 DUP5 ADD DUP5 MSTORE PUSH32 0x2F58CBA3DBF4B60D4023783FC0586CEC4966B97A7CEA92E4C685E603F66340CE DUP2 MSTORE PUSH32 0x2A40E644B037129DD28317BA150AE8C8DE29C32CBE86E4AD187836DCDF4E1A1A DUP2 DUP5 ADD MSTORE DUP2 MLOAD PUSH2 0x320 ADD MSTORE DUP3 MLOAD DUP1 DUP5 ADD DUP5 MSTORE PUSH32 0x291D92896A392CEA4443898511D35CBB64FA5698D928B25E45F31B75967AF6BB DUP2 MSTORE PUSH32 0x115A2F821DB38AB6E6EB9614A45454080686FEFA10CCC1E793610F8BB2D3F1BC DUP2 DUP5 ADD MSTORE DUP2 MLOAD PUSH2 0x340 ADD MSTORE DUP3 MLOAD DUP1 DUP5 ADD DUP5 MSTORE PUSH32 0x1DCC4F9E7A039E20B4533CF147F753D1B75B8D81F59854741EDC90DFCE810DFF DUP2 MSTORE PUSH32 0x2860EA3875CB46992E6CD37B9AA426775E9AAFCBFF2A2E168D01379D775CD30 DUP2 DUP5 ADD MSTORE DUP2 MLOAD PUSH2 0x360 ADD MSTORE DUP3 MLOAD DUP1 DUP5 ADD DUP5 MSTORE PUSH32 0x22DCFB465F06BF1E5DAA8A0F94702F88600C47F8CA99B95E435C021A03E47B68 DUP2 MSTORE PUSH32 0x18691592FFAF19461A75E7F2F2D86AE0EF6C5A85E1D522D5AFDC0203FAFA50E4 DUP2 DUP5 ADD MSTORE DUP2 MLOAD PUSH2 0x380 ADD MSTORE DUP3 MLOAD DUP1 DUP5 ADD DUP5 MSTORE PUSH32 0xDF7694B00703BF609B28E2C67F3E2866E728C9AAE7CA91B5EC72D29858A6493 DUP2 MSTORE PUSH32 0x24725373C5CABFF832BEA5ED6274954E9F1B156046F61DA26F33FBE309FD127C DUP2 DUP5 ADD MSTORE DUP2 MLOAD PUSH2 0x3A0 ADD MSTORE DUP3 MLOAD DUP1 DUP5 ADD DUP5 MSTORE PUSH32 0x969706ADFA835B59D21B7373D67A9FE278A0E8320B4112B517B784A54DFE7C4 DUP2 MSTORE PUSH32 0x1A3F9F6ED2B5C40CB027557DF0D8038B015732879C7E0834D268AAD077CE9D32 DUP2 DUP5 ADD MSTORE DUP2 MLOAD PUSH2 0x3C0 ADD MSTORE DUP3 MLOAD DUP1 DUP5 ADD DUP5 MSTORE PUSH32 0xF643E3E146A77192198F4EE31402ABF23C9194C73BB4145FD05A15101BA8255 DUP2 MSTORE PUSH32 0x7D8551E9D7CA02D77CEFE060957138F2789F72115CB4804C6A2C2B443985487 DUP2 DUP5 ADD MSTORE DUP2 MLOAD PUSH2 0x3E0 ADD MSTORE DUP3 MLOAD DUP1 DUP5 ADD DUP5 MSTORE PUSH32 0x2EB4FB7FE5AE81A80C269AB5A4F93727808304A088409123E56B4E7758FFE61F DUP2 MSTORE PUSH32 0x155E65F00696AC638EF74E5B637EA77A08CFDE4BDA9EBE000341C700703BC9B7 DUP2 DUP5 ADD MSTORE DUP2 MLOAD PUSH2 0x400 ADD MSTORE DUP3 MLOAD DUP1 DUP5 ADD DUP5 MSTORE PUSH32 0x91F8C3F602EF1BC526FF9BE6B22E49861A3D73BBB8FBF0F6DA7EE8D4202F44B DUP2 MSTORE PUSH32 0x1D9A6B392EB9E793CEC00FB4B453D9C2F9FA9F2B46A09D56CD14C30C14EA8C61 DUP2 DUP5 ADD MSTORE DUP2 MLOAD PUSH2 0x420 ADD MSTORE DUP3 MLOAD DUP1 DUP5 ADD DUP5 MSTORE PUSH32 0x146C18C6F1D3CD6123DE62F79167D587445C7E0ED02EAF652915BD7CB35845C2 DUP2 MSTORE PUSH32 0x1B96EF77B32BF4FDD340235B3082DA16040EE060015264ED3259E0803987E958 DUP2 DUP5 ADD MSTORE DUP2 MLOAD PUSH2 0x440 ADD MSTORE DUP3 MLOAD DUP1 DUP5 ADD DUP5 MSTORE PUSH31 0x505E6C6FB7DDCF0447DA5C8A7DD2827D619997E4A3CDFFD624885F37A2D3BF DUP2 MSTORE PUSH32 0x4516E012CE58CEBF4A8C134D676AA05598587CB26983BDCB00FEF5987A0CA92 DUP2 DUP5 ADD MSTORE DUP2 MLOAD PUSH2 0x460 ADD MSTORE DUP3 MLOAD DUP1 DUP5 ADD DUP5 MSTORE PUSH32 0x1A0C2CD9F44EA009241179E50FFBB209B1BFD7A44F7F59C4E9FFAAD821DA6441 DUP2 MSTORE PUSH32 0x170DE9874FD625EE897D47B4A8F49B4F08CD478369C0DD327CDEF393C404D10A DUP2 DUP5 ADD MSTORE DUP2 MLOAD PUSH2 0x480 ADD MSTORE DUP3 MLOAD DUP1 DUP5 ADD DUP5 MSTORE PUSH32 0x102F732DE3E536D52E651EC54308658D7934B9BEDC8BE3BD12E975A98772D1FD DUP2 MSTORE PUSH32 0x2FEA3A6235D9EE84B93C81C8C96528E984AE8CEB840DADEB648B0DED88C1B712 DUP2 DUP5 ADD MSTORE DUP2 MLOAD PUSH2 0x4A0 ADD MSTORE DUP3 MLOAD DUP1 DUP5 ADD DUP5 MSTORE PUSH32 0x23073CDEBB56BB2D5D10D2343BA59AEA07B0BEFD1D930534797B4410F3FA6122 DUP2 MSTORE PUSH32 0x28549D140104DC3B1FF7F2FA9536AF4AB9CBB6B995B752ACB02D82A7189F2E57 DUP2 DUP5 ADD MSTORE DUP2 MLOAD PUSH2 0x4C0 ADD MSTORE DUP3 MLOAD DUP1 DUP5 ADD DUP5 MSTORE PUSH32 0x2C40FDC89C1577F90D09E89C7F5DA97E94A0854A5505025FE883A70340A560C9 DUP2 MSTORE PUSH32 0x2E69FA5AF52434AB1D96F1713FB6FEE06FC67F87303DEF2C0128AD124FAAAE9B DUP2 DUP5 ADD MSTORE DUP2 MLOAD PUSH2 0x4E0 ADD MSTORE DUP3 MLOAD DUP1 DUP5 ADD DUP5 MSTORE PUSH32 0x21E7246798554424213B607F2BCFBC3B59211F464EEB5796E63528A6E5211A05 DUP2 MSTORE PUSH32 0x183EA76497248AB16F1084782130E81FC6BD0ACA9EC6A1F6D1A14D15864516F DUP2 DUP5 ADD MSTORE DUP2 MLOAD PUSH2 0x500 ADD MSTORE DUP3 MLOAD DUP1 DUP5 ADD DUP5 MSTORE PUSH32 0x2E1CBB2F46B56A2B85859B2552C9D1FA9FDE60B2AEF59B745E23BCFDCE17A08 DUP2 MSTORE PUSH32 0x1EBE20AC90FB602F0DF0CC743325AD1E70E0DB304AC5CBF27D4C295ACF6851F2 DUP2 DUP5 ADD MSTORE DUP2 MLOAD PUSH2 0x520 ADD MSTORE DUP3 MLOAD DUP1 DUP5 ADD DUP5 MSTORE PUSH32 0x1F70F894FB504E58FFD9E7843AFE930D4E6318BCEA4EC608603B508249FF8A34 DUP2 MSTORE PUSH32 0x863302F165F95C28B4ADE6AD6436C4381DC8D068892F4A78E71CD79A1F8D80A DUP2 DUP5 ADD MSTORE DUP2 MLOAD PUSH2 0x540 ADD MSTORE DUP3 MLOAD DUP1 DUP5 ADD DUP5 MSTORE PUSH32 0x1A291CA381B1C66AF09BE5BB1800F6033E5438D5CF0B2C802FAC66A5A032688A DUP2 MSTORE PUSH32 0x20CC3BB414AFC6A14FE137CB91BF1D553EAD5B92C046A789EBE4F1CB07D25B21 DUP2 DUP5 ADD MSTORE DUP2 MLOAD PUSH2 0x560 ADD MSTORE DUP3 MLOAD DUP1 DUP5 ADD DUP5 MSTORE PUSH32 0x26FF57FADA479CD8729018B42B5515991B0354B860D85C25483765C7B8CC7AE0 DUP2 MSTORE PUSH32 0x133ED6969D168A4D3D8E7330DB5B37FF34964D8CA09C9BA05399FDAB68C87CA0 DUP2 DUP5 ADD MSTORE DUP2 MLOAD PUSH2 0x580 ADD MSTORE DUP3 MLOAD DUP1 DUP5 ADD DUP5 MSTORE PUSH32 0xBB81286528BE8897B1448173A9D33DF05305DEAC03BCA028BD537E424005346 DUP2 MSTORE PUSH32 0x22F27D3D72AF363CDA19CD524679D160F49B2A394F616EE1E85451EC6AA2D5B0 DUP2 DUP5 ADD MSTORE DUP2 MLOAD PUSH2 0x5A0 ADD MSTORE DUP3 MLOAD DUP1 DUP5 ADD DUP5 MSTORE PUSH32 0x250DA7A61C11E27A1710CED6F63D9F1FA63B4DA168364C47A94EF2CF1CCFCE39 DUP2 MSTORE PUSH32 0x1ACB7039F4D6F0E454DE074413C9AA7107CCC25782D2B8B4C27F7EDC60EC2ABE DUP2 DUP5 ADD MSTORE DUP2 MLOAD PUSH2 0x5C0 ADD MSTORE DUP3 MLOAD DUP1 DUP5 ADD DUP5 MSTORE PUSH32 0x7D7508F11E8E5E186B9EF49D21C0AA01849AC6BBC28926DE0A594FCC57BBFC2 DUP2 MSTORE PUSH32 0x117713FC920CA16B3986030B8ACFFD71A477D777C5216E2D51AE4FE042DF5340 DUP2 DUP5 ADD MSTORE DUP2 MLOAD PUSH2 0x5E0 ADD MSTORE DUP3 MLOAD DUP1 DUP5 ADD DUP5 MSTORE PUSH32 0x1BA8F79E38128470E10F26377B0D00399D8E7737EDE0F75755EAD7D6CBA909C7 DUP2 MSTORE PUSH32 0x27A8B94C91BE9BEB1E23A1C8FF2EDF7E2D23C15E05D355A088F928E947F8F709 DUP2 DUP5 ADD MSTORE DUP2 MLOAD PUSH2 0x600 ADD MSTORE DUP3 MLOAD DUP1 DUP5 ADD DUP5 MSTORE PUSH32 0x170357F93499FD90D850400EF669D7ACD8B5599E2674B4580CE6FC847ECDBF4B DUP2 MSTORE PUSH32 0x1AFDC4B6A3169FC3080717EAC203BE3D3595AE5E8F5A5CDFE382AE06DADF7CB2 DUP2 DUP5 ADD MSTORE DUP2 MLOAD PUSH2 0x620 ADD MSTORE DUP3 MLOAD DUP1 DUP5 ADD DUP5 MSTORE PUSH32 0x2A2E4BBE064CD070F6019C82256C24CC18F202E95748161B31C6D65F2A712F96 DUP2 MSTORE PUSH32 0x19624C87B288EC47FAF9808BDAA13806509CE45BB24531DD32D510DAEE897828 DUP2 DUP5 ADD MSTORE DUP2 MLOAD PUSH2 0x640 ADD MSTORE DUP3 MLOAD DUP1 DUP5 ADD DUP5 MSTORE PUSH32 0xC8811542EAD6C353C07F13645DCAFA41704D56F78C386E2F14E602590E52145 DUP2 MSTORE PUSH32 0x480B911F59601903F9E0F0733E2CF9946F1FE769E8384F00DAA116AC5A65A4A DUP2 DUP5 ADD MSTORE DUP2 MLOAD PUSH2 0x660 ADD MSTORE DUP3 MLOAD DUP1 DUP5 ADD DUP5 MSTORE PUSH32 0x1765B36A2BCB01F57D64B02ADF8743387EA8BBBF8B373CA6C34A501AABB6BE83 DUP2 MSTORE PUSH32 0xBB91D6AD3C8FECB6D7C225245F6237EBAD87E00AE5D8A80D2121010C1835685 DUP2 DUP5 ADD MSTORE DUP2 MLOAD PUSH2 0x680 ADD MSTORE DUP3 MLOAD DUP1 DUP5 ADD DUP5 MSTORE PUSH32 0x17CBE69834A73F25AE1947E0BF801071FA04A5BB99E341A9D698421FF8E7A4F3 DUP2 MSTORE PUSH32 0x516AA3A7233F447B462BA0EEED255FA7098444D79E65CF8D36D47A64A2F2F75 DUP2 DUP5 ADD MSTORE DUP2 MLOAD PUSH2 0x6A0 ADD MSTORE DUP3 MLOAD DUP1 DUP5 ADD DUP5 MSTORE PUSH32 0x1F26C1CA06184FDDAB178A4907C88CC3CA56551EEF0FF22CC9C07110F3FCAD0C DUP2 MSTORE PUSH32 0xDC128BDCDD5BED6D10E09653A8EB9B295CFC51C8310D80B1B2664A665F7959A DUP2 DUP5 ADD MSTORE DUP2 MLOAD PUSH2 0x6C0 ADD MSTORE DUP3 MLOAD DUP1 DUP5 ADD DUP5 MSTORE PUSH32 0x1CB22ABF6494C3A4F5243E339C9CDD5B30D8EA1B14AD3A3407BE3C5BC4788703 DUP2 MSTORE PUSH32 0x2A732A18E58B2F9FF992ACBF4FFA4741BA58DA80DF879E839E474B6DF8CC0D3B DUP2 DUP5 ADD MSTORE DUP2 MLOAD PUSH2 0x6E0 ADD MSTORE DUP3 MLOAD DUP1 DUP5 ADD DUP5 MSTORE PUSH32 0x269BDF88F6186C1A5AD44383866E058145229804782468F44DE5940BDEDD56B9 DUP2 MSTORE PUSH32 0xA42557FE06D2F2842FBD085B3A18C6BCAA548CF17EFA4CEF3465DF39B6B56CA DUP2 DUP5 ADD MSTORE DUP2 MLOAD PUSH2 0x700 ADD MSTORE DUP3 MLOAD DUP1 DUP5 ADD DUP5 MSTORE PUSH32 0xB1D0A4E0E45349F00DAC001DFEFB47D352383831D6334E5ED6AB3A97954FAC1 DUP2 MSTORE PUSH32 0x83D4C2CFF386937BBD1B8A7F96472ED9D788AE2A54104743AC5E87BC5F81119 DUP2 DUP5 ADD MSTORE DUP2 MLOAD PUSH2 0x720 ADD MSTORE DUP3 MLOAD DUP1 DUP5 ADD DUP5 MSTORE PUSH32 0x16FF1DDA23BB49B8CDCC353BE0755F523219A720B0295D276A0BAD2406302A4F DUP2 MSTORE PUSH32 0x297407036796B5606DF67400A82EBA5DCC10ABEC6BD51482018765DE1FE112EC DUP2 DUP5 ADD MSTORE DUP2 MLOAD PUSH2 0x740 ADD MSTORE DUP3 MLOAD DUP1 DUP5 ADD DUP5 MSTORE PUSH32 0x13AD879AF3742C10F4E962316CBB034B6BD1768386C50BD9F90D650E24B18D1D DUP2 MSTORE PUSH32 0x27CF6013B1A03BFA5E4018E61006F8F4671E3DD5167D6271EDC91F5AF80177A4 DUP2 DUP5 ADD MSTORE DUP2 MLOAD PUSH2 0x760 ADD MSTORE DUP3 MLOAD DUP1 DUP5 ADD DUP5 MSTORE PUSH32 0xAE2532A45B286D56F45E60F56EC584424035823263CFF7569E74EB02D0895FA DUP2 MSTORE PUSH32 0x28BB7A23FFDCC30F4FDFDE61102E2A6CCEC2B4A339324BA6EF4054E47D1B5961 DUP2 DUP5 ADD MSTORE DUP2 MLOAD PUSH2 0x780 ADD MSTORE DUP3 MLOAD DUP1 DUP5 ADD DUP5 MSTORE PUSH32 0x12C8FFB9D024210EECA3A2C92384817828BD094B51E6AC7EA62C3469557121E2 DUP2 MSTORE PUSH32 0x9B3B58B0395B189706DD7E5A5CDCB7AFD26C74B8DA9D4C00F6813EA5C724A99 DUP2 DUP5 ADD MSTORE DUP2 MLOAD PUSH2 0x7A0 ADD MSTORE DUP3 MLOAD DUP1 DUP5 ADD DUP5 MSTORE PUSH32 0xF11072F09CE366CE37079260C31CF72CB3E3BE13EBBF663D1114367A9D80F8C DUP2 MSTORE PUSH31 0x72CEEE3EBC2AAA95D452E59460CE4F4DF13ADE8E34E4E2F70B891316D46CE7 DUP2 DUP5 ADD MSTORE DUP2 MLOAD PUSH2 0x7C0 ADD MSTORE DUP3 MLOAD DUP1 DUP5 ADD DUP5 MSTORE PUSH32 0x1578D6A9D77C8DD2983DF929013E60D9FA25EC230900A4F41AAC59EAAEE5B5C3 DUP2 MSTORE PUSH32 0x2376C9E3CBB8149BB7638D2BF3B7BE5414DEDE21FBF577CAD1B16323F7640903 DUP2 DUP5 ADD MSTORE DUP2 MLOAD PUSH2 0x7E0 ADD MSTORE DUP3 MLOAD DUP1 DUP5 ADD DUP5 MSTORE PUSH32 0x106C6C787CE2E0F2D8160ABB76FF0ACA8307C7CA91A61084BB1D6C501DDAD43 DUP2 MSTORE PUSH32 0x2874B8DA4D0F8955FB5885CA0D43CC5C251A2CDD88BA8EAE149C65B63ADBBB5F DUP2 DUP5 ADD MSTORE DUP2 MLOAD PUSH2 0x800 ADD MSTORE DUP3 MLOAD DUP1 DUP5 ADD DUP5 MSTORE PUSH32 0x26BDC1AA523C5F37184E88216C0BA8E85CE96FF5317B658F5F5527CAB045011 DUP2 MSTORE PUSH32 0x53E8082E97A65002EB6E3962571B6F9A441091361788506918D45C6EAA0D8CC DUP2 DUP5 ADD MSTORE DUP2 MLOAD PUSH2 0x820 ADD MSTORE DUP3 MLOAD DUP1 DUP5 ADD DUP5 MSTORE PUSH32 0x2F868F383470888530F4FD67E6B0437AB3F4D3271493B4B4E53AFC673D8563D3 DUP2 MSTORE PUSH32 0x1480A3AD94D6CF3F2F0182F92A53CCD01284AC6AC637414487DAFF26278923D DUP2 DUP5 ADD MSTORE DUP2 MLOAD PUSH2 0x840 ADD MSTORE DUP3 MLOAD DUP1 DUP5 ADD DUP5 MSTORE PUSH32 0x29C2100E867D334787C65389B3218FC09A82FFA20FBBDBBCDAB1C138E73B0273 DUP2 MSTORE PUSH32 0x2A96D20EA6E09AADDA3564F1F21A419252018C606A69938BE6FA664238BE0A00 DUP2 DUP5 ADD MSTORE DUP2 MLOAD PUSH2 0x860 ADD MSTORE DUP3 MLOAD DUP1 DUP5 ADD DUP5 MSTORE PUSH32 0x208920716854189C788057D9B16FD69DFAAE032D9E7D4548AF3ADF3C7B739022 DUP2 MSTORE PUSH32 0x1DA43127B570FEF6FA8D34570B8F704F8C7A751CB1AF172DAF93AEC77E8AAD0E DUP2 DUP5 ADD MSTORE DUP2 MLOAD PUSH2 0x880 ADD MSTORE DUP3 MLOAD DUP1 DUP5 ADD DUP5 MSTORE PUSH32 0x13ADC92E05395345D1E75ACA6ADC1384AB69BC7949149191B644B1EF044487AC DUP2 MSTORE PUSH32 0x28670C85263B4B5428F61EF48EFFF595DCEA6304C550CAC60613931304B112F3 DUP2 DUP5 ADD MSTORE DUP2 MLOAD PUSH2 0x8A0 ADD MSTORE DUP3 MLOAD DUP1 DUP5 ADD DUP5 MSTORE PUSH32 0x1AE68705509FEB9B693700439443EE8EC10337FF5FC3390E15932C240A34CE3E DUP2 MSTORE PUSH32 0x14106FF2E48A15D09A68AA58018347E93105B8A33E9B779367C10BF4B902094E DUP2 DUP5 ADD MSTORE DUP2 MLOAD PUSH2 0x8C0 ADD MSTORE DUP3 MLOAD DUP1 DUP5 ADD DUP5 MSTORE PUSH32 0x48DD066C91767F7A1747F768879E0A3C5FBCB565E4824F923D59CDFA7EC0BA3 DUP2 MSTORE PUSH32 0x5C429AE90E026A5A11ED579CBA9374143B91042721A9675C4B2C389728A56DA DUP2 DUP5 ADD MSTORE DUP2 MLOAD PUSH2 0x8E0 ADD MSTORE DUP3 MLOAD DUP1 DUP5 ADD DUP5 MSTORE PUSH32 0x176EE044DAC18A43FE8628B0E1BF60A8F1FD5D75D442D3DB9857B182842CFF1B DUP2 MSTORE PUSH32 0x1483E9AC3F1E07E0C416988583F9C772A13AC3212710C8E03976D1C34A058942 DUP2 DUP5 ADD MSTORE DUP2 MLOAD PUSH2 0x900 ADD MSTORE DUP3 MLOAD DUP1 DUP5 ADD DUP5 MSTORE PUSH32 0x290FA44198848E9B571CBD1FB43E709CA23BC653CA0D288FA09A6E59428B9926 DUP2 MSTORE PUSH32 0x97178C2C182F8E427DEEBDE8898A11B9772730BC56E5EA5FB03C5553E8E0B21 DUP2 DUP5 ADD MSTORE DUP2 MLOAD PUSH2 0x920 ADD MSTORE DUP3 MLOAD DUP1 DUP5 ADD DUP5 MSTORE PUSH32 0x2D84A09444665D7A80773D8DAD4B0605FCC7C4D2B9CAF8BB92321AC302F8A98F DUP2 MSTORE PUSH32 0x1F6D311B32DBC585F7815782DB713B31253C5CBC881195DDEE91E87CF082D814 DUP2 DUP5 ADD MSTORE DUP2 MLOAD PUSH2 0x940 ADD MSTORE DUP3 MLOAD DUP1 DUP5 ADD DUP5 MSTORE PUSH32 0x4C89F98A848E8D9FE75A77AA0912D6752413131D515F1F9B16D692C86CFACB2 DUP2 MSTORE PUSH32 0x12473E77CC4B5A33365C6C54EF9D5C1B42623E76E2C64FCECE7BAAD6A5CE7974 DUP2 DUP5 ADD MSTORE DUP2 MLOAD PUSH2 0x960 ADD MSTORE DUP3 MLOAD DUP1 DUP5 ADD DUP5 MSTORE PUSH32 0xFE9A1B9390404A294B7432146ACCED2CECF29C61BD490BA96265A64515B7FAB DUP2 MSTORE PUSH32 0x2FCA8F660CFD598A9DA547FAD0B2CBE2E6000ACD5FF4C10452AD1FE37268911F DUP2 DUP5 ADD MSTORE DUP2 MLOAD PUSH2 0x980 ADD MSTORE DUP3 MLOAD DUP1 DUP5 ADD DUP5 MSTORE PUSH32 0x1499671B51167B0AF91591D34E483DE4947A80B5CAE8E590D475C897E1D5C09F DUP2 MSTORE PUSH32 0x14716CF2DB4EFF59EA1ECAA982AC3AECD90E478A10A817ACE4FA6E1A490DAACF DUP2 DUP5 ADD MSTORE DUP2 MLOAD PUSH2 0x9A0 ADD MSTORE DUP3 MLOAD DUP1 DUP5 ADD DUP5 MSTORE PUSH32 0x1D077B5D52CE89F22BAC85B7B1E55BC8EF44D66DA0F124875E8DE932AB38ED74 DUP2 MSTORE PUSH32 0x2AFA5283B5ACBCA69D518A67A452F22DFF37BF1A2861ACE50C721F33047FF901 DUP2 DUP5 ADD MSTORE DUP2 MLOAD PUSH2 0x9C0 ADD MSTORE DUP3 MLOAD DUP1 DUP5 ADD DUP5 MSTORE PUSH32 0x1270FE6CEBC8576348184FC4CFDDF81C22F11D827D6884F7F74FB2BAFDFEC935 DUP2 MSTORE PUSH32 0x8DA87A676634E7EBA441B87725D0998C3DEFCA8919CFB8F89BEA7880ECCF9AC DUP2 DUP5 ADD MSTORE DUP2 MLOAD PUSH2 0x9E0 ADD MSTORE DUP3 MLOAD DUP1 DUP5 ADD DUP5 MSTORE PUSH32 0x282BB41B7C6DE34CEB3D40591D33E69D3E746134CEB4DA69AE5B45D4414A856A DUP2 MSTORE PUSH32 0xF4CE8E8499091018A3333A13B4BF149259FF4D68AC5D35378EDB4AB04925D2B DUP2 DUP5 ADD MSTORE DUP2 MLOAD PUSH2 0xA00 ADD MSTORE DUP3 MLOAD DUP1 DUP5 ADD DUP5 MSTORE PUSH32 0x2063AB2DD1338306ECE13C1D5ED74F3072FDBBD89D2F964DC00A9B42BD3D06E9 DUP2 MSTORE PUSH32 0x5E86EB735A66308E73B6266CF95417860D3778BEBAFF58A04332F89339E1F47 DUP2 DUP5 ADD MSTORE DUP2 MLOAD PUSH2 0xA20 ADD MSTORE DUP3 MLOAD DUP1 DUP5 ADD DUP5 MSTORE PUSH32 0x5975AFC8C6EEEC878F106D36BDABC56674CF124E3869BC3B76E58BD8A3ECBA4 DUP2 MSTORE PUSH32 0x23B71FFDE4ECCF8375F4B87AB26C6D239F8C911FC956607F22CD951A4D460114 DUP2 DUP5 ADD MSTORE DUP2 MLOAD PUSH2 0xA40 ADD MSTORE DUP3 MLOAD DUP1 DUP5 ADD DUP5 MSTORE PUSH32 0x2B120590DEE786DC2A02DB71A8CD5B175AA0234F29CBEC141C0798CEC1BDB2FC DUP2 MSTORE PUSH32 0x76FBAAC2A53E6A6DFEE61956D7950F5FE7C3A59BCC22A5BBA2784119D9D56BB DUP2 DUP5 ADD MSTORE DUP2 MLOAD PUSH2 0xA60 ADD MSTORE DUP3 MLOAD DUP1 DUP5 ADD DUP5 MSTORE PUSH32 0x29F59FF12198F009B95158E75A86FD0CC386AE0AE3811D057DB645AEFF42707C DUP2 MSTORE PUSH32 0x2AEE167556A2015AEB43A06440554B2A13F45C2CD2E86E84101A1ECCDB9FB10 DUP2 DUP5 ADD MSTORE DUP2 MLOAD PUSH2 0xA80 ADD MSTORE DUP3 MLOAD DUP1 DUP5 ADD DUP5 MSTORE PUSH32 0x1FE0577F081AC5DBE5E77A8E75025D10A8893C7A4923417D8B990CA7940C7074 DUP2 MSTORE PUSH32 0xA2833087E01FD7F6D675A0A7E341FB5FD44D25868BA8AB6F6A921FC7E1B5608 DUP2 DUP5 ADD MSTORE DUP2 MLOAD PUSH2 0xAA0 ADD MSTORE DUP3 MLOAD DUP1 DUP5 ADD DUP5 MSTORE PUSH32 0x21B41985D7C2DDF0F3908F74A90CDE2D97CAE51381A4FDC69A6A5CC1E7DFCE52 DUP2 MSTORE PUSH32 0x23F522CC61FA7027B20D5082CAAA19249B6C746EA641A4CD61D8738A156A0A50 DUP2 DUP5 ADD MSTORE DUP2 MLOAD PUSH2 0xAC0 ADD MSTORE DUP3 MLOAD DUP1 DUP5 ADD DUP5 MSTORE PUSH32 0x1DA726D4D32C4E0D3E60E37E21C5B9B99A670E7826AAA3B1A429F915AA1930D6 DUP2 MSTORE PUSH32 0x29812037B9D309D2B9A15CE4F8D3E5A6BFB063002ECB247537A61BC9224D0C18 DUP2 DUP5 ADD MSTORE DUP2 MLOAD PUSH2 0xAE0 ADD MSTORE DUP3 MLOAD DUP1 DUP5 ADD DUP5 MSTORE PUSH32 0x10177EE445F77962E73F1FC3EAD555BBD243E8A8F451E07BB3EB7F6BB4A3BD67 DUP2 MSTORE PUSH32 0x15192B01DCD4DA52DE58FB6F1C93D8A35A53C0C9A7FF6AADF33C98957D89281E DUP2 DUP5 ADD MSTORE DUP2 MLOAD PUSH2 0xB00 ADD MSTORE DUP3 MLOAD DUP1 DUP5 ADD DUP5 MSTORE PUSH32 0x3C762BF2C924DAB8D9039A95C291303C104FF04B640F3802BBE6DB4841CC8D9 DUP2 MSTORE PUSH32 0x938E13EE185263857D13E69DF37201BC3F892ADCE67F161C85AE0BC73B671EF DUP2 DUP5 ADD MSTORE DUP2 MLOAD PUSH2 0xB20 ADD MSTORE DUP3 MLOAD DUP1 DUP5 ADD DUP5 MSTORE PUSH32 0x218F745A63A69D7A42BB79FB63C899A91020015878B22C73505E6DFBB874E220 DUP2 MSTORE PUSH32 0x19BAEDEFEBD2D485AA5C95E8161332410AA8A47E4F52ABDD0A44A6982A0B29E3 DUP2 DUP5 ADD MSTORE DUP2 MLOAD PUSH2 0xB40 ADD MSTORE DUP3 MLOAD DUP1 DUP5 ADD DUP5 MSTORE PUSH32 0x552C193856F15256A754CFF644809DBD5D1F54C0028E97741F2881AA9C17B31 DUP2 MSTORE PUSH32 0x1FF754EDB9294C3062C6A4451FD0036F1672DC005E3F9769EBE66EF07279115B DUP2 DUP5 ADD MSTORE DUP2 MLOAD PUSH2 0xB60 ADD MSTORE DUP3 MLOAD DUP1 DUP5 ADD DUP5 MSTORE PUSH32 0x2468F373FE1EDE9F08D54AFC7E66CFB217964B2BAB21DB86413B8A77E8DC6DF6 DUP2 MSTORE PUSH32 0x2DF5F4F6B9DD4F40F99A50916ABC5D10711CA30E4958590D69E51C9D8FD69003 DUP2 DUP5 ADD MSTORE DUP2 MLOAD PUSH2 0xB80 ADD MSTORE DUP3 MLOAD DUP1 DUP5 ADD DUP5 MSTORE PUSH32 0x8D2E07363D543096496DF2F8A03F74CC2B4B66E99E509990565FED97E76763C DUP2 MSTORE PUSH32 0x8A0BE1F67BCEFAF239F83939DD5D9ECA35D7E684FBDD5B509C3A34DE93B4549 DUP2 DUP5 ADD MSTORE DUP2 MLOAD PUSH2 0xBA0 ADD MSTORE DUP3 MLOAD DUP1 DUP5 ADD DUP5 MSTORE PUSH32 0x33E3A7FF897F88EE05ABBA396C49E43FAFBA2FAD0F748BB39F1CD4B6DC8796B DUP2 MSTORE PUSH32 0x187FDF0BBD95D6E6C0AFDED74B73AC383C9D6EB14068F66881239E9EB117F40E DUP2 DUP5 ADD MSTORE DUP2 MLOAD PUSH2 0xBC0 ADD MSTORE DUP3 MLOAD DUP1 DUP5 ADD DUP5 MSTORE PUSH32 0x22A7F1A01803BE8363D188A8AD5BEFDA8D54E88C5411E05ABB842D2F41F7153C DUP2 MSTORE PUSH32 0x624CE8DA621024D0ACFF9ED6A3977ABAA16A56BE9720F76C1AF44781AD03F76 DUP2 DUP5 ADD MSTORE DUP2 MLOAD PUSH2 0xBE0 ADD MSTORE DUP3 MLOAD DUP1 DUP5 ADD DUP5 MSTORE PUSH32 0x14FD506469A1ED00D3C6B7F3C88068C622EA2416600B0F38FEEB0FF8B869C66B DUP2 MSTORE PUSH32 0x1DFFCA700A14A0306BD9A73CEE71B9AA3512EC8F64F928F2FEF11D6D31A61240 DUP2 DUP5 ADD MSTORE DUP2 MLOAD PUSH2 0xC00 ADD MSTORE DUP3 MLOAD DUP1 DUP5 ADD DUP5 MSTORE PUSH32 0x146F20AD9B94466BD1C5607C22B24C95C6F8C6ACFBBE0C6E069E7D90861D1AA7 DUP2 MSTORE PUSH32 0xE5652F410C5B7BDCFBA0DCC024AE50D0B3A5D83F29EA06401B45970A0C18A7A DUP2 DUP5 ADD MSTORE DUP2 MLOAD PUSH2 0xC20 ADD MSTORE DUP3 MLOAD DUP1 DUP5 ADD DUP5 MSTORE PUSH32 0x35E7B4165861D8C0115DFFD8E8265E92F1A0121A7A652A6FFFA6F8ABEF58972 DUP2 MSTORE PUSH32 0x2682A1D7AEB15D850727D28F08827D2306D9411F997908987A8F3F86F4A2EAC3 DUP2 DUP5 ADD MSTORE DUP2 MLOAD PUSH2 0xC40 ADD MSTORE DUP3 MLOAD DUP1 DUP5 ADD DUP5 MSTORE PUSH32 0x1934068FCBEE73F8C90567B997C2B9D937B1F62777541856F4ADE66538709D15 DUP2 MSTORE PUSH32 0x179714F0BCDEFC5265BC2B063E63B2415701A2AD5D02126AE0AC2BC631E26558 DUP2 DUP5 ADD MSTORE DUP2 MLOAD PUSH2 0xC60 ADD MSTORE DUP3 MLOAD DUP1 DUP5 ADD DUP5 MSTORE PUSH32 0x1FE90E0FA754816D0BEDB3B856942ED45052CBA1D3F35362C79A4E97805EA0C1 DUP2 MSTORE PUSH32 0x785A6BBB290071CA3EEE1001DD19B534839956DFB99E13C1C7685026E169063 DUP2 DUP5 ADD MSTORE DUP2 MLOAD PUSH2 0xC80 ADD MSTORE DUP3 MLOAD DUP1 DUP5 ADD DUP5 MSTORE PUSH32 0x30456C5832528C5358428D1E14850083D17137DAFF16D08B4FF3CF19FD7D4F6B DUP2 MSTORE PUSH32 0x107F882E43D130FFBF82D377049430CF1CF8EBF43A26C2E5714853F73058E41F DUP2 DUP5 ADD MSTORE DUP2 MLOAD PUSH2 0xCA0 ADD MSTORE DUP3 MLOAD DUP1 DUP5 ADD DUP5 MSTORE PUSH31 0x76E4AF9F88D8063C1A7541F7FAF2C320758670FA182CE176E9E43ED118F15A DUP2 MSTORE PUSH32 0x258923B79E2FA4BFD9D9C00D446C5E5D5165073B6457E0B707CABB05B4CCF50C DUP2 DUP5 ADD MSTORE DUP2 MLOAD PUSH2 0xCC0 ADD MSTORE DUP3 MLOAD DUP1 DUP5 ADD DUP5 MSTORE PUSH32 0x2B145967697494A3400AFE3532444C7245D681A166029E921F01D86CC51B4E0D DUP2 MSTORE PUSH32 0x2120144C669D9100E4ACE02930438AC18CC26601E1261AFE03B6E432D7D13E88 DUP2 DUP5 ADD MSTORE DUP2 MLOAD PUSH2 0xCE0 ADD MSTORE DUP3 MLOAD DUP1 DUP5 ADD DUP5 MSTORE PUSH32 0x3A2230843650FDDE1C1DC91A8D13FB5E06695EA82B456F59EB8E70D2E8BFA90 DUP2 MSTORE PUSH32 0x18F4EA6EDD4D874C6D71CF39CE871EA993A0CA7B0ECAA3F949D023AC500C9230 DUP2 DUP5 ADD MSTORE DUP2 MLOAD PUSH2 0xD00 ADD MSTORE DUP3 MLOAD DUP1 DUP5 ADD DUP5 MSTORE PUSH32 0xC83997F5816A2573ADCA1E529B923AF5DAEE61F444A0ACB1995DA4B1E556848 DUP2 MSTORE PUSH32 0x248DA5E1756C6EFB3F51422A783A3078E5ECCE56EA1AD17B1ED20B527B5807EB DUP2 DUP5 ADD MSTORE DUP2 MLOAD PUSH2 0xD20 ADD MSTORE DUP3 MLOAD DUP1 DUP5 ADD DUP5 MSTORE PUSH32 0x2972CC40970947092E24849648C86A13ED16165844AB8BE1D5A2654F38F22B7B DUP2 MSTORE PUSH32 0x2A1109120D4998B1D15D33547C022035E6F9B359BF3C8295D09D37576F96788B DUP2 DUP5 ADD MSTORE DUP2 MLOAD PUSH2 0xD40 ADD MSTORE DUP3 MLOAD DUP1 DUP5 ADD DUP5 MSTORE PUSH32 0x5DC5082A2450BD5D8FF38E5292FB1DA48D37C85A53732086FD70961F0836DE6 DUP2 MSTORE PUSH32 0x8586C204B540AD59A6AE24321A179E8986040EF653816509CA017A8219B1214 DUP2 DUP5 ADD MSTORE DUP2 MLOAD PUSH2 0xD60 ADD MSTORE DUP3 MLOAD DUP1 DUP5 ADD DUP5 MSTORE PUSH32 0xA4ED32F8B39520F5040A07F43506FF873FF0865FA22FF90267E6937E2DBB1A1 DUP2 MSTORE PUSH32 0x11D94C88A8520378DA2C8B081A8D75BD1D762CC7A0479D79224EDCDFFD44C792 DUP2 DUP5 ADD MSTORE DUP2 MLOAD PUSH2 0xD80 ADD MSTORE DUP3 MLOAD DUP1 DUP5 ADD DUP5 MSTORE PUSH32 0x1D484CC9C2C7B0B543FC0A16E25A5905BB4B0B84C2601F7F4891C17765DAB538 DUP2 MSTORE PUSH32 0x2251B10F97908B395C83CAA7A41B185F52C0F4522CFC381818F71972F15603A1 DUP2 DUP5 ADD MSTORE DUP2 MLOAD PUSH2 0xDA0 ADD MSTORE DUP3 MLOAD DUP1 DUP5 ADD DUP5 MSTORE PUSH32 0x2BA99A8B814D19F0C43C20059818D69358579B93DE03C100D0A76792DAC0F404 DUP2 MSTORE PUSH32 0x19F3C9803A49B93253661F7C6C978963AD6DD9503770639AA871C2F827A34547 DUP2 DUP5 ADD MSTORE DUP2 MLOAD PUSH2 0xDC0 ADD MSTORE DUP3 MLOAD DUP1 DUP5 ADD DUP5 MSTORE PUSH32 0x19538C14A2CAE160D4B60DB876B2CA5C4ECA1D61AE1DF82FBD6E2E7D2433C287 DUP2 MSTORE PUSH32 0x16B8F3985F9D0525F8DCB58C73F9E8B852E9E0A280C8FED27FEBD70491F8B9D3 DUP2 DUP5 ADD MSTORE DUP2 MLOAD PUSH2 0xDE0 ADD MSTORE DUP3 MLOAD DUP1 DUP5 ADD DUP5 MSTORE PUSH32 0x1C265C57560F35B44622D0A79FE9E2B24F9CE0D503C22BE3AA6603D48EF66BD0 DUP2 MSTORE PUSH32 0x244B434F2F1CDE94D375389CAF16B1A7C5FB0D911A2BEF5F6B14629FF11FDE02 DUP2 DUP5 ADD MSTORE DUP2 MLOAD PUSH2 0xE00 ADD MSTORE DUP3 MLOAD DUP1 DUP5 ADD DUP5 MSTORE PUSH32 0x173FE91791785C73C1DE7459363B05DB2F7FA4734D8DA4597D7408C332879034 DUP2 MSTORE PUSH32 0x1018F47E79A91375466C162BD046C50EB0EC368A205233B182382CA0BEF7B5B6 DUP2 DUP5 ADD MSTORE DUP2 MLOAD PUSH2 0xE20 ADD MSTORE DUP3 MLOAD DUP1 DUP5 ADD DUP5 MSTORE PUSH32 0x434B4928B4B04E0C5B138DA4870E746F1B633DA129D3955397EB1AFDF980EBD DUP2 MSTORE PUSH32 0xC0E187B23C2DC08AE194414B3D38D755E3277B10499ECB257E8810F2D7CCF4F DUP2 DUP5 ADD MSTORE DUP2 MLOAD PUSH2 0xE40 ADD MSTORE DUP3 MLOAD DUP1 DUP5 ADD DUP5 MSTORE PUSH32 0x1A4A25977E2613469F5652290F6DCEB7BB8518BE126DA67D826AF11E630FB246 DUP2 MSTORE PUSH32 0x23A96AC9E0CDB9E299161F0D8DEB38C9084ED3B8A32095B67B97F0775BA2CE5E DUP2 DUP5 ADD MSTORE DUP2 MLOAD PUSH2 0xE60 ADD MSTORE DUP3 MLOAD DUP1 DUP5 ADD DUP5 MSTORE PUSH32 0x201B73AD5020CAC2861D124226B6758380B5622F7332CAC71E8FABF7EA9A5B6F DUP2 MSTORE PUSH32 0x786528EF6DC4B0FEB1EB8474B55AF0439656FA2A00D28211887D56F713C72B3 DUP2 DUP5 ADD MSTORE DUP2 MLOAD PUSH2 0xE80 ADD MSTORE DUP3 MLOAD DUP1 DUP5 ADD DUP5 MSTORE PUSH32 0xCADA7A29992EF576911423EE2C25D9730E1C455B7B177EB171EFE631ABFCD98 DUP2 MSTORE PUSH32 0x1FB26DC15A97DF863512339BA708C9C93447416099E38486CB86FC7D8283B3C2 DUP2 DUP5 ADD MSTORE DUP2 MLOAD PUSH2 0xEA0 ADD MSTORE DUP3 MLOAD DUP1 DUP5 ADD DUP5 MSTORE PUSH32 0x1C9EACB13E439DBFF60B96B9C52A311D853FE416A427123A7CBFDF67689861D7 DUP2 MSTORE PUSH32 0x14A18D75DFBF3FDD7C04560C3E2258C285525378BE5D81A4CE89D2198269A031 DUP2 DUP5 ADD MSTORE DUP2 MLOAD PUSH2 0xEC0 ADD MSTORE DUP3 MLOAD DUP1 DUP5 ADD DUP5 MSTORE PUSH32 0x1C4F7A2CF25B10B986CB31FCCB73F632D47AC6990FA2F2D93597C061B92A5E32 DUP2 MSTORE PUSH32 0x2148B0EFDD50E277F878BAD321D59EA56EE5DEA605CD2F5BAAE52F0B60FF7FF3 DUP2 DUP5 ADD MSTORE DUP2 MLOAD PUSH2 0xEE0 ADD MSTORE DUP3 MLOAD DUP1 DUP5 ADD DUP5 MSTORE PUSH32 0x33B43D4695C15DD1CBCAA1859A2837096B3ECC8CFF8E807BC1ED8D21F2FF27D DUP2 MSTORE PUSH32 0x2C2C45F1F5F01CB0CCD50367EE74EE6F4E4EB2A295EFB75E5DEEEA51B6DEE5D7 DUP2 DUP5 ADD MSTORE DUP2 MLOAD PUSH2 0xF00 ADD MSTORE DUP3 MLOAD DUP1 DUP5 ADD DUP5 MSTORE PUSH32 0x18C358919B36A133C10E5EB6C6BCC83764D0A7CA28B36C983342E988714BB37C DUP2 MSTORE PUSH32 0x16A2F21A0ABA82F1240857673738D476A18EB877327244E54FBFCA4E7C0D0EE9 DUP2 DUP5 ADD MSTORE DUP2 MLOAD PUSH2 0xF20 ADD MSTORE DUP3 MLOAD DUP1 DUP5 ADD DUP5 MSTORE PUSH32 0x2970E959178AE10DB4CA0E0B12CA89E22CE3BD3A5C693A138AC8000165E25BB6 DUP2 MSTORE PUSH32 0x2EFFDE35D93BD1FF9B0A44BA3E7DD62A3332A7DE32C4908F4BA60CAD800C033 DUP2 DUP5 ADD MSTORE DUP2 MLOAD PUSH2 0xF40 ADD MSTORE DUP3 MLOAD DUP1 DUP5 ADD DUP5 MSTORE PUSH32 0x15A87D65B458991B6EDB4EE7E654CB42F7B5FB886C3191918D54C9A9608AE03 DUP2 MSTORE PUSH32 0x1178FBAE9B315662E25CEDFBF17627B7A28F22203E18CB021FC62E4206108248 DUP2 DUP5 ADD MSTORE DUP2 MLOAD PUSH2 0xF60 ADD MSTORE DUP3 MLOAD DUP1 DUP5 ADD DUP5 MSTORE PUSH32 0x1C4B94967D4C250EDFD585ED42A3605447FFFDF35A2D10F3FA557971B7CE1F94 DUP2 MSTORE PUSH32 0x6A19D0F5CDDD3D0E69FAC9D773F65EEDCC6505F6EE1FD7A614E066ED7A400DE DUP2 DUP5 ADD MSTORE DUP2 MLOAD PUSH2 0xF80 ADD MSTORE DUP3 MLOAD DUP1 DUP5 ADD DUP5 MSTORE PUSH32 0x226851738AF0FC85FB16756E64D3668F84D7DF6F9BDA13ED41F814480BC0012E DUP2 MSTORE PUSH32 0x262596F00E224FAA8C84E6B50E12FC0B9B30E54B4410B3C71B039AAB9DDB9000 DUP2 DUP5 ADD MSTORE DUP2 MLOAD PUSH2 0xFA0 ADD MSTORE DUP3 MLOAD DUP1 DUP5 ADD DUP5 MSTORE PUSH32 0x115F6AC434D74AF8AD096C410B9FB04109955A203B2B7B86203A84A24D3D090A DUP2 MSTORE PUSH32 0x222B7BB844E99C8025B5B4B25BEB4BCBD41DAFAD5EF3917DF3847CE7901141A DUP2 DUP5 ADD MSTORE DUP2 MLOAD PUSH2 0xFC0 ADD MSTORE DUP3 MLOAD DUP1 DUP5 ADD DUP5 MSTORE PUSH32 0xF17B2AAA7BDFD081846C0A0C81578935898A74D5880A37A1777ACA367FBCBCA DUP2 MSTORE PUSH32 0x259429B7F9388DE31EB8A5ED899736BBDC38D1C47729309D1361F8523099F975 DUP2 DUP5 ADD MSTORE DUP2 MLOAD PUSH2 0xFE0 ADD MSTORE DUP3 MLOAD DUP1 DUP5 ADD DUP5 MSTORE PUSH32 0xF4A94173BBA71BD6BF4DA82C7E9BD3E5C7C2C471A4DA385863E1970C0AD153B DUP2 MSTORE PUSH32 0x295D77ABC5348FE32972F2621FC78AF928E8085E31C3313FBBE159D095D3F45D DUP2 DUP5 ADD MSTORE DUP2 MLOAD PUSH2 0x1000 ADD MSTORE DUP3 MLOAD DUP1 DUP5 ADD DUP5 MSTORE PUSH32 0x1ED99A54AB190A1B53967F63CFECAD66CF97378227613627551E08A4ADC347E4 DUP2 MSTORE PUSH32 0xCF03C61CCD8224D4FE192D43583CC611AE690737323DEF24C6AA0A94FD112FB DUP2 DUP5 ADD MSTORE DUP2 MLOAD PUSH2 0x1020 ADD MSTORE DUP3 MLOAD DUP1 DUP5 ADD DUP5 MSTORE PUSH32 0x1F3C69F7CCE45562CC7D2F7A5B41C37E7B172EA221065496D413C151F69432A DUP2 MSTORE PUSH32 0x15532BE47F553160D97D1A22B13E4D98C8F529C9B3B1CB0D691D2D75A91DDE08 DUP2 DUP5 ADD MSTORE DUP2 MLOAD PUSH2 0x1040 ADD MSTORE DUP3 MLOAD DUP1 DUP5 ADD DUP5 MSTORE PUSH32 0x10FC150BB0472416514ED82E0D116C102B4A490E94FE9FC3694E1EA17ABC905B DUP2 MSTORE PUSH32 0x18AC154F8618B4AD8482FA92A60347B1EF1CCAF802A686EF94C93648628A6ED5 DUP2 DUP5 ADD MSTORE DUP2 MLOAD PUSH2 0x1060 ADD MSTORE DUP3 MLOAD DUP1 DUP5 ADD DUP5 MSTORE PUSH32 0x115216155E5DA1D350A1EA6BA8B9F5E6ED49FBA29EE98A832BF9BFEB2040A499 DUP2 MSTORE PUSH32 0xB9EF65B7695891C52CA282813218A8A892DC51453663C4DAF4FCB8D80B5C6E4 DUP2 DUP5 ADD MSTORE DUP2 MLOAD PUSH2 0x1080 ADD MSTORE DUP3 MLOAD DUP1 DUP5 ADD DUP5 MSTORE PUSH32 0xB4F8A61B562C15D78DC215871E1E37DE9D3040E2C2AAAC36D5DB581221CA26A DUP2 MSTORE PUSH32 0xCF9ACBEDDB8FDEC9A0248C237D418CD5F8541E5A0A399F104FED2484A207CD7 DUP2 DUP5 ADD MSTORE DUP2 MLOAD PUSH2 0x10A0 ADD MSTORE DUP3 MLOAD DUP1 DUP5 ADD DUP5 MSTORE PUSH32 0x29A0956ECE42E4BC27C22F7D8361A2452BEB3F1B9F5396FE3019523832E61DC3 DUP2 MSTORE PUSH32 0x2D805389FC7FC6AC6A10FD621A8F573A831CFDE4914FB8DCA855B575E6AF178 DUP2 DUP5 ADD MSTORE DUP2 MLOAD PUSH2 0x10C0 ADD MSTORE DUP3 MLOAD DUP1 DUP5 ADD DUP5 MSTORE PUSH32 0x293E5DC421E8E8446678E418F2CBBED03E2960A37F770477A45B50EB1CE5F510 DUP2 MSTORE PUSH32 0x23ABDC4897179D8B78EBC71D95B657F80F7B31D93103F99E60860DFABAAEA8CC DUP2 DUP5 ADD MSTORE DUP2 MLOAD PUSH2 0x10E0 ADD MSTORE DUP3 MLOAD DUP1 DUP5 ADD SWAP1 SWAP4 MSTORE PUSH32 0x9EACB17AEC540D9FEECED52033416132C14FF7FC643A1895FCD0929E7A39A46 DUP4 MSTORE PUSH32 0x1BD91BA007DAD6686656CD2B955287240702E5EB49BE71FDF3A7790E7D428545 SWAP2 DUP4 ADD SWAP2 SWAP1 SWAP2 MSTORE MLOAD PUSH2 0x1100 ADD MSTORE SWAP1 JUMP JUMPDEST PUSH2 0x372D PUSH2 0x3BA5 JUMP JUMPDEST PUSH2 0x3735 PUSH2 0x3BBF JUMP JUMPDEST DUP4 MLOAD DUP2 MSTORE PUSH1 0x20 DUP1 DUP6 ADD MLOAD SWAP1 DUP3 ADD MSTORE PUSH1 0x40 DUP2 ADD DUP4 SWAP1 MSTORE PUSH1 0x0 PUSH1 0x60 DUP4 PUSH1 0x80 DUP5 PUSH1 0x7 PUSH2 0x7D0 GAS SUB STATICCALL SWAP1 POP DUP1 DUP1 ISZERO PUSH2 0x3768 JUMPI PUSH2 0x376A JUMP JUMPDEST INVALID JUMPDEST POP DUP1 PUSH2 0x37B2 JUMPI PUSH1 0x40 DUP1 MLOAD PUSH3 0x461BCD PUSH1 0xE5 SHL DUP2 MSTORE PUSH1 0x20 PUSH1 0x4 DUP3 ADD MSTORE PUSH1 0x12 PUSH1 0x24 DUP3 ADD MSTORE PUSH18 0x1C185A5C9A5B99CB5B5D5B0B59985A5B1959 PUSH1 0x72 SHL PUSH1 0x44 DUP3 ADD MSTORE SWAP1 MLOAD SWAP1 DUP2 SWAP1 SUB PUSH1 0x64 ADD SWAP1 REVERT JUMPDEST POP POP SWAP3 SWAP2 POP POP JUMP JUMPDEST PUSH2 0x37C2 PUSH2 0x3BA5 JUMP JUMPDEST PUSH2 0x37CA PUSH2 0x3BDD JUMP JUMPDEST DUP4 MLOAD DUP2 MSTORE PUSH1 0x20 DUP1 DUP6 ADD MLOAD DUP2 DUP4 ADD MSTORE DUP4 MLOAD PUSH1 0x40 DUP4 ADD MSTORE DUP4 ADD MLOAD PUSH1 0x60 DUP1 DUP4 ADD SWAP2 SWAP1 SWAP2 MSTORE PUSH1 0x0 SWAP1 DUP4 PUSH1 0xC0 DUP5 PUSH1 0x6 PUSH2 0x7D0 GAS SUB STATICCALL SWAP1 POP DUP1 DUP1 ISZERO PUSH2 0x3768 JUMPI POP DUP1 PUSH2 0x37B2 JUMPI PUSH1 0x40 DUP1 MLOAD PUSH3 0x461BCD PUSH1 0xE5 SHL DUP2 MSTORE PUSH1 0x20 PUSH1 0x4 DUP3 ADD MSTORE PUSH1 0x12 PUSH1 0x24 DUP3 ADD MSTORE PUSH18 0x1C185A5C9A5B99CB5859190B59985A5B1959 PUSH1 0x72 SHL PUSH1 0x44 DUP3 ADD MSTORE SWAP1 MLOAD SWAP1 DUP2 SWAP1 SUB PUSH1 0x64 ADD SWAP1 REVERT JUMPDEST PUSH2 0x3853 PUSH2 0x3BA5 JUMP JUMPDEST DUP2 MLOAD ISZERO DUP1 ISZERO PUSH2 0x3864 JUMPI POP PUSH1 0x20 DUP3 ADD MLOAD ISZERO JUMPDEST ISZERO PUSH2 0x3883 JUMPI POP PUSH1 0x40 DUP1 MLOAD DUP1 DUP3 ADD SWAP1 SWAP2 MSTORE PUSH1 0x0 DUP1 DUP3 MSTORE PUSH1 0x20 DUP3 ADD MSTORE PUSH2 0x38C9 JUMP JUMPDEST PUSH1 0x40 MLOAD DUP1 PUSH1 0x40 ADD PUSH1 0x40 MSTORE DUP1 DUP4 PUSH1 0x0 ADD MLOAD DUP2 MSTORE PUSH1 0x20 ADD PUSH1 0x0 DUP1 MLOAD PUSH1 0x20 PUSH2 0x3CE0 DUP4 CODECOPY DUP2 MLOAD SWAP2 MSTORE DUP5 PUSH1 0x20 ADD MLOAD DUP2 PUSH2 0x38B3 JUMPI INVALID JUMPDEST MOD PUSH1 0x0 DUP1 MLOAD PUSH1 0x20 PUSH2 0x3CE0 DUP4 CODECOPY DUP2 MLOAD SWAP2 MSTORE SUB SWAP1 MSTORE SWAP1 POP JUMPDEST SWAP2 SWAP1 POP JUMP JUMPDEST PUSH1 0x0 PUSH2 0x38D8 PUSH2 0x3BFB JUMP JUMPDEST PUSH1 0x40 MLOAD DUP1 PUSH1 0x80 ADD PUSH1 0x40 MSTORE DUP1 DUP12 DUP2 MSTORE PUSH1 0x20 ADD DUP10 DUP2 MSTORE PUSH1 0x20 ADD DUP8 DUP2 MSTORE PUSH1 0x20 ADD DUP6 DUP2 MSTORE POP SWAP1 POP PUSH2 0x3903 PUSH2 0x3C28 JUMP JUMPDEST POP PUSH1 0x40 DUP1 MLOAD PUSH1 0x80 DUP2 ADD DUP3 MSTORE DUP11 DUP2 MSTORE PUSH1 0x20 DUP2 ADD DUP10 SWAP1 MSTORE DUP1 DUP3 ADD DUP8 SWAP1 MSTORE PUSH1 0x60 DUP1 DUP3 ADD DUP7 SWAP1 MSTORE DUP3 MLOAD PUSH1 0x18 DUP1 DUP3 MSTORE PUSH2 0x320 DUP3 ADD SWAP1 SWAP5 MSTORE SWAP2 SWAP3 SWAP2 DUP3 DUP2 PUSH1 0x20 ADD PUSH1 0x20 DUP3 MUL DUP1 CALLDATASIZE DUP4 CALLDATACOPY ADD SWAP1 POP POP SWAP1 POP PUSH1 0x0 JUMPDEST PUSH1 0x4 DUP2 LT ISZERO PUSH2 0x3AA5 JUMPI PUSH1 0x6 DUP2 MUL DUP6 DUP3 PUSH1 0x4 DUP2 LT PUSH2 0x3967 JUMPI INVALID JUMPDEST PUSH1 0x20 MUL ADD MLOAD MLOAD DUP4 MLOAD DUP5 SWAP1 DUP4 SWAP1 DUP2 LT PUSH2 0x397B JUMPI INVALID JUMPDEST PUSH1 0x20 MUL PUSH1 0x20 ADD ADD DUP2 DUP2 MSTORE POP POP DUP6 DUP3 PUSH1 0x4 DUP2 LT PUSH2 0x3993 JUMPI INVALID JUMPDEST PUSH1 0x20 MUL ADD MLOAD PUSH1 0x20 ADD MLOAD DUP4 DUP3 PUSH1 0x1 ADD DUP2 MLOAD DUP2 LT PUSH2 0x39AB JUMPI INVALID JUMPDEST PUSH1 0x20 MUL PUSH1 0x20 ADD ADD DUP2 DUP2 MSTORE POP POP DUP5 DUP3 PUSH1 0x4 DUP2 LT PUSH2 0x39C3 JUMPI INVALID JUMPDEST PUSH1 0x20 MUL ADD MLOAD MLOAD MLOAD DUP4 MLOAD DUP5 SWAP1 PUSH1 0x2 DUP5 ADD SWAP1 DUP2 LT PUSH2 0x39DB JUMPI INVALID JUMPDEST PUSH1 0x20 MUL PUSH1 0x20 ADD ADD DUP2 DUP2 MSTORE POP POP DUP5 DUP3 PUSH1 0x4 DUP2 LT PUSH2 0x39F3 JUMPI INVALID JUMPDEST PUSH1 0x20 MUL ADD MLOAD MLOAD PUSH1 0x1 PUSH1 0x20 MUL ADD MLOAD DUP4 DUP3 PUSH1 0x3 ADD DUP2 MLOAD DUP2 LT PUSH2 0x3A0F JUMPI INVALID JUMPDEST PUSH1 0x20 MUL PUSH1 0x20 ADD ADD DUP2 DUP2 MSTORE POP POP DUP5 DUP3 PUSH1 0x4 DUP2 LT PUSH2 0x3A27 JUMPI INVALID JUMPDEST PUSH1 0x20 MUL ADD MLOAD PUSH1 0x20 ADD MLOAD PUSH1 0x0 PUSH1 0x2 DUP2 LT PUSH2 0x3A3C JUMPI INVALID JUMPDEST PUSH1 0x20 MUL ADD MLOAD DUP4 DUP3 PUSH1 0x4 ADD DUP2 MLOAD DUP2 LT PUSH2 0x3A50 JUMPI INVALID JUMPDEST PUSH1 0x20 MUL PUSH1 0x20 ADD ADD DUP2 DUP2 MSTORE POP POP DUP5 DUP3 PUSH1 0x4 DUP2 LT PUSH2 0x3A68 JUMPI INVALID JUMPDEST PUSH1 0x20 MUL ADD MLOAD PUSH1 0x20 ADD MLOAD PUSH1 0x1 PUSH1 0x2 DUP2 LT PUSH2 0x3A7D JUMPI INVALID JUMPDEST PUSH1 0x20 MUL ADD MLOAD DUP4 DUP3 PUSH1 0x5 ADD DUP2 MLOAD DUP2 LT PUSH2 0x3A91 JUMPI INVALID JUMPDEST PUSH1 0x20 SWAP1 DUP2 MUL SWAP2 SWAP1 SWAP2 ADD ADD MSTORE POP PUSH1 0x1 ADD PUSH2 0x394E JUMP JUMPDEST POP PUSH2 0x3AAE PUSH2 0x3C55 JUMP JUMPDEST PUSH1 0x0 PUSH1 0x20 DUP3 PUSH1 0x20 DUP7 MUL PUSH1 0x20 DUP7 ADD PUSH1 0x8 PUSH2 0x7D0 GAS SUB STATICCALL SWAP1 POP DUP1 DUP1 ISZERO PUSH2 0x3768 JUMPI POP DUP1 PUSH2 0x3B17 JUMPI PUSH1 0x40 DUP1 MLOAD PUSH3 0x461BCD PUSH1 0xE5 SHL DUP2 MSTORE PUSH1 0x20 PUSH1 0x4 DUP3 ADD MSTORE PUSH1 0x15 PUSH1 0x24 DUP3 ADD MSTORE PUSH21 0x1C185A5C9A5B99CB5BDC18DBD9194B59985A5B1959 PUSH1 0x5A SHL PUSH1 0x44 DUP3 ADD MSTORE SWAP1 MLOAD SWAP1 DUP2 SWAP1 SUB PUSH1 0x64 ADD SWAP1 REVERT JUMPDEST POP MLOAD ISZERO ISZERO SWAP14 SWAP13 POP POP POP POP POP POP POP POP POP POP POP POP POP JUMP JUMPDEST PUSH1 0x40 MLOAD DUP1 PUSH1 0x60 ADD PUSH1 0x40 MSTORE DUP1 PUSH2 0x3B3F PUSH2 0x3BA5 JUMP JUMPDEST DUP2 MSTORE PUSH1 0x20 ADD PUSH2 0x3B4C PUSH2 0x3C73 JUMP JUMPDEST DUP2 MSTORE PUSH1 0x20 ADD PUSH2 0x3B59 PUSH2 0x3BA5 JUMP JUMPDEST SWAP1 MSTORE SWAP1 JUMP JUMPDEST PUSH1 0x40 MLOAD DUP1 PUSH1 0xA0 ADD PUSH1 0x40 MSTORE DUP1 PUSH2 0x3B71 PUSH2 0x3BA5 JUMP JUMPDEST DUP2 MSTORE PUSH1 0x20 ADD PUSH2 0x3B7E PUSH2 0x3C73 JUMP JUMPDEST DUP2 MSTORE PUSH1 0x20 ADD PUSH2 0x3B8B PUSH2 0x3C73 JUMP JUMPDEST DUP2 MSTORE PUSH1 0x20 ADD PUSH2 0x3B98 PUSH2 0x3C73 JUMP JUMPDEST DUP2 MSTORE PUSH1 0x20 ADD PUSH2 0x3B59 PUSH2 0x3C93 JUMP JUMPDEST PUSH1 0x40 MLOAD DUP1 PUSH1 0x40 ADD PUSH1 0x40 MSTORE DUP1 PUSH1 0x0 DUP2 MSTORE PUSH1 0x20 ADD PUSH1 0x0 DUP2 MSTORE POP SWAP1 JUMP JUMPDEST PUSH1 0x40 MLOAD DUP1 PUSH1 0x60 ADD PUSH1 0x40 MSTORE DUP1 PUSH1 0x3 SWAP1 PUSH1 0x20 DUP3 MUL DUP1 CALLDATASIZE DUP4 CALLDATACOPY POP SWAP2 SWAP3 SWAP2 POP POP JUMP JUMPDEST PUSH1 0x40 MLOAD DUP1 PUSH1 0x80 ADD PUSH1 0x40 MSTORE DUP1 PUSH1 0x4 SWAP1 PUSH1 0x20 DUP3 MUL DUP1 CALLDATASIZE DUP4 CALLDATACOPY POP SWAP2 SWAP3 SWAP2 POP POP JUMP JUMPDEST PUSH1 0x40 MLOAD DUP1 PUSH1 0x80 ADD PUSH1 0x40 MSTORE DUP1 PUSH1 0x4 SWAP1 JUMPDEST PUSH2 0x3C12 PUSH2 0x3BA5 JUMP JUMPDEST DUP2 MSTORE PUSH1 0x20 ADD SWAP1 PUSH1 0x1 SWAP1 SUB SWAP1 DUP2 PUSH2 0x3C0A JUMPI SWAP1 POP POP SWAP1 JUMP JUMPDEST PUSH1 0x40 MLOAD DUP1 PUSH1 0x80 ADD PUSH1 0x40 MSTORE DUP1 PUSH1 0x4 SWAP1 JUMPDEST PUSH2 0x3C3F PUSH2 0x3C73 JUMP JUMPDEST DUP2 MSTORE PUSH1 0x20 ADD SWAP1 PUSH1 0x1 SWAP1 SUB SWAP1 DUP2 PUSH2 0x3C37 JUMPI SWAP1 POP POP SWAP1 JUMP JUMPDEST PUSH1 0x40 MLOAD DUP1 PUSH1 0x20 ADD PUSH1 0x40 MSTORE DUP1 PUSH1 0x1 SWAP1 PUSH1 0x20 DUP3 MUL DUP1 CALLDATASIZE DUP4 CALLDATACOPY POP SWAP2 SWAP3 SWAP2 POP POP JUMP JUMPDEST PUSH1 0x40 MLOAD DUP1 PUSH1 0x40 ADD PUSH1 0x40 MSTORE DUP1 PUSH2 0x3C86 PUSH2 0x3CC1 JUMP JUMPDEST DUP2 MSTORE PUSH1 0x20 ADD PUSH2 0x3B59 PUSH2 0x3CC1 JUMP JUMPDEST PUSH1 0x40 MLOAD DUP1 PUSH2 0x1120 ADD PUSH1 0x40 MSTORE DUP1 PUSH1 0x89 SWAP1 JUMPDEST PUSH2 0x3CAB PUSH2 0x3BA5 JUMP JUMPDEST DUP2 MSTORE PUSH1 0x20 ADD SWAP1 PUSH1 0x1 SWAP1 SUB SWAP1 DUP2 PUSH2 0x3CA3 JUMPI SWAP1 POP POP SWAP1 JUMP JUMPDEST PUSH1 0x40 MLOAD DUP1 PUSH1 0x40 ADD PUSH1 0x40 MSTORE DUP1 PUSH1 0x2 SWAP1 PUSH1 0x20 DUP3 MUL DUP1 CALLDATASIZE DUP4 CALLDATACOPY POP SWAP2 SWAP3 SWAP2 POP POP JUMP INVALID ADDRESS PUSH5 0x4E72E131A0 0x29 0xB8 POP GASLIMIT 0xB6 DUP2 DUP2 PC 0x5D SWAP8 DUP2 PUSH11 0x916871CA8D3C208C16D87C REVERT SELFBALANCE LOG2 PUSH5 0x6970667358 0x22 SLT KECCAK256 0x5D 0xC4 0x4C 0xC3 ADDMOD 0x2F COINBASE AND 0xAA PUSH14 0x7DE98FA213CC954BAA8C83894757 SHL SUB 0xC2 PUSH15 0xC298AB6E64736F6C634300060C0033 "},"methodIdentifiers":{"verifyProof(uint256[2],uint256[2][2],uint256[2],uint256[])":"c32e370e"}}}}}