{
  "_format": "hh-sol-artifact-1",
  "contractName": "PermissionedRecipientRegistry",
  "sourceName": "contracts/recipientRegistry/PermissionedRecipientRegistry.sol",
  "abi": [
    {
      "inputs": [
        {
          "internalType": "uint256",
          "name": "_baseDeposit",
          "type": "uint256"
        },
        {
          "internalType": "uint256",
          "name": "_challengePeriodDuration",
          "type": "uint256"
        },
        {
          "internalType": "address",
          "name": "_controller",
          "type": "address"
        }
      ],
      "stateMutability": "nonpayable",
      "type": "constructor"
    },
    {
      "anonymous": false,
      "inputs": [
        {
          "indexed": true,
          "internalType": "address",
          "name": "previousOwner",
          "type": "address"
        },
        {
          "indexed": true,
          "internalType": "address",
          "name": "newOwner",
          "type": "address"
        }
      ],
      "name": "OwnershipTransferred",
      "type": "event"
    },
    {
      "anonymous": false,
      "inputs": [
        {
          "indexed": true,
          "internalType": "bytes32",
          "name": "_recipientId",
          "type": "bytes32"
        },
        {
          "indexed": true,
          "internalType": "enum PermissionedRecipientRegistry.RequestType",
          "name": "_type",
          "type": "uint8"
        },
        {
          "indexed": true,
          "internalType": "bool",
          "name": "_rejected",
          "type": "bool"
        },
        {
          "indexed": false,
          "internalType": "uint256",
          "name": "_recipientIndex",
          "type": "uint256"
        },
        {
          "indexed": false,
          "internalType": "uint256",
          "name": "_timestamp",
          "type": "uint256"
        }
      ],
      "name": "RequestResolved",
      "type": "event"
    },
    {
      "anonymous": false,
      "inputs": [
        {
          "indexed": true,
          "internalType": "bytes32",
          "name": "_recipientId",
          "type": "bytes32"
        },
        {
          "indexed": true,
          "internalType": "enum PermissionedRecipientRegistry.RequestType",
          "name": "_type",
          "type": "uint8"
        },
        {
          "indexed": false,
          "internalType": "address",
          "name": "_recipient",
          "type": "address"
        },
        {
          "indexed": false,
          "internalType": "string",
          "name": "_metadata",
          "type": "string"
        },
        {
          "indexed": false,
          "internalType": "uint256",
          "name": "_timestamp",
          "type": "uint256"
        }
      ],
      "name": "RequestSubmitted",
      "type": "event"
    },
    {
      "inputs": [
        {
          "internalType": "address",
          "name": "_recipient",
          "type": "address"
        },
        {
          "internalType": "string",
          "name": "_metadata",
          "type": "string"
        }
      ],
      "name": "addRecipient",
      "outputs": [],
      "stateMutability": "payable",
      "type": "function"
    },
    {
      "inputs": [],
      "name": "baseDeposit",
      "outputs": [
        {
          "internalType": "uint256",
          "name": "",
          "type": "uint256"
        }
      ],
      "stateMutability": "view",
      "type": "function"
    },
    {
      "inputs": [],
      "name": "challengePeriodDuration",
      "outputs": [
        {
          "internalType": "uint256",
          "name": "",
          "type": "uint256"
        }
      ],
      "stateMutability": "view",
      "type": "function"
    },
    {
      "inputs": [
        {
          "internalType": "bytes32",
          "name": "_recipientId",
          "type": "bytes32"
        },
        {
          "internalType": "address payable",
          "name": "_beneficiary",
          "type": "address"
        }
      ],
      "name": "challengeRequest",
      "outputs": [
        {
          "internalType": "bool",
          "name": "",
          "type": "bool"
        }
      ],
      "stateMutability": "nonpayable",
      "type": "function"
    },
    {
      "inputs": [],
      "name": "controller",
      "outputs": [
        {
          "internalType": "address",
          "name": "",
          "type": "address"
        }
      ],
      "stateMutability": "view",
      "type": "function"
    },
    {
      "inputs": [
        {
          "internalType": "bytes32",
          "name": "_recipientId",
          "type": "bytes32"
        }
      ],
      "name": "executeRequest",
      "outputs": [
        {
          "internalType": "bool",
          "name": "",
          "type": "bool"
        }
      ],
      "stateMutability": "nonpayable",
      "type": "function"
    },
    {
      "inputs": [
        {
          "internalType": "uint256",
          "name": "_index",
          "type": "uint256"
        },
        {
          "internalType": "uint256",
          "name": "_startTime",
          "type": "uint256"
        },
        {
          "internalType": "uint256",
          "name": "_endTime",
          "type": "uint256"
        }
      ],
      "name": "getRecipientAddress",
      "outputs": [
        {
          "internalType": "address",
          "name": "",
          "type": "address"
        }
      ],
      "stateMutability": "view",
      "type": "function"
    },
    {
      "inputs": [],
      "name": "getRecipientCount",
      "outputs": [
        {
          "internalType": "uint256",
          "name": "",
          "type": "uint256"
        }
      ],
      "stateMutability": "view",
      "type": "function"
    },
    {
      "inputs": [],
      "name": "maxRecipients",
      "outputs": [
        {
          "internalType": "uint256",
          "name": "",
          "type": "uint256"
        }
      ],
      "stateMutability": "view",
      "type": "function"
    },
    {
      "inputs": [],
      "name": "owner",
      "outputs": [
        {
          "internalType": "address",
          "name": "",
          "type": "address"
        }
      ],
      "stateMutability": "view",
      "type": "function"
    },
    {
      "inputs": [
        {
          "internalType": "bytes32",
          "name": "_recipientId",
          "type": "bytes32"
        }
      ],
      "name": "removeRecipient",
      "outputs": [],
      "stateMutability": "payable",
      "type": "function"
    },
    {
      "inputs": [],
      "name": "renounceOwnership",
      "outputs": [],
      "stateMutability": "nonpayable",
      "type": "function"
    },
    {
      "inputs": [
        {
          "internalType": "uint256",
          "name": "_baseDeposit",
          "type": "uint256"
        }
      ],
      "name": "setBaseDeposit",
      "outputs": [],
      "stateMutability": "nonpayable",
      "type": "function"
    },
    {
      "inputs": [
        {
          "internalType": "uint256",
          "name": "_challengePeriodDuration",
          "type": "uint256"
        }
      ],
      "name": "setChallengePeriodDuration",
      "outputs": [],
      "stateMutability": "nonpayable",
      "type": "function"
    },
    {
      "inputs": [
        {
          "internalType": "uint256",
          "name": "_maxRecipients",
          "type": "uint256"
        }
      ],
      "name": "setMaxRecipients",
      "outputs": [
        {
          "internalType": "bool",
          "name": "",
          "type": "bool"
        }
      ],
      "stateMutability": "nonpayable",
      "type": "function"
    },
    {
      "inputs": [
        {
          "internalType": "address",
          "name": "newOwner",
          "type": "address"
        }
      ],
      "name": "transferOwnership",
      "outputs": [],
      "stateMutability": "nonpayable",
      "type": "function"
    }
  ],
  "bytecode": "0x608060405234801561001057600080fd5b50604051611b18380380611b188339818101604052606081101561003357600080fd5b5080516020820151604090920151909190600061004e6100c5565b600080546001600160a01b0319166001600160a01b0383169081178255604051929350917f8be0079c531659141344cd1fd0a4f28419497f9722a3daafe3b4186f6b6457e0908290a350600692909255600755600180546001600160a01b0319166001600160a01b039092169190911790556100c9565b3390565b611a40806100d86000396000f3fe6080604052600436106100f25760003560e01c80638d62272e1161008a578063d7c9ebdd11610059578063d7c9ebdd14610326578063e9c2416614610343578063f2fde38b1461036d578063f77c4791146103a0576100f2565b80638d62272e146102995780638da5cb5b146102d2578063af99b63f146102e7578063c22a933c146102fc576100f2565b806369474625116100c657806369474625146101da578063715018a6146101ef578063739b53841461020457806388a1307214610284576100f2565b806282a36d146100f7578063148ec9ab1461011e5780634458e6091461015c57806362564ed414610188575b600080fd5b34801561010357600080fd5b5061010c6103b5565b60408051918252519081900360200190f35b34801561012a57600080fd5b506101486004803603602081101561014157600080fd5b50356103bb565b604080519115158252519081900360200190f35b34801561016857600080fd5b506101866004803603602081101561017f57600080fd5b5035610426565b005b34801561019457600080fd5b506101be600480360360608110156101ab57600080fd5b5080359060208101359060400135610483565b604080516001600160a01b039092168252519081900360200190f35b3480156101e657600080fd5b5061010c6105ea565b3480156101fb57600080fd5b506101866105f0565b6101866004803603604081101561021a57600080fd5b6001600160a01b03823516919081019060408101602082013564010000000081111561024557600080fd5b82018360208201111561025757600080fd5b8035906020019184600183028401116401000000008311171561027957600080fd5b509092509050610692565b34801561029057600080fd5b5061010c6109d7565b3480156102a557600080fd5b50610148600480360360408110156102bc57600080fd5b50803590602001356001600160a01b03166109dd565b3480156102de57600080fd5b506101be610c5b565b3480156102f357600080fd5b5061010c610c6a565b34801561030857600080fd5b506101866004803603602081101561031f57600080fd5b5035610c74565b6101866004803603602081101561033c57600080fd5b5035610cd1565b34801561034f57600080fd5b506101486004803603602081101561036657600080fd5b5035610f28565b34801561037957600080fd5b506101866004803603602081101561039057600080fd5b50356001600160a01b03166111df565b3480156103ac57600080fd5b506101be6112d7565b60075481565b60006002548210156103fe5760405162461bcd60e51b81526004018080602001828103825260408152602001806118cf6040913960400191505060405180910390fd5b6001546001600160a01b0316331461041857506000610421565b50600281905560015b919050565b61042e6112e6565b6000546001600160a01b0390811691161461047e576040805162461bcd60e51b81526020600482018190526024820152600080516020611993833981519152604482015290519081900360640190fd5b600755565b6000831580610493575060055484115b156104a0575060006105e3565b6060600560018603815481106104b257fe5b9060005260206000200180548060200260200160405190810160405280929190818152602001828054801561050657602002820191906000526020600020905b8154815260200190600101908083116104f2575b505050505090508051600014156105215760009150506105e3565b80516000905b80156105de57600083600183038151811061053e57fe5b60200260200101519050610550611635565b50600081815260036020818152604092839020835160808101855281546001600160a01b031681526001820154928101929092526002810154938201849052909101546060820152908710156105a75750506105d5565b6060810151158015906105be575087816060015111155b156105d05783955050505050506105e3565b519250505b60001901610527565b509150505b9392505050565b60065481565b6105f86112e6565b6000546001600160a01b03908116911614610648576040805162461bcd60e51b81526020600482018190526024820152600080516020611993833981519152604482015290519081900360640190fd5b600080546040516001600160a01b03909116907f8be0079c531659141344cd1fd0a4f28419497f9722a3daafe3b4186f6b6457e0908390a3600080546001600160a01b0319169055565b6001600160a01b0383166106d75760405162461bcd60e51b815260040180806020018281038252602c81526020018061190f602c913960400191505060405180910390fd5b806107135760405162461bcd60e51b81526004018080602001828103825260308152602001806117c46030913960400191505060405180910390fd5b600083838360405160200180846001600160a01b031660601b815260140183838082843780830192505050935050505060405160208183030381529060405280519060200120905060036000828152602001908152602001600020600101546000146107b05760405162461bcd60e51b815260040180806020018281038252602f8152602001806119dc602f913960400191505060405180910390fd5b600081815260086020526040902060010154156107fe5760405162461bcd60e51b815260040180806020018281038252602c81526020018061193b602c913960400191505060405180910390fd5b600654341461083e5760405162461bcd60e51b815260040180806020018281038252602b815260200180611871602b913960400191505060405180910390fd5b6040805160c081019091528060008152602001336001600160a01b03168152602001428152602001348152602001856001600160a01b0316815260200184848080601f01602080910402602001604051908101604052809392919081815260200183838082843760009201829052509390945250508381526008602052604090208251815491925090829060ff1916600183818111156108da57fe5b02179055506020828101518254610100600160a81b0319166101006001600160a01b0392831602178355604084015160018401556060840151600284015560808401516003840180546001600160a01b0319169190921617905560a0830151805161094b9260048501920190611666565b50600091506109579050565b817fbb4ad318e5170357f8e7d25deefe5cf02bc8182cbb95600c22a1105978a8f1b88686864260405180856001600160a01b03168152602001806020018381526020018281038252858582818152602001925080828437600083820152604051601f909101601f191690920182900397509095505050505050a350505050565b60025481565b60006109e76112e6565b6000546001600160a01b03908116911614610a37576040805162461bcd60e51b81526020600482018190526024820152600080516020611993833981519152604482015290519081900360640190fd5b610a3f6116e4565b60008481526008602052604090819020815160c081019092528054829060ff166001811115610a6a57fe5b6001811115610a7557fe5b815281546001600160a01b036101009182900481166020808501919091526001808601546040808701919091526002808801546060880152600388015490941660808701526004870180548251601f60001995831615909802949094011694909404948501839004830282018301905283815260a0909401939290830182828015610b415780601f10610b1657610100808354040283529160200191610b41565b820191906000526020600020905b815481529060010190602001808311610b2457829003601f168201915b5050505050815250509050806040015160001415610b905760405162461bcd60e51b81526004018080602001828103825260298152602001806119b36029913960400191505060405180910390fd5b600084815260086020526040812080546001600160a81b031916815560018101829055600281018290556003810180546001600160a01b031916905590610bda600483018261172d565b505060608101516040516000916001600160a01b0386169181156108fc02919084818181858888f18651909550600194509250505081811115610c1957fe5b6040805160008152426020820152815189927f863e10260d0b36e06a2dee07c61c59e95209f121464f054ec556d22e958b1ef2928290030190a4949350505050565b6000546001600160a01b031690565b6004546005540390565b610c7c6112e6565b6000546001600160a01b03908116911614610ccc576040805162461bcd60e51b81526020600482018190526024820152600080516020611993833981519152604482015290519081900360640190fd5b600655565b600081815260036020526040902060010154610d1e5760405162461bcd60e51b815260040180806020018281038252603381526020018061189c6033913960400191505060405180910390fd5b6000818152600360208190526040909120015415610d6d5760405162461bcd60e51b815260040180806020018281038252602c815260200180611967602c913960400191505060405180910390fd5b60008181526008602052604090206001015415610dbb5760405162461bcd60e51b815260040180806020018281038252602c81526020018061193b602c913960400191505060405180910390fd5b6006543414610dfb5760405162461bcd60e51b815260040180806020018281038252602b815260200180611871602b913960400191505060405180910390fd5b6040805160c08101825260018082523360208084019190915242838501523460608401526000608084018190528451808301865281815260a085015285815260089091529290922081518154929391929091839160ff1916908381811115610e5f57fe5b02179055506020828101518254610100600160a81b0319166101006001600160a01b0392831602178355604084015160018401556060840151600284015560808401516003840180546001600160a01b0319169190921617905560a08301518051610ed09260048501920190611666565b5060019150610edc9050565b6040805160008082524282840152606060208301819052820152905183917fbb4ad318e5170357f8e7d25deefe5cf02bc8182cbb95600c22a1105978a8f1b8919081900360a00190a350565b6000610f326112e6565b6000546001600160a01b03908116911614610f82576040805162461bcd60e51b81526020600482018190526024820152600080516020611993833981519152604482015290519081900360640190fd5b610f8a6116e4565b60008381526008602052604090819020815160c081019092528054829060ff166001811115610fb557fe5b6001811115610fc057fe5b815281546001600160a01b036101009182900481166020808501919091526001808601546040808701919091526002808801546060880152600388015490941660808701526004870180548251601f60001995831615909802949094011694909404948501839004830282018301905283815260a090940193929083018282801561108c5780601f106110615761010080835404028352916020019161108c565b820191906000526020600020905b81548152906001019060200180831161106f57829003601f168201915b50505050508152505090508060400151600014156110db5760405162461bcd60e51b81526004018080602001828103825260298152602001806119b36029913960400191505060405180910390fd5b60006001825160018111156110ec57fe5b1415611100576110fb846112ea565b611111565b61110e8483608001516113cb565b90505b600084815260086020526040812080546001600160a81b031916815560018101829055600281018290556003810180546001600160a01b03191690559061115b600483018261172d565b5050602082015160608301516040516000926001600160a01b03169180156108fc029184818181858888f187519095506000945092505050600181111561119e57fe5b60408051858152426020820152815189927f863e10260d0b36e06a2dee07c61c59e95209f121464f054ec556d22e958b1ef2928290030190a4949350505050565b6111e76112e6565b6000546001600160a01b03908116911614611237576040805162461bcd60e51b81526020600482018190526024820152600080516020611993833981519152604482015290519081900360640190fd5b6001600160a01b03811661127c5760405162461bcd60e51b81526004018080602001828103825260268152602001806118216026913960400191505060405180910390fd5b600080546040516001600160a01b03808516939216917f8be0079c531659141344cd1fd0a4f28419497f9722a3daafe3b4186f6b6457e091a3600080546001600160a01b0319166001600160a01b0392909216919091179055565b6001546001600160a01b031681565b3390565b6000818152600360205260409020600101546113375760405162461bcd60e51b815260040180806020018281038252603381526020018061189c6033913960400191505060405180910390fd5b60008181526003602081905260409091200154156113865760405162461bcd60e51b815260040180806020018281038252602c815260200180611967602c913960400191505060405180910390fd5b60008181526003602081905260408220429101556004805460018101825591527f8a35acfbc15ff81a39ae7d344fd709f28e8600b4aa8c65c6b64bfe7fe36bd19b0155565b6000806002541161140d5760405162461bcd60e51b815260040180806020018281038252602d8152602001806117f4602d913960400191505060405180910390fd5b6000838152600360205260409020600101541561145b5760405162461bcd60e51b815260040180806020018281038252602f8152602001806119dc602f913960400191505060405180910390fd5b6005546002546000916001019081116114fc5760408051600180825281830190925291925082916060916020808301908036833701905050905085816000815181106114a357fe5b6020908102919091018101919091526005805460018101825560009190915282516114f5927f036b6384b5eca791c62761152d0c79bb0604c104a5fb6f4eb0703f3154bb3db090920191840190611774565b50506115c7565b60045461153a5760405162461bcd60e51b815260040180806020018281038252602a815260200180611847602a913960400191505060405180910390fd5b6004805460009190600019810190811061155057fe5b90600052602060002001549050600480548061156857fe5b6001900381819060005260206000200160009055905560036000828152602001908152602001600020600101549250600560018403815481106115a757fe5b600091825260208083209091018054600181018255908352912001869055505b50604080516080810182526001600160a01b0380861682526020808301858152428486019081526000606086018181528b82526003948590529690209451855494166001600160a01b0319909416939093178455516001840155905160028301559151910155905092915050565b604051806080016040528060006001600160a01b031681526020016000815260200160008152602001600081525090565b828054600181600116156101000203166002900490600052602060002090601f016020900481019282601f106116a757805160ff19168380011785556116d4565b828001600101855582156116d4579182015b828111156116d45782518255916020019190600101906116b9565b506116e09291506117ae565b5090565b6040805160c08101909152806000815260200160006001600160a01b03168152602001600081526020016000815260200160006001600160a01b03168152602001606081525090565b50805460018160011615610100020316600290046000825580601f106117535750611771565b601f01602090049060005260206000209081019061177191906117ae565b50565b8280548282559060005260206000209081019282156116d457916020028201828111156116d45782518255916020019190600101906116b9565b5b808211156116e057600081556001016117af56fe526563697069656e7452656769737472793a204d6574616461746120696e666f20697320656d70747920737472696e67526563697069656e7452656769737472793a20526563697069656e74206c696d6974206973206e6f74207365744f776e61626c653a206e6577206f776e657220697320746865207a65726f2061646472657373526563697069656e7452656769737472793a20526563697069656e74206c696d69742072656163686564526563697069656e7452656769737472793a20496e636f7272656374206465706f73697420616d6f756e74526563697069656e7452656769737472793a20526563697069656e74206973206e6f7420696e20746865207265676973747279526563697069656e7452656769737472793a204d6178206e756d626572206f6620726563697069656e74732063616e206e6f7420626520646563726561736564526563697069656e7452656769737472793a20526563697069656e742061646472657373206973207a65726f526563697069656e7452656769737472793a205265717565737420616c7265616479207375626d6974746564526563697069656e7452656769737472793a20526563697069656e7420616c72656164792072656d6f7665644f776e61626c653a2063616c6c6572206973206e6f7420746865206f776e6572526563697069656e7452656769737472793a205265717565737420646f6573206e6f74206578697374526563697069656e7452656769737472793a20526563697069656e7420616c72656164792072656769737465726564a26469706673582212203efe415fde69b748fd08db73d8de074b51e1341f6f56c45f907b0842ea92cd2164736f6c634300060c0033",
  "linkReferences": {},
  "deployedLinkReferences": {}
}