{
  "_format": "hh-sol-artifact-1",
  "contractName": "PoseidonT3",
  "sourceName": "maci-contracts/sol/Poseidon.sol",
  "abi": [
    {
      "inputs": [
        {
          "internalType": "uint256[2]",
          "name": "input",
          "type": "uint256[2]"
        }
      ],
      "name": "poseidon",
      "outputs": [
        {
          "internalType": "uint256",
          "name": "",
          "type": "uint256"
        }
      ],
      "stateMutability": "pure",
      "type": "function"
    }
  ],
  "bytecode": "0x60ce610025600b82828239805160001a60731461001857fe5b30600052607381538281f3fe730000000000000000000000000000000000000000301460806040526004361060335760003560e01c806329a5f2f6146038575b600080fd5b608060048036036040811015604c57600080fd5b6040805180820182529183019291818301918390600290839083908082843760009201919091525091945060929350505050565b60408051918252519081900360200190f35b5060009056fea264697066735822122052fd04be7be7151f0263b779d67f9dfe27f367364024f84fb961f23837dd49ed64736f6c634300060c0033",
  "linkReferences": {},
  "deployedLinkReferences": {}
}