{
  "_format": "hh-sol-artifact-1",
  "contractName": "BrightIdUserRegistry",
  "sourceName": "contracts/userRegistry/BrightIdUserRegistry.sol",
  "abi": [
    {
      "inputs": [
        {
          "internalType": "bytes32",
          "name": "_context",
          "type": "bytes32"
        },
        {
          "internalType": "address",
          "name": "_verifier",
          "type": "address"
        },
        {
          "internalType": "address",
          "name": "_sponsor",
          "type": "address"
        }
      ],
      "stateMutability": "nonpayable",
      "type": "constructor"
    },
    {
      "anonymous": false,
      "inputs": [
        {
          "indexed": true,
          "internalType": "address",
          "name": "previousOwner",
          "type": "address"
        },
        {
          "indexed": true,
          "internalType": "address",
          "name": "newOwner",
          "type": "address"
        }
      ],
      "name": "OwnershipTransferred",
      "type": "event"
    },
    {
      "anonymous": false,
      "inputs": [
        {
          "indexed": true,
          "internalType": "address",
          "name": "addr",
          "type": "address"
        },
        {
          "indexed": false,
          "internalType": "uint256",
          "name": "timestamp",
          "type": "uint256"
        }
      ],
      "name": "Registered",
      "type": "event"
    },
    {
      "anonymous": false,
      "inputs": [
        {
          "indexed": false,
          "internalType": "bytes32",
          "name": "context",
          "type": "bytes32"
        },
        {
          "indexed": false,
          "internalType": "address",
          "name": "verifier",
          "type": "address"
        }
      ],
      "name": "SetBrightIdSettings",
      "type": "event"
    },
    {
      "anonymous": false,
      "inputs": [
        {
          "indexed": false,
          "internalType": "address",
          "name": "sponsor",
          "type": "address"
        }
      ],
      "name": "SponsorChanged",
      "type": "event"
    },
    {
      "inputs": [],
      "name": "brightIdSponsor",
      "outputs": [
        {
          "internalType": "contract BrightIdSponsor",
          "name": "",
          "type": "address"
        }
      ],
      "stateMutability": "view",
      "type": "function"
    },
    {
      "inputs": [],
      "name": "context",
      "outputs": [
        {
          "internalType": "bytes32",
          "name": "",
          "type": "bytes32"
        }
      ],
      "stateMutability": "view",
      "type": "function"
    },
    {
      "inputs": [
        {
          "internalType": "address",
          "name": "_user",
          "type": "address"
        }
      ],
      "name": "isVerifiedUser",
      "outputs": [
        {
          "internalType": "bool",
          "name": "",
          "type": "bool"
        }
      ],
      "stateMutability": "view",
      "type": "function"
    },
    {
      "inputs": [],
      "name": "owner",
      "outputs": [
        {
          "internalType": "address",
          "name": "",
          "type": "address"
        }
      ],
      "stateMutability": "view",
      "type": "function"
    },
    {
      "inputs": [
        {
          "internalType": "bytes32",
          "name": "_context",
          "type": "bytes32"
        },
        {
          "internalType": "address",
          "name": "_addr",
          "type": "address"
        },
        {
          "internalType": "bytes32",
          "name": "_verificationHash",
          "type": "bytes32"
        },
        {
          "internalType": "uint256",
          "name": "_timestamp",
          "type": "uint256"
        },
        {
          "internalType": "uint8",
          "name": "_v",
          "type": "uint8"
        },
        {
          "internalType": "bytes32",
          "name": "_r",
          "type": "bytes32"
        },
        {
          "internalType": "bytes32",
          "name": "_s",
          "type": "bytes32"
        }
      ],
      "name": "register",
      "outputs": [],
      "stateMutability": "nonpayable",
      "type": "function"
    },
    {
      "inputs": [],
      "name": "renounceOwnership",
      "outputs": [],
      "stateMutability": "nonpayable",
      "type": "function"
    },
    {
      "inputs": [
        {
          "internalType": "bytes32",
          "name": "_context",
          "type": "bytes32"
        },
        {
          "internalType": "address",
          "name": "_verifier",
          "type": "address"
        }
      ],
      "name": "setSettings",
      "outputs": [],
      "stateMutability": "nonpayable",
      "type": "function"
    },
    {
      "inputs": [
        {
          "internalType": "address",
          "name": "_sponsor",
          "type": "address"
        }
      ],
      "name": "setSponsor",
      "outputs": [],
      "stateMutability": "nonpayable",
      "type": "function"
    },
    {
      "inputs": [
        {
          "internalType": "address",
          "name": "addr",
          "type": "address"
        }
      ],
      "name": "sponsor",
      "outputs": [],
      "stateMutability": "nonpayable",
      "type": "function"
    },
    {
      "inputs": [
        {
          "internalType": "address",
          "name": "newOwner",
          "type": "address"
        }
      ],
      "name": "transferOwnership",
      "outputs": [],
      "stateMutability": "nonpayable",
      "type": "function"
    },
    {
      "inputs": [
        {
          "internalType": "address",
          "name": "",
          "type": "address"
        }
      ],
      "name": "verifications",
      "outputs": [
        {
          "internalType": "uint256",
          "name": "time",
          "type": "uint256"
        }
      ],
      "stateMutability": "view",
      "type": "function"
    },
    {
      "inputs": [],
      "name": "verifier",
      "outputs": [
        {
          "internalType": "address",
          "name": "",
          "type": "address"
        }
      ],
      "stateMutability": "view",
      "type": "function"
    }
  ],
  "bytecode": "0x608060405234801561001057600080fd5b50604051610ce4380380610ce48339818101604052606081101561003357600080fd5b5080516020820151604090920151909190600061004e610205565b600080546001600160a01b0319166001600160a01b0383169081178255604051929350917f8be0079c531659141344cd1fd0a4f28419497f9722a3daafe3b4186f6b6457e0908290a35060408051808201909152601081526f24a72b20a624a2102b22a924a324a2a960811b60208201526001600160a01b0383166101515760405162461bcd60e51b81526004018080602001828103825283818151815260200191508051906020019080838360005b838110156101165781810151838201526020016100fe565b50505050905090810190601f1680156101435780820380516001836020036101000a031916815260200191505b509250505060405180910390fd5b5060408051808201909152600f81526e24a72b20a624a21029a827a729a7a960891b60208201526001600160a01b0382166101cd5760405162461bcd60e51b81526020600482018181528351602484015283519092839260449091019190850190808383600083156101165781810151838201526020016100fe565b50600192909255600280546001600160a01b039283166001600160a01b03199182161790915560038054929093169116179055610209565b3390565b610acc806102186000396000f3fe608060405234801561001057600080fd5b50600436106100b45760003560e01c8063715018a611610071578063715018a6146101ab578063766c4f37146101b35780637be1f901146101d95780638da5cb5b14610226578063d0496d6a1461022e578063f2fde38b14610236576100b4565b8063080c98da146100b95780632b7ac3f3146100f15780633da1c0c31461011557806348fde2951461014f57806359753fb11461017d5780636e35e6a4146101a3575b600080fd5b6100df600480360360208110156100cf57600080fd5b50356001600160a01b031661025c565b60408051918252519081900360200190f35b6100f961026e565b604080516001600160a01b039092168252519081900360200190f35b61013b6004803603602081101561012b57600080fd5b50356001600160a01b031661027d565b604080519115158252519081900360200190f35b61017b6004803603604081101561016557600080fd5b50803590602001356001600160a01b03166102b7565b005b61017b6004803603602081101561019357600080fd5b50356001600160a01b031661042b565b6100f9610553565b61017b610562565b61017b600480360360208110156101c957600080fd5b50356001600160a01b0316610604565b61017b600480360360e08110156101ef57600080fd5b508035906001600160a01b036020820135169060408101359060608101359060ff6080820135169060a08101359060c0013561066d565b6100f9610908565b6100df610917565b61017b6004803603602081101561024c57600080fd5b50356001600160a01b031661091d565b60046020526000908152604090205481565b6002546001600160a01b031681565b6000610287610a19565b50506001600160a01b03166000908152600460209081526040918290208251918201909252905490819052151590565b6102bf610a15565b6000546001600160a01b0390811691161461030f576040805162461bcd60e51b81526020600482018190526024820152600080516020610a53833981519152604482015290519081900360640190fd5b60408051808201909152601081526f24a72b20a624a2102b22a924a324a2a960811b60208201526001600160a01b0382166103c85760405162461bcd60e51b81526004018080602001828103825283818151815260200191508051906020019080838360005b8381101561038d578181015183820152602001610375565b50505050905090810190601f1680156103ba5780820380516001836020036101000a031916815260200191505b509250505060405180910390fd5b506001829055600280546001600160a01b0319166001600160a01b03831690811790915560408051848152602081019290925280517feca6c30ee9122002d5201d3e96a6b071b79a1ed10950dda3730c970c79e0d8509281900390910190a15050565b610433610a15565b6000546001600160a01b03908116911614610483576040805162461bcd60e51b81526020600482018190526024820152600080516020610a53833981519152604482015290519081900360640190fd5b60408051808201909152600f81526e24a72b20a624a21029a827a729a7a960891b60208201526001600160a01b0382166104fe5760405162461bcd60e51b815260206004820181815283516024840152835190928392604490910191908501908083836000831561038d578181015183820152602001610375565b50600380546001600160a01b0383166001600160a01b0319909116811790915560408051918252517f3654ca7211e97c8221a546197d9931904737314c63260b2cae1896803967930f9181900360200190a150565b6003546001600160a01b031681565b61056a610a15565b6000546001600160a01b039081169116146105ba576040805162461bcd60e51b81526020600482018190526024820152600080516020610a53833981519152604482015290519081900360640190fd5b600080546040516001600160a01b03909116907f8be0079c531659141344cd1fd0a4f28419497f9722a3daafe3b4186f6b6457e0908390a3600080546001600160a01b0319169055565b6003546040805163766c4f3760e01b81526001600160a01b0384811660048301529151919092169163766c4f3791602480830192600092919082900301818387803b15801561065257600080fd5b505af1158015610666573d6000803e3d6000fd5b5050505050565b86600154146040518060400160405280600f81526020016e125395905312510810d3d395115615608a1b815250906106e65760405162461bcd60e51b815260206004820181815283516024840152835190928392604490910191908501908083836000831561038d578181015183820152602001610375565b508360046000886001600160a01b03166001600160a01b031681526020019081526020016000206000015410604051806060016040528060248152602001610a7360249139906107775760405162461bcd60e51b815260206004820181815283516024840152835190928392604490910191908501908083836000831561038d578181015183820152602001610375565b506040805160208082018a90526bffffffffffffffffffffffff1960608a901b1682840152605482018890526074808301889052835180840390910181526094830180855281519183019190912060009182905260b4840180865281905260ff881660d485015260f48401879052610114840186905293519092600192610134808301939192601f198301929081900390910190855afa15801561081f573d6000803e3d6000fd5b505060408051601f19810151600254828401909352600e82526d1393d5081055551213d49256915160921b6020830152935091506001600160a01b038084169116146108ac5760405162461bcd60e51b815260206004820181815283516024840152835190928392604490910191908501908083836000831561038d578181015183820152602001610375565b506001600160a01b038816600081815260046020908152604091829020899055815189815291517f6f3bf3fa84e4763a43b3d23f9d79be242d6d5c834941ff4c1111b67469e1150c9281900390910190a2505050505050505050565b6000546001600160a01b031690565b60015481565b610925610a15565b6000546001600160a01b03908116911614610975576040805162461bcd60e51b81526020600482018190526024820152600080516020610a53833981519152604482015290519081900360640190fd5b6001600160a01b0381166109ba5760405162461bcd60e51b8152600401808060200182810382526026815260200180610a2d6026913960400191505060405180910390fd5b600080546040516001600160a01b03808516939216917f8be0079c531659141344cd1fd0a4f28419497f9722a3daafe3b4186f6b6457e091a3600080546001600160a01b0319166001600160a01b0392909216919091179055565b3390565b604051806020016040528060008152509056fe4f776e61626c653a206e6577206f776e657220697320746865207a65726f20616464726573734f776e61626c653a2063616c6c6572206973206e6f7420746865206f776e65724e4557455220564552494649434154494f4e2052454749535445524544204245464f5245a2646970667358221220ab069b777a6b337c88c1bf08b2a0b52801da26051d37ee7a1158dc527fa89f9664736f6c634300060c0033",
  "linkReferences": {},
  "deployedLinkReferences": {}
}