{
  "_format": "hh-sol-artifact-1",
  "contractName": "ClrFundDeployer",
  "sourceName": "contracts/ClrFundDeployer.sol",
  "abi": [
    {
      "inputs": [
        {
          "internalType": "address",
          "name": "_template",
          "type": "address"
        }
      ],
      "stateMutability": "nonpayable",
      "type": "constructor"
    },
    {
      "anonymous": false,
      "inputs": [
        {
          "indexed": true,
          "internalType": "address",
          "name": "clrfund",
          "type": "address"
        }
      ],
      "name": "NewInstance",
      "type": "event"
    },
    {
      "anonymous": false,
      "inputs": [
        {
          "indexed": true,
          "internalType": "address",
          "name": "clrfund",
          "type": "address"
        },
        {
          "indexed": false,
          "internalType": "string",
          "name": "metadata",
          "type": "string"
        }
      ],
      "name": "Register",
      "type": "event"
    },
    {
      "inputs": [
        {
          "internalType": "address",
          "name": "",
          "type": "address"
        }
      ],
      "name": "clrfunds",
      "outputs": [
        {
          "internalType": "bool",
          "name": "",
          "type": "bool"
        }
      ],
      "stateMutability": "view",
      "type": "function"
    },
    {
      "inputs": [
        {
          "internalType": "contract MACIFactory",
          "name": "_maciFactory",
          "type": "address"
        }
      ],
      "name": "deployFund",
      "outputs": [
        {
          "internalType": "address",
          "name": "",
          "type": "address"
        }
      ],
      "stateMutability": "nonpayable",
      "type": "function"
    },
    {
      "inputs": [
        {
          "internalType": "address",
          "name": "_clrFundAddress",
          "type": "address"
        },
        {
          "internalType": "string",
          "name": "_metadata",
          "type": "string"
        }
      ],
      "name": "registerInstance",
      "outputs": [
        {
          "internalType": "bool",
          "name": "",
          "type": "bool"
        }
      ],
      "stateMutability": "nonpayable",
      "type": "function"
    },
    {
      "inputs": [],
      "name": "template",
      "outputs": [
        {
          "internalType": "address",
          "name": "",
          "type": "address"
        }
      ],
      "stateMutability": "view",
      "type": "function"
    }
  ],
  "bytecode": "0x6080604052600060025534801561001557600080fd5b506040516104b93803806104b98339818101604052602081101561003857600080fd5b5051600080546001600160a01b039092166001600160a01b031990921691909117905561044f8061006a6000396000f3fe608060405234801561001057600080fd5b506004361061004c5760003560e01c806317244ffd146100515780633356a1e31461008b57806343d9de91146100cd5780636f2ddd9314610183575b600080fd5b6100776004803603602081101561006757600080fd5b50356001600160a01b031661018b565b604080519115158252519081900360200190f35b6100b1600480360360208110156100a157600080fd5b50356001600160a01b03166101a0565b604080516001600160a01b039092168252519081900360200190f35b610077600480360360408110156100e357600080fd5b6001600160a01b03823516919081019060408101602082013564010000000081111561010e57600080fd5b82018360208201111561012057600080fd5b8035906020019184600183028401116401000000008311171561014257600080fd5b91908080601f01602080910402602001604051908101604052809392919081815260200183838082843760009201919091525092955061025b945050505050565b6100b1610394565b60016020526000908152604090205460ff1681565b6000805481906101b8906001600160a01b03166103a3565b9050806001600160a01b03166319ab453c846040518263ffffffff1660e01b815260040180826001600160a01b03168152602001915050600060405180830381600087803b15801561020957600080fd5b505af115801561021d573d6000803e3d6000fd5b50506040516001600160a01b03841692507f39a773f10839d86923d91d5ce7d6642f2f63a95d850495abb1f162e38aa04ea59150600090a292915050565b600380546001600160a01b0319166001600160a01b03841690811790915560009081526001602052604081205460ff16156102c75760405162461bcd60e51b81526004018080602001828103825260248152602001806103f66024913960400191505060405180910390fd5b6001600160a01b0383166000818152600160208181526040808420805460ff19168417905560028054909301909255815181815286518183015286517f6ba0831d2f62ae5cbf7214bcc1d79c5da1d705f12811efda0beaa840006f874e94889492938493840192908601918190849084905b83811015610351578181015183820152602001610339565b50505050905090810190601f16801561037e5780820380516001836020036101000a031916815260200191505b509250505060405180910390a250600192915050565b6000546001600160a01b031681565b6000808260601b9050604051733d602d80600a3d3981f3363d3d373d3d3d363d7360601b81528160148201526e5af43d82803e903d91602b57fd5bf360881b60288201526037816000f094935050505056fe436c7246756e643a206d6574616461746120616c72656164792072656769737465726564a2646970667358221220521e2415bdf0854910279a80d4fae68564925a6ccb7030403a792a8cd9338dc964736f6c634300060c0033",
  "linkReferences": {},
  "deployedLinkReferences": {}
}