{
  "_format": "hh-sol-artifact-1",
  "contractName": "FundingRound",
  "sourceName": "contracts/FundingRound.sol",
  "abi": [
    {
      "inputs": [
        {
          "internalType": "contract ERC20",
          "name": "_nativeToken",
          "type": "address"
        },
        {
          "internalType": "contract IUserRegistry",
          "name": "_userRegistry",
          "type": "address"
        },
        {
          "internalType": "contract IRecipientRegistry",
          "name": "_recipientRegistry",
          "type": "address"
        },
        {
          "internalType": "address",
          "name": "_coordinator",
          "type": "address"
        }
      ],
      "stateMutability": "nonpayable",
      "type": "constructor"
    },
    {
      "anonymous": false,
      "inputs": [
        {
          "indexed": true,
          "internalType": "address",
          "name": "_sender",
          "type": "address"
        },
        {
          "indexed": false,
          "internalType": "uint256",
          "name": "_amount",
          "type": "uint256"
        }
      ],
      "name": "Contribution",
      "type": "event"
    },
    {
      "anonymous": false,
      "inputs": [
        {
          "indexed": true,
          "internalType": "address",
          "name": "_contributor",
          "type": "address"
        }
      ],
      "name": "ContributionWithdrawn",
      "type": "event"
    },
    {
      "anonymous": false,
      "inputs": [
        {
          "indexed": true,
          "internalType": "uint256",
          "name": "_voteOptionIndex",
          "type": "uint256"
        },
        {
          "indexed": true,
          "internalType": "address",
          "name": "_recipient",
          "type": "address"
        },
        {
          "indexed": false,
          "internalType": "uint256",
          "name": "_amount",
          "type": "uint256"
        }
      ],
      "name": "FundsClaimed",
      "type": "event"
    },
    {
      "anonymous": false,
      "inputs": [
        {
          "indexed": true,
          "internalType": "address",
          "name": "previousOwner",
          "type": "address"
        },
        {
          "indexed": true,
          "internalType": "address",
          "name": "newOwner",
          "type": "address"
        }
      ],
      "name": "OwnershipTransferred",
      "type": "event"
    },
    {
      "anonymous": false,
      "inputs": [
        {
          "indexed": false,
          "internalType": "string",
          "name": "_tallyHash",
          "type": "string"
        }
      ],
      "name": "TallyPublished",
      "type": "event"
    },
    {
      "anonymous": false,
      "inputs": [
        {
          "indexed": true,
          "internalType": "uint256",
          "name": "_voteOptionIndex",
          "type": "uint256"
        },
        {
          "indexed": false,
          "internalType": "uint256",
          "name": "_tally",
          "type": "uint256"
        }
      ],
      "name": "TallyResultsAdded",
      "type": "event"
    },
    {
      "anonymous": false,
      "inputs": [
        {
          "indexed": true,
          "internalType": "address",
          "name": "_contributor",
          "type": "address"
        }
      ],
      "name": "Voted",
      "type": "event"
    },
    {
      "inputs": [
        {
          "internalType": "uint8",
          "name": "_voteOptionTreeDepth",
          "type": "uint8"
        },
        {
          "internalType": "uint256[]",
          "name": "_voteOptionIndices",
          "type": "uint256[]"
        },
        {
          "internalType": "uint256[]",
          "name": "_tallyResults",
          "type": "uint256[]"
        },
        {
          "internalType": "uint256[][][]",
          "name": "_tallyResultProofs",
          "type": "uint256[][][]"
        },
        {
          "internalType": "uint256",
          "name": "_tallyResultSalt",
          "type": "uint256"
        }
      ],
      "name": "addTallyResultsBatch",
      "outputs": [],
      "stateMutability": "nonpayable",
      "type": "function"
    },
    {
      "inputs": [],
      "name": "alpha",
      "outputs": [
        {
          "internalType": "uint256",
          "name": "",
          "type": "uint256"
        }
      ],
      "stateMutability": "view",
      "type": "function"
    },
    {
      "inputs": [
        {
          "internalType": "uint256",
          "name": "_budget",
          "type": "uint256"
        },
        {
          "internalType": "uint256",
          "name": "_totalVotesSquares",
          "type": "uint256"
        },
        {
          "internalType": "uint256",
          "name": "_totalSpent",
          "type": "uint256"
        }
      ],
      "name": "calcAlpha",
      "outputs": [
        {
          "internalType": "uint256",
          "name": "_alpha",
          "type": "uint256"
        }
      ],
      "stateMutability": "view",
      "type": "function"
    },
    {
      "inputs": [],
      "name": "cancel",
      "outputs": [],
      "stateMutability": "nonpayable",
      "type": "function"
    },
    {
      "inputs": [
        {
          "internalType": "uint256",
          "name": "_voteOptionIndex",
          "type": "uint256"
        },
        {
          "internalType": "uint256",
          "name": "_spent",
          "type": "uint256"
        },
        {
          "internalType": "uint256[][]",
          "name": "_spentProof",
          "type": "uint256[][]"
        },
        {
          "internalType": "uint256",
          "name": "_spentSalt",
          "type": "uint256"
        }
      ],
      "name": "claimFunds",
      "outputs": [],
      "stateMutability": "nonpayable",
      "type": "function"
    },
    {
      "inputs": [
        {
          "components": [
            {
              "internalType": "uint256",
              "name": "x",
              "type": "uint256"
            },
            {
              "internalType": "uint256",
              "name": "y",
              "type": "uint256"
            }
          ],
          "internalType": "struct MACISharedObjs.PubKey",
          "name": "pubKey",
          "type": "tuple"
        },
        {
          "internalType": "uint256",
          "name": "amount",
          "type": "uint256"
        }
      ],
      "name": "contribute",
      "outputs": [],
      "stateMutability": "nonpayable",
      "type": "function"
    },
    {
      "inputs": [],
      "name": "contributorCount",
      "outputs": [
        {
          "internalType": "uint256",
          "name": "",
          "type": "uint256"
        }
      ],
      "stateMutability": "view",
      "type": "function"
    },
    {
      "inputs": [
        {
          "internalType": "address",
          "name": "",
          "type": "address"
        }
      ],
      "name": "contributors",
      "outputs": [
        {
          "internalType": "uint256",
          "name": "voiceCredits",
          "type": "uint256"
        },
        {
          "internalType": "bool",
          "name": "isRegistered",
          "type": "bool"
        }
      ],
      "stateMutability": "view",
      "type": "function"
    },
    {
      "inputs": [],
      "name": "coordinator",
      "outputs": [
        {
          "internalType": "address",
          "name": "",
          "type": "address"
        }
      ],
      "stateMutability": "view",
      "type": "function"
    },
    {
      "inputs": [
        {
          "internalType": "uint256",
          "name": "_totalSpent",
          "type": "uint256"
        },
        {
          "internalType": "uint256",
          "name": "_totalSpentSalt",
          "type": "uint256"
        }
      ],
      "name": "finalize",
      "outputs": [],
      "stateMutability": "nonpayable",
      "type": "function"
    },
    {
      "inputs": [
        {
          "internalType": "uint256",
          "name": "_tallyResult",
          "type": "uint256"
        },
        {
          "internalType": "uint256",
          "name": "_spent",
          "type": "uint256"
        }
      ],
      "name": "getAllocatedAmount",
      "outputs": [
        {
          "internalType": "uint256",
          "name": "",
          "type": "uint256"
        }
      ],
      "stateMutability": "view",
      "type": "function"
    },
    {
      "inputs": [
        {
          "internalType": "address",
          "name": "",
          "type": "address"
        },
        {
          "internalType": "bytes",
          "name": "_data",
          "type": "bytes"
        }
      ],
      "name": "getVoiceCredits",
      "outputs": [
        {
          "internalType": "uint256",
          "name": "",
          "type": "uint256"
        }
      ],
      "stateMutability": "view",
      "type": "function"
    },
    {
      "inputs": [],
      "name": "isCancelled",
      "outputs": [
        {
          "internalType": "bool",
          "name": "",
          "type": "bool"
        }
      ],
      "stateMutability": "view",
      "type": "function"
    },
    {
      "inputs": [],
      "name": "isFinalized",
      "outputs": [
        {
          "internalType": "bool",
          "name": "",
          "type": "bool"
        }
      ],
      "stateMutability": "view",
      "type": "function"
    },
    {
      "inputs": [],
      "name": "maci",
      "outputs": [
        {
          "internalType": "contract MACI",
          "name": "",
          "type": "address"
        }
      ],
      "stateMutability": "view",
      "type": "function"
    },
    {
      "inputs": [],
      "name": "matchingPoolSize",
      "outputs": [
        {
          "internalType": "uint256",
          "name": "",
          "type": "uint256"
        }
      ],
      "stateMutability": "view",
      "type": "function"
    },
    {
      "inputs": [],
      "name": "nativeToken",
      "outputs": [
        {
          "internalType": "contract ERC20",
          "name": "",
          "type": "address"
        }
      ],
      "stateMutability": "view",
      "type": "function"
    },
    {
      "inputs": [],
      "name": "owner",
      "outputs": [
        {
          "internalType": "address",
          "name": "",
          "type": "address"
        }
      ],
      "stateMutability": "view",
      "type": "function"
    },
    {
      "inputs": [
        {
          "internalType": "string",
          "name": "_tallyHash",
          "type": "string"
        }
      ],
      "name": "publishTallyHash",
      "outputs": [],
      "stateMutability": "nonpayable",
      "type": "function"
    },
    {
      "inputs": [],
      "name": "recipientRegistry",
      "outputs": [
        {
          "internalType": "contract IRecipientRegistry",
          "name": "",
          "type": "address"
        }
      ],
      "stateMutability": "view",
      "type": "function"
    },
    {
      "inputs": [
        {
          "internalType": "uint256",
          "name": "",
          "type": "uint256"
        }
      ],
      "name": "recipients",
      "outputs": [
        {
          "internalType": "bool",
          "name": "fundsClaimed",
          "type": "bool"
        },
        {
          "internalType": "bool",
          "name": "tallyVerified",
          "type": "bool"
        },
        {
          "internalType": "uint256",
          "name": "tallyResult",
          "type": "uint256"
        }
      ],
      "stateMutability": "view",
      "type": "function"
    },
    {
      "inputs": [
        {
          "internalType": "address",
          "name": "",
          "type": "address"
        },
        {
          "internalType": "bytes",
          "name": "_data",
          "type": "bytes"
        }
      ],
      "name": "register",
      "outputs": [],
      "stateMutability": "nonpayable",
      "type": "function"
    },
    {
      "inputs": [],
      "name": "renounceOwnership",
      "outputs": [],
      "stateMutability": "nonpayable",
      "type": "function"
    },
    {
      "inputs": [
        {
          "internalType": "contract MACI",
          "name": "_maci",
          "type": "address"
        }
      ],
      "name": "setMaci",
      "outputs": [],
      "stateMutability": "nonpayable",
      "type": "function"
    },
    {
      "inputs": [
        {
          "components": [
            {
              "internalType": "uint256",
              "name": "iv",
              "type": "uint256"
            },
            {
              "internalType": "uint256[10]",
              "name": "data",
              "type": "uint256[10]"
            }
          ],
          "internalType": "struct MACISharedObjs.Message[]",
          "name": "_messages",
          "type": "tuple[]"
        },
        {
          "components": [
            {
              "internalType": "uint256",
              "name": "x",
              "type": "uint256"
            },
            {
              "internalType": "uint256",
              "name": "y",
              "type": "uint256"
            }
          ],
          "internalType": "struct MACISharedObjs.PubKey[]",
          "name": "_encPubKeys",
          "type": "tuple[]"
        }
      ],
      "name": "submitMessageBatch",
      "outputs": [],
      "stateMutability": "nonpayable",
      "type": "function"
    },
    {
      "inputs": [],
      "name": "tallyHash",
      "outputs": [
        {
          "internalType": "string",
          "name": "",
          "type": "string"
        }
      ],
      "stateMutability": "view",
      "type": "function"
    },
    {
      "inputs": [],
      "name": "totalSpent",
      "outputs": [
        {
          "internalType": "uint256",
          "name": "",
          "type": "uint256"
        }
      ],
      "stateMutability": "view",
      "type": "function"
    },
    {
      "inputs": [],
      "name": "totalTallyResults",
      "outputs": [
        {
          "internalType": "uint256",
          "name": "",
          "type": "uint256"
        }
      ],
      "stateMutability": "view",
      "type": "function"
    },
    {
      "inputs": [],
      "name": "totalVotes",
      "outputs": [
        {
          "internalType": "uint256",
          "name": "",
          "type": "uint256"
        }
      ],
      "stateMutability": "view",
      "type": "function"
    },
    {
      "inputs": [],
      "name": "totalVotesSquares",
      "outputs": [
        {
          "internalType": "uint256",
          "name": "",
          "type": "uint256"
        }
      ],
      "stateMutability": "view",
      "type": "function"
    },
    {
      "inputs": [
        {
          "internalType": "address",
          "name": "newOwner",
          "type": "address"
        }
      ],
      "name": "transferOwnership",
      "outputs": [],
      "stateMutability": "nonpayable",
      "type": "function"
    },
    {
      "inputs": [],
      "name": "userRegistry",
      "outputs": [
        {
          "internalType": "contract IUserRegistry",
          "name": "",
          "type": "address"
        }
      ],
      "stateMutability": "view",
      "type": "function"
    },
    {
      "inputs": [],
      "name": "voiceCreditFactor",
      "outputs": [
        {
          "internalType": "uint256",
          "name": "",
          "type": "uint256"
        }
      ],
      "stateMutability": "view",
      "type": "function"
    },
    {
      "inputs": [],
      "name": "withdrawContribution",
      "outputs": [],
      "stateMutability": "nonpayable",
      "type": "function"
    },
    {
      "inputs": [
        {
          "internalType": "address[]",
          "name": "_contributors",
          "type": "address[]"
        }
      ],
      "name": "withdrawContributions",
      "outputs": [
        {
          "internalType": "bool[]",
          "name": "result",
          "type": "bool[]"
        }
      ],
      "stateMutability": "nonpayable",
      "type": "function"
    }
  ],
  "bytecode": "0x60806040526006805461ffff191690556000600c819055600d819055600e553480156200002b57600080fd5b5060405162003661380380620036618339810160408190526200004e91620001c7565b60006200005a620001c3565b600080546001600160a01b0319166001600160a01b0383169081178255604051929350917f8be0079c531659141344cd1fd0a4f28419497f9722a3daafe3b4186f6b6457e0908290a350600880546001600160a01b0319166001600160a01b0386811691909117918290556040805163313ce56760e01b81529051633b9aca00939092169163313ce56791600480820192602092909190829003018186803b1580156200010657600080fd5b505afa1580156200011b573d6000803e3d6000fd5b505050506040513d601f19601f820116820180604052508101906200014191906200022e565b60ff16600a0a61271002816200015357fe5b046001819055620001665760016200016a565b6001545b600155600980546001600160a01b039485166001600160a01b031991821617909155600a805493851693909116929092179091556006805491909216620100000262010000600160b01b03199091161790555062000271565b3390565b60008060008060808587031215620001dd578384fd5b8451620001ea8162000258565b6020860151909450620001fd8162000258565b6040860151909350620002108162000258565b6060860151909250620002238162000258565b939692955090935050565b60006020828403121562000240578081fd5b815160ff8116811462000251578182fd5b9392505050565b6001600160a01b03811681146200026e57600080fd5b50565b6133e080620002816000396000f3fe608060405234801561001057600080fd5b50600436106102115760003560e01c80638d4e408311610125578063c9e20dce116100ad578063e1758bd81161007c578063e1758bd814610409578063ea8a1af014610411578063ecfd892814610419578063f2fde38b14610421578063fb346eab1461043457610211565b8063c9e20dce146103c4578063d1bc76a1146103cc578063d754d326146103ee578063db1d0fd51461040157610211565b8063b364371c116100f4578063b364371c14610358578063b36543a914610378578063b6013cef1461038b578063b86abb6a1461039e578063c2bb1ea2146103b157610211565b80638d4e40831461032b5780638da5cb5b1461034057806395ee1221146103485780639d403a841461035057610211565b806334a0922c116101a85780635d75a84f116101775780635d75a84f146102d5578063715018a6146102e857806382c2e0fb146102f0578063847c0a39146103055780638766c4891461031857610211565b806334a0922c146102aa5780633bd7aee7146102b25780635ac60608146102c55780635c7460d6146102cd57610211565b80631b99d669116101e45780631b99d6691461025b5780631f6d494214610263578063205b63b91461028457806324b8fbf61461029757610211565b80630a009097146102165780630d15fd77146102345780630d616d20146102495780630eac19c914610253575b600080fd5b61021e61043c565b60405161022b91906125c4565b60405180910390f35b61023c610451565b60405161022b91906131cf565b610251610457565b005b61023c6104f2565b61023c6104f8565b610276610271366004612072565b6104fe565b60405161022b9291906131d8565b61025161029236600461243d565b61051a565b6102516102a53660046120b1565b61067c565b61021e6107fe565b6102516102c03660046123b9565b61080d565b61023c610c72565b61021e610c78565b6102516102e3366004612072565b610c87565b610251610d96565b6102f8610e15565b60405161022b91906126ad565b61023c610313366004612412565b610ea3565b6102516103263660046121ec565b610f0f565b610333610fe8565b60405161022b919061265b565b61021e610ff1565b610333611000565b61023c61100e565b61036b61036636600461214f565b611014565b60405161022b9190612615565b61023c6103863660046120b1565b61117f565b610251610399366004612398565b6111d9565b6102516103ac366004612339565b61167a565b61023c6103bf366004612398565b6119ec565b61021e611a12565b6103df6103da366004612368565b611a21565b60405161022b93929190612666565b6102516103fc3660046122cc565b611a47565b61023c611b01565b61021e611b07565b610251611b16565b61023c611b88565b61025161042f366004612072565b611b8e565b61023c611c44565b6006546201000090046001600160a01b031681565b60055481565b60408051600180825281830190925260609160208083019080368337019050509050338160008151811061048757fe5b60200260200101906001600160a01b031690816001600160a01b03168152505060606104b282611014565b9050806000815181106104c157fe5b60200260200101516104ee5760405162461bcd60e51b81526004016104e59061283c565b60405180910390fd5b5050565b600e5481565b600d5481565b6010602052600090815260409020805460019091015460ff1682565b6006546201000090046001600160a01b0316331461054a5760405162461bcd60e51b81526004016104e590612d04565b600760009054906101000a90046001600160a01b03166001600160a01b0316636e0c03596040518163ffffffff1660e01b815260040160206040518083038186803b15801561059857600080fd5b505afa1580156105ac573d6000803e3d6000fd5b505050506040513d601f19601f820116820180604052508101906105d091906122ac565b156105ed5760405162461bcd60e51b81526004016104e59061299f565b60065460ff16156106105760405162461bcd60e51b81526004016104e5906130eb565b60005b86811015610671576106698989898481811061062b57fe5b9050602002013588888581811061063e57fe5b9050602002013587878681811061065157fe5b905060200281019061066391906132c9565b87611c4a565b600101610613565b505050505050505050565b6007546001600160a01b031633146106a65760405162461bcd60e51b81526004016104e590612fcf565b6000818060200190518101906106bc9190612095565b600954604051633da1c0c360e01b81529192506000916001600160a01b0390911690633da1c0c3906106f29085906004016125c4565b60206040518083038186803b15801561070a57600080fd5b505afa15801561071e573d6000803e3d6000fd5b505050506040513d601f19601f8201168201806040525081019061074291906122ac565b9050806107615760405162461bcd60e51b81526004016104e590612957565b6001600160a01b0382166000908152601060205260409020546107965760405162461bcd60e51b81526004016104e590612e7b565b6001600160a01b03821660009081526010602052604090206001015460ff16156107d25760405162461bcd60e51b81526004016104e590612bdb565b506001600160a01b031660009081526010602052604090206001908101805460ff191690911790555050565b6007546001600160a01b031681565b60065460ff1661082f5760405162461bcd60e51b81526004016104e590613122565b600654610100900460ff16156108575760405162461bcd60e51b81526004016104e5906128c3565b6000858152600f602052604090205460ff16156108865760405162461bcd60e51b81526004016104e590612ec1565b6000858152600f6020526040808220805460ff19166001179055600754815163ac98e5df60e01b815291516001600160a01b039091169163ac98e5df916004808301926060929190829003018186803b1580156108e257600080fd5b505afa1580156108f6573d6000803e3d6000fd5b505050506040513d601f19601f8201168201806040525081019061091a91906124ed565b6007546040516367b6a5e160e01b8152919450600093506001600160a01b031691506367b6a5e19061095a9085908b908b908b908b908b9060040161320c565b60206040518083038186803b15801561097257600080fd5b505afa158015610986573d6000803e3d6000fd5b505050506040513d601f19601f820116820180604052508101906109aa91906122ac565b9050806109c95760405162461bcd60e51b81526004016104e590612753565b5050600754604080516307bc61f960e11b815290516000926001600160a01b031691630f78c3f2916004808301926020929190829003018186803b158015610a1057600080fd5b505afa158015610a24573d6000803e3d6000fd5b505050506040513d601f19601f82011682018060405250810190610a489190612380565b600a5460075460408051638402029360e01b815290519394506000936001600160a01b03938416936362564ed4938c93889391909216916384020293916004808301926020929190829003018186803b158015610aa457600080fd5b505afa158015610ab8573d6000803e3d6000fd5b505050506040513d601f19601f82011682018060405250810190610adc9190612380565b600760009054906101000a90046001600160a01b03166001600160a01b03166351aa636f6040518163ffffffff1660e01b815260040160206040518083038186803b158015610b2a57600080fd5b505afa158015610b3e573d6000803e3d6000fd5b505050506040513d601f19601f82011682018060405250810190610b629190612380565b8701016040518463ffffffff1660e01b8152600401610b83939291906131f6565b60206040518083038186803b158015610b9b57600080fd5b505afa158015610baf573d6000803e3d6000fd5b505050506040513d601f19601f82011682018060405250810190610bd39190612095565b90506001600160a01b038116610bee57610beb610ff1565b90505b6000878152600f602052604081206001015490610c0b82896119ec565b600854909150610c25906001600160a01b03168483611d95565b826001600160a01b0316897fa4eb50103b0591feb0bc913f479d92af5eb7ea33e8c397b49bab52ce6af26cb583604051610c5f91906131cf565b60405180910390a3505050505050505050565b60015481565b6009546001600160a01b031681565b610c8f611df0565b6000546001600160a01b03908116911614610cbc5760405162461bcd60e51b81526004016104e590612c57565b6007546001600160a01b031615610ce55760405162461bcd60e51b81526004016104e590612af8565b42816001600160a01b03166374ec2ae06040518163ffffffff1660e01b815260040160206040518083038186803b158015610d1f57600080fd5b505afa158015610d33573d6000803e3d6000fd5b505050506040513d601f19601f82011682018060405250810190610d579190612380565b11610d745760405162461bcd60e51b81526004016104e590612f7c565b600780546001600160a01b0319166001600160a01b0392909216919091179055565b610d9e611df0565b6000546001600160a01b03908116911614610dcb5760405162461bcd60e51b81526004016104e590612c57565b600080546040516001600160a01b03909116907f8be0079c531659141344cd1fd0a4f28419497f9722a3daafe3b4186f6b6457e0908390a3600080546001600160a01b0319169055565b600b805460408051602060026001851615610100026000190190941693909304601f81018490048402820184019092528181529291830182828015610e9b5780601f10610e7057610100808354040283529160200191610e9b565b820191906000526020600020905b815481529060010190602001808311610e7e57829003601f168201915b505050505081565b600154600090820280851015610ecb5760405162461bcd60e51b81526004016104e5906127a8565b828411610eea5760405162461bcd60e51b81526004016104e590612c8c565b82840360015402670de0b6b3a76400008287030281610f0557fe5b0495945050505050565b8260005b818160ff161015610fb5576007546001600160a01b031663394b78a2878760ff8516818110610f3e57fe5b9050610160020186868560ff16818110610f5457fe5b9050604002016040518363ffffffff1660e01b8152600401610f77929190613163565b600060405180830381600087803b158015610f9157600080fd5b505af1158015610fa5573d6000803e3d6000fd5b505060019092019150610f139050565b5060405133907f16a9aa39af49f169911e977347975198c503525f7240d6892a626f0227642fce90600090a25050505050565b60065460ff1681565b6000546001600160a01b031690565b600654610100900460ff1681565b60035481565b600654606090610100900460ff1661103e5760405162461bcd60e51b81526004016104e590612f3b565b815167ffffffffffffffff8111801561105657600080fd5b50604051908082528060200260200182016040528015611080578160200160208202803683370190505b50905060005b825181101561117957600083828151811061109d57fe5b6020908102919091018101516001546001600160a01b03821660009081526010909352604090922054909250028015611150576001600160a01b038083166000908152601060205260408120556008546110f991168383611d95565b6040516001600160a01b038316907f46580edb5b9a1324df52ca22b64bb41ef2032d8798a366df464f2b2a51192b7890600090a2600184848151811061113b57fe5b9115156020928302919091019091015261116f565b600084848151811061115e57fe5b911515602092830291909101909101525b5050600101611086565b50919050565b600080828060200190518101906111969190612095565b6001600160a01b038116600090815260106020526040902054909150806111cf5760405162461bcd60e51b81526004016104e590612b45565b9150505b92915050565b6111e1611df0565b6000546001600160a01b0390811691161461120e5760405162461bcd60e51b81526004016104e590612c57565b60065460ff16156112315760405162461bcd60e51b81526004016104e5906130eb565b6007546001600160a01b03166112595760405162461bcd60e51b81526004016104e590612c20565b6007546040805163d9509b1560e01b8152905142926001600160a01b03169163d9509b15916004808301926020929190829003018186803b15801561129d57600080fd5b505afa1580156112b1573d6000803e3d6000fd5b505050506040513d601f19601f820116820180604052508101906112d59190612380565b106112f25760405162461bcd60e51b81526004016104e590612a67565b600760009054906101000a90046001600160a01b03166001600160a01b0316636e0c03596040518163ffffffff1660e01b815260040160206040518083038186803b15801561134057600080fd5b505afa158015611354573d6000803e3d6000fd5b505050506040513d601f19601f8201168201806040525081019061137891906122ac565b156113955760405162461bcd60e51b81526004016104e59061270b565b600b54600260001961010060018416150201909116046113c75760405162461bcd60e51b81526004016104e5906129e8565b6007546040805163ac98e5df60e01b815290516000926001600160a01b03169163ac98e5df916004808301926060929190829003018186803b15801561140c57600080fd5b505afa158015611420573d6000803e3d6000fd5b505050506040513d601f19601f8201168201806040525081019061144491906124ed565b600d5490935060ff841660050a9250821490506114735760405162461bcd60e51b81526004016104e590612e35565b600760009054906101000a90046001600160a01b03166001600160a01b0316630d15fd776040518163ffffffff1660e01b815260040160206040518083038186803b1580156114c157600080fd5b505afa1580156114d5573d6000803e3d6000fd5b505050506040513d601f19601f820116820180604052508101906114f99190612380565b600581905561151a5760405162461bcd60e51b81526004016104e590612a37565b60075460405163686094fb60e11b81526000916001600160a01b03169063d0c129f69061154d90889088906004016131e8565b60206040518083038186803b15801561156557600080fd5b505afa158015611579573d6000803e3d6000fd5b505050506040513d601f19601f8201168201806040525081019061159d91906122ac565b9050806115bc5760405162461bcd60e51b81526004016104e5906127df565b60048581556008546040516370a0823160e01b81526000926001600160a01b03909216916370a08231916115f2913091016125c4565b60206040518083038186803b15801561160a57600080fd5b505afa15801561161e573d6000803e3d6000fd5b505050506040513d601f19601f820116820180604052508101906116429190612380565b905060015460045402810360038190555061166281600e54600454610ea3565b600c5550506006805460ff1916600117905550505050565b6007546001600160a01b03166116a25760405162461bcd60e51b81526004016104e590612c20565b600760009054906101000a90046001600160a01b03166001600160a01b031663e1b0e8026040518163ffffffff1660e01b815260040160206040518083038186803b1580156116f057600080fd5b505afa158015611704573d6000803e3d6000fd5b505050506040513d601f19601f820116820180604052508101906117289190612380565b600254106117485760405162461bcd60e51b81526004016104e590612ab1565b600760009054906101000a90046001600160a01b03166001600160a01b03166374ec2ae06040518163ffffffff1660e01b815260040160206040518083038186803b15801561179657600080fd5b505afa1580156117aa573d6000803e3d6000fd5b505050506040513d601f19601f820116820180604052508101906117ce9190612380565b42106117ec5760405162461bcd60e51b81526004016104e59061306d565b60065460ff161561180f5760405162461bcd60e51b81526004016104e5906130b4565b6000811161182f5760405162461bcd60e51b81526004016104e590612d4f565b600154633b9aca00028111156118575760405162461bcd60e51b81526004016104e590612909565b33600090815260106020526040902054156118845760405162461bcd60e51b81526004016104e590612df4565b6000600154828161189157fe5b604080518082018252929091048083526000602080850182815233808452601083529285902095518655516001958601805460ff19169115159190911790556002805490950190945591519093506060926118ef92918591016125d8565b604051602081830303815290604052905060603360405160200161191391906125c4565b60408051601f1981840301815291905260085490915061193e906001600160a01b0316333087611df4565b6007546040516319b2090560e11b81526001600160a01b0390911690633364120a9061197290889086908690600401613193565b600060405180830381600087803b15801561198c57600080fd5b505af11580156119a0573d6000803e3d6000fd5b50505050336001600160a01b03167f4d154d4aae216bed6d0926db77c00df2b57c6b5ba4eee05775de20facede3a7b856040516119dd91906131cf565b60405180910390a25050505050565b600154600c54670de0b6b3a7640000818302850290940290840390910291909102010490565b600a546001600160a01b031681565b600f602052600090815260409020805460019091015460ff808316926101009004169083565b6006546201000090046001600160a01b03163314611a775760405162461bcd60e51b81526004016104e590612d04565b60065460ff1615611a9a5760405162461bcd60e51b81526004016104e5906130b4565b80611ab75760405162461bcd60e51b81526004016104e590612dac565b611ac3600b8383611f8b565b507f25889b4220280b76437c086efe0bbecb5315f90890d209d027b11cceb7bdd3fb8282604051611af592919061267e565b60405180910390a15050565b600c5481565b6008546001600160a01b031681565b611b1e611df0565b6000546001600160a01b03908116911614611b4b5760405162461bcd60e51b81526004016104e590612c57565b60065460ff1615611b6e5760405162461bcd60e51b81526004016104e5906130eb565b6006805461ff001960ff1990911660011716610100179055565b60025481565b611b96611df0565b6000546001600160a01b03908116911614611bc35760405162461bcd60e51b81526004016104e590612c57565b6001600160a01b038116611be95760405162461bcd60e51b81526004016104e59061287d565b600080546040516001600160a01b03808516939216917f8be0079c531659141344cd1fd0a4f28419497f9722a3daafe3b4186f6b6457e091a3600080546001600160a01b0319166001600160a01b0392909216919091179055565b60045481565b6000858152600f602052604090208054610100900460ff1615611c7f5760405162461bcd60e51b81526004016104e5906126c0565b60075460405163c98ba24160e01b81526000916001600160a01b03169063c98ba24190611cba908b908b908b908b908b908b9060040161320c565b60206040518083038186803b158015611cd257600080fd5b505afa158015611ce6573d6000803e3d6000fd5b505050506040513d601f19601f82011682018060405250810190611d0a91906122ac565b905080611d295760405162461bcd60e51b81526004016104e590612b97565b815461ff0019166101001782556001828101879055600e8054888002019055600d8054909101905560405187907fcc3ebaeb86d31a2bd5e5cbf277392c258fe458af2031a9e0e377f5611aeeb9cf90611d839089906131cf565b60405180910390a25050505050505050565b611deb8363a9059cbb60e01b8484604051602401611db49291906125d8565b60408051601f198184030181529190526020810180516001600160e01b03166001600160e01b031990931692909217909152611e1b565b505050565b3390565b611e15846323b872dd60e01b858585604051602401611db4939291906125f1565b50505050565b6060611e70826040518060400160405280602081526020017f5361666545524332303a206c6f772d6c6576656c2063616c6c206661696c6564815250856001600160a01b0316611eaa9092919063ffffffff16565b805190915015611deb5780806020019051810190611e8e91906122ac565b611deb5760405162461bcd60e51b81526004016104e590613023565b6060611eb98484600085611ec1565b949350505050565b6060611ecc85611f85565b611ee85760405162461bcd60e51b81526004016104e590612f04565b60006060866001600160a01b03168587604051611f0591906125a8565b60006040518083038185875af1925050503d8060008114611f42576040519150601f19603f3d011682016040523d82523d6000602084013e611f47565b606091505b50915091508115611f5b579150611eb99050565b805115611f6b5780518082602001fd5b8360405162461bcd60e51b81526004016104e591906126ad565b3b151590565b828054600181600116156101000203166002900490600052602060002090601f016020900481019282601f10611fcc5782800160ff19823516178555611ff9565b82800160010185558215611ff9579182015b82811115611ff9578235825591602001919060010190611fde565b50612005929150612009565b5090565b5b80821115612005576000815560010161200a565b80356111d381613383565b60008083601f84011261203a578182fd5b50813567ffffffffffffffff811115612051578182fd5b602083019150836020808302850101111561206b57600080fd5b9250929050565b600060208284031215612083578081fd5b813561208e81613383565b9392505050565b6000602082840312156120a6578081fd5b815161208e81613383565b600080604083850312156120c3578081fd5b82356120ce81613383565b915060208381013567ffffffffffffffff808211156120eb578384fd5b818601915086601f8301126120fe578384fd5b81358181111561210c578485fd5b61211e601f8201601f19168501613310565b91508082528784828501011115612133578485fd5b8084840185840137810190920192909252919491935090915050565b60006020808385031215612161578182fd5b823567ffffffffffffffff811115612177578283fd5b8301601f81018513612187578283fd5b803561219a61219582613337565b613310565b81815283810190838501858402850186018910156121b6578687fd5b8694505b838510156121e0576121cc898261201e565b8352600194909401939185019185016121ba565b50979650505050505050565b60008060008060408587031215612201578182fd5b843567ffffffffffffffff80821115612218578384fd5b818701915087601f83011261222b578384fd5b813581811115612239578485fd5b8860206101608302850101111561224e578485fd5b602092830196509450908601359080821115612268578384fd5b818701915087601f83011261227b578384fd5b813581811115612289578485fd5b88602060408302850101111561229d578485fd5b95989497505060200194505050565b6000602082840312156122bd578081fd5b8151801515811461208e578182fd5b600080602083850312156122de578182fd5b823567ffffffffffffffff808211156122f5578384fd5b818501915085601f830112612308578384fd5b813581811115612316578485fd5b866020828501011115612327578485fd5b60209290920196919550909350505050565b600080828403606081121561234c578283fd5b6040811215612359578283fd5b50919360408501359350915050565b600060208284031215612379578081fd5b5035919050565b600060208284031215612391578081fd5b5051919050565b600080604083850312156123aa578182fd5b50508035926020909101359150565b6000806000806000608086880312156123d0578283fd5b8535945060208601359350604086013567ffffffffffffffff8111156123f4578384fd5b61240088828901612029565b96999598509660600135949350505050565b600080600060608486031215612426578081fd5b505081359360208301359350604090920135919050565b60008060008060008060008060a0898b031215612458578586fd5b88356124638161339b565b9750602089013567ffffffffffffffff8082111561247f578788fd5b61248b8c838d01612029565b909950975060408b01359150808211156124a3578485fd5b6124af8c838d01612029565b909750955060608b01359150808211156124c7578485fd5b506124d48b828c01612029565b999c989b50969995989497949560800135949350505050565b600080600060608486031215612501578081fd5b835161250c8161339b565b602085015190935061251d8161339b565b604085015190925061252e8161339b565b809150509250925092565b81835260006001600160fb1b03831115612551578081fd5b6020830280836020870137939093016020019283525090919050565b60008151808452612585816020860160208601613357565b601f01601f19169290920160200192915050565b80358252602090810135910152565b600082516125ba818460208701613357565b9190910192915050565b6001600160a01b0391909116815260200190565b6001600160a01b03929092168252602082015260400190565b6001600160a01b039384168152919092166020820152604081019190915260600190565b6020808252825182820181905260009190848201906040850190845b8181101561264f578351151583529284019291840191600101612631565b50909695505050505050565b901515815260200190565b92151583529015156020830152604082015260600190565b60006020825282602083015282846040840137818301604090810191909152601f909201601f19160101919050565b60006020825261208e602083018461256d565b6020808252602b908201527f46756e64696e67526f756e643a20566f746520726573756c747320616c72656160408201526a191e481d995c9a599a595960aa1b606082015260800190565b60208082526028908201527f46756e64696e67526f756e643a20566f74657320686173206e6f74206265656e604082015267081d185b1b1a595960c21b606082015260800190565b60208082526035908201527f46756e64696e67526f756e643a20496e636f727265637420616d6f756e74206f60408201527466207370656e7420766f696365206372656469747360581b606082015260800190565b6020808252601c908201527f46756e64696e67526f756e643a20496e76616c69642062756467657400000000604082015260600190565b6020808252603b908201527f46756e64696e67526f756e643a20496e636f727265637420746f74616c20616d60408201527f6f756e74206f66207370656e7420766f69636520637265646974730000000000606082015260800190565b60208082526021908201527f46756e64696e67526f756e643a204e6f7468696e6720746f20776974686472616040820152607760f81b606082015260800190565b60208082526026908201527f4f776e61626c653a206e6577206f776e657220697320746865207a65726f206160408201526564647265737360d01b606082015260800190565b60208082526026908201527f46756e64696e67526f756e643a20526f756e6420686173206265656e2063616e60408201526518d95b1b195960d21b606082015260800190565b6020808252602e908201527f46756e64696e67526f756e643a20436f6e747269627574696f6e20616d6f756e60408201526d7420697320746f6f206c6172676560901b606082015260800190565b60208082526028908201527f46756e64696e67526f756e643a205573657220686173206e6f74206265656e206040820152671d995c9a599a595960c21b606082015260800190565b60208082526029908201527f46756e64696e67526f756e643a20566f7465732068617665206e6f74206265656040820152681b881d185b1b1a595960ba1b606082015260800190565b6020808252602f908201527f46756e64696e67526f756e643a2054616c6c79206861736820686173206e6f7460408201526e081899595b881c1d589b1a5cda1959608a1b606082015260800190565b60208082526016908201527546756e64696e67526f756e643a204e6f20766f74657360501b604082015260600190565b6020808252602a908201527f46756e64696e67526f756e643a20566f74696e6720686173206e6f74206265656040820152691b88199a5b9a5cda195960b21b606082015260800190565b60208082526027908201527f46756e64696e67526f756e643a20436f6e7472696275746f72206c696d6974206040820152661c995858da195960ca1b606082015260800190565b6020808252602d908201527f46756e64696e67526f756e643a20416c7265616479206c696e6b656420746f2060408201526c4d41434920696e7374616e636560981b606082015260800190565b60208082526032908201527f46756e64696e67526f756e643a205573657220646f6573206e6f74206861766560408201527120616e7920766f696365206372656469747360701b606082015260800190565b60208082526024908201527f46756e64696e67526f756e643a20496e636f72726563742074616c6c792072656040820152631cdd5b1d60e21b606082015260800190565b60208082526025908201527f46756e64696e67526f756e643a205573657220616c72656164792072656769736040820152641d195c995960da1b606082015260800190565b6020808252601f908201527f46756e64696e67526f756e643a204d414349206e6f74206465706c6f79656400604082015260600190565b6020808252818101527f4f776e61626c653a2063616c6c6572206973206e6f7420746865206f776e6572604082015260600190565b60208082526052908201527f46756e64696e67526f756e643a20546f74616c2071756164726174696320766f60408201527f746573206d7573742062652067726561746572207468616e20746f74616c207360608201527170656e7420766f696365206372656469747360701b608082015260a00190565b6020808252602b908201527f46756e64696e67526f756e643a2053656e646572206973206e6f74207468652060408201526a31b7b7b93234b730ba37b960a91b606082015260800190565b6020808252603b908201527f46756e64696e67526f756e643a20436f6e747269627574696f6e20616d6f756e60408201527f74206d7573742062652067726561746572207468616e207a65726f0000000000606082015260800190565b60208082526028908201527f46756e64696e67526f756e643a2054616c6c79206861736820697320656d70746040820152677920737472696e6760c01b606082015260800190565b60208082526021908201527f46756e64696e67526f756e643a20416c726561647920636f6e747269627574656040820152601960fa1b606082015260800190565b60208082526026908201527f46756e64696e67526f756e643a20496e636f6d706c6574652074616c6c7920726040820152656573756c747360d01b606082015260800190565b60208082526026908201527f46756e64696e67526f756e643a205573657220686173206e6f7420636f6e74726040820152651a589d5d195960d21b606082015260800190565b60208082526023908201527f46756e64696e67526f756e643a2046756e647320616c726561647920636c61696040820152621b595960ea1b606082015260800190565b6020808252601d908201527f416464726573733a2063616c6c20746f206e6f6e2d636f6e7472616374000000604082015260600190565b60208082526021908201527f46756e64696e67526f756e643a20526f756e64206e6f742063616e63656c6c656040820152601960fa1b606082015260800190565b60208082526033908201527f46756e64696e67526f756e643a205369676e757020646561646c696e65206d75604082015272737420626520696e207468652066757475726560681b606082015260800190565b60208082526034908201527f46756e64696e67526f756e643a204f6e6c79204d41434920636f6e74726163746040820152732063616e20726567697374657220766f7465727360601b606082015260800190565b6020808252602a908201527f5361666545524332303a204552433230206f7065726174696f6e20646964206e6040820152691bdd081cdd58d8d9595960b21b606082015260800190565b60208082526027908201527f46756e64696e67526f756e643a20436f6e747269627574696f6e20706572696f6040820152661908195b99195960ca1b606082015260800190565b6020808252601d908201527f46756e64696e67526f756e643a20526f756e642066696e616c697a6564000000604082015260600190565b6020808252601f908201527f46756e64696e67526f756e643a20416c72656164792066696e616c697a656400604082015260600190565b60208082526021908201527f46756e64696e67526f756e643a20526f756e64206e6f742066696e616c697a656040820152601960fa1b606082015260800190565b823581526101a0810161014060208086019084013761016082016000815261318b8185612599565b509392505050565b600061319f8286612599565b608060408301526131b3608083018561256d565b82810360608401526131c5818561256d565b9695505050505050565b90815260200190565b9182521515602082015260400190565b918252602082015260400190565b9283526020830191909152604082015260600190565b600060a0820160ff891683526020888185015287604085015260a060608501528186835260c08501905060c0828802860101925087845b888110156132b15786850360bf190183528135368b9003601e19018112613268578687fd5b8a01803567ffffffffffffffff811115613280578788fd5b85810236038c1315613290578788fd5b61329d8782888501612539565b965050509183019190830190600101613243565b50505050608092909201929092529695505050505050565b6000808335601e198436030181126132df578283fd5b83018035915067ffffffffffffffff8211156132f9578283fd5b602090810192508102360382131561206b57600080fd5b60405181810167ffffffffffffffff8111828210171561332f57600080fd5b604052919050565b600067ffffffffffffffff82111561334d578081fd5b5060209081020190565b60005b8381101561337257818101518382015260200161335a565b83811115611e155750506000910152565b6001600160a01b038116811461339857600080fd5b50565b60ff8116811461339857600080fdfea26469706673582212203f56c41d7e338e2cdf9f44fb969fe9eafa772a766054b03c1676eafebfe580da64736f6c634300060c0033",
  "linkReferences": {},
  "deployedLinkReferences": {}
}